{
	"data": {
		"bytecode": {
			"linkReferences": {},
			"object": "608060405234801561001057600080fd5b50612854806100206000396000f3fe608060405234801561001057600080fd5b50600436106100935760003560e01c80637d31f1ee116100665780637d31f1ee14610130578063ae1f81e414610160578063b3fde2b11461017c578063d0e067ea146101ac578063e027eb51146101dc57610093565b80630e411dc214610098578063105e24ec146100b457806330705565146100e457806340d4895014610114575b600080fd5b6100b260048036038101906100ad919061192f565b6101f8565b005b6100ce60048036038101906100c99190611ddb565b6102d7565b6040516100db91906123e3565b60405180910390f35b6100fe60048036038101906100f991906117ad565b61065b565b60405161010b9190612405565b60405180910390f35b61012e60048036038101906101299190611aa7565b610868565b005b61014a6004803603810190610145919061187b565b610917565b6040516101579190612427565b60405180910390f35b61017a60048036038101906101759190611cff565b610ba3565b005b610196600480360381019061019191906117fa565b610c1f565b6040516101a39190612449565b60405180910390f35b6101c660048036038101906101c19190611764565b610e9c565b6040516101d391906123c1565b60405180910390f35b6101f660048036038101906101f19190611bd3565b6111b3565b005b6000808c8c60405161020b929190612391565b90815260200160405180910390206005018a8a60405161022c929190612391565b9081526020016040518091039020600501888860405161024d929190612391565b9081526020016040518091039020600401868660405161026e929190612391565b908152602001604051809103902090508381600001908051906020019061029692919061126f565b50828160010190805190602001906102af9291906112cf565b50818160020190805190602001906102c892919061126f565b50505050505050505050505050565b6060815167ffffffffffffffff8111156102f4576102f36127a9565b5b60405190808252806020026020018201604052801561032d57816020015b61031a61131c565b8152602001906001900390816103125790505b50905060005b8251811015610654576000808560405161034d91906123aa565b90815260200160405180910390206005018483815181106103715761037061277a565b5b602002602001015160405161038691906123aa565b908152602001604051809103902090508060000180546103a590612670565b80601f01602080910402602001604051908101604052809291908181526020018280546103d190612670565b801561041e5780601f106103f35761010080835404028352916020019161041e565b820191906000526020600020905b81548152906001019060200180831161040157829003601f168201915b50505050508383815181106104365761043561277a565b5b60200260200101516000018190525080600101805461045490612670565b80601f016020809104026020016040519081016040528092919081815260200182805461048090612670565b80156104cd5780601f106104a2576101008083540402835291602001916104cd565b820191906000526020600020905b8154815290600101906020018083116104b057829003601f168201915b50505050508383815181106104e5576104e461277a565b5b60200260200101516020018190525080600201805461050390612670565b80601f016020809104026020016040519081016040528092919081815260200182805461052f90612670565b801561057c5780601f106105515761010080835404028352916020019161057c565b820191906000526020600020905b81548152906001019060200180831161055f57829003601f168201915b50505050508383815181106105945761059361277a565b5b602002602001015160400181905250806003018054806020026020016040519081016040528092919081815260200182805480156105f157602002820191906000526020600020905b8154815260200190600101908083116105dd575b50505050508383815181106106095761060861277a565b5b60200260200101516060018190525080600401548383815181106106305761062f61277a565b5b6020026020010151608001818152505050808061064c906126d3565b915050610333565b5092915050565b61066361134b565b6000808484604051610676929190612391565b9081526020016040518091039020905080600001805461069590612670565b80601f01602080910402602001604051908101604052809291908181526020018280546106c190612670565b801561070e5780601f106106e35761010080835404028352916020019161070e565b820191906000526020600020905b8154815290600101906020018083116106f157829003601f168201915b5050505050826000018190525080600101805461072a90612670565b80601f016020809104026020016040519081016040528092919081815260200182805461075690612670565b80156107a35780601f10610778576101008083540402835291602001916107a3565b820191906000526020600020905b81548152906001019060200180831161078657829003601f168201915b505050505082602001819052508060020180546107bf90612670565b80601f01602080910402602001604051908101604052809291908181526020018280546107eb90612670565b80156108385780601f1061080d57610100808354040283529160200191610838565b820191906000526020600020905b81548152906001019060200180831161081b57829003601f168201915b50505050508260400181905250806003015482606001818152505080600401548260800181815250505092915050565b600080898960405161087b929190612391565b90815260200160405180910390206005018b8b60405161089c929190612391565b908152602001604051809103902090508a8a8260000191906108bf92919061137a565b5086868260010191906108d392919061137a565b5084848260020191906108e792919061137a565b50828160030190805190602001906109009291906112cf565b508181600401819055505050505050505050505050565b61091f611400565b6000808484604051610932929190612391565b90815260200160405180910390206005018686604051610953929190612391565b90815260200160405180910390206005018888604051610974929190612391565b9081526020016040518091039020905080600001805461099390612670565b80601f01602080910402602001604051908101604052809291908181526020018280546109bf90612670565b8015610a0c5780601f106109e157610100808354040283529160200191610a0c565b820191906000526020600020905b8154815290600101906020018083116109ef57829003601f168201915b50505050508260000181905250806001018054610a2890612670565b80601f0160208091040260200160405190810160405280929190818152602001828054610a5490612670565b8015610aa15780601f10610a7657610100808354040283529160200191610aa1565b820191906000526020600020905b815481529060010190602001808311610a8457829003601f168201915b50505050508260200181905250806002015482604001818152505080600301805480602002602001604051908101604052809291908181526020016000905b82821015610b8c578382906000526020600020018054610aff90612670565b80601f0160208091040260200160405190810160405280929190818152602001828054610b2b90612670565b8015610b785780601f10610b4d57610100808354040283529160200191610b78565b820191906000526020600020905b815481529060010190602001808311610b5b57829003601f168201915b505050505081526020019060010190610ae0565b505050508260600181905250509695505050505050565b6000808989604051610bb6929190612391565b908152602001604051809103902090508888826000019190610bd992919061137a565b508686826001019190610bed92919061137a565b508484826002019190610c0192919061137a565b50828160030181905550818160040181905550505050505050505050565b610c2761131c565b6000808484604051610c3a929190612391565b90815260200160405180910390206005018686604051610c5b929190612391565b90815260200160405180910390209050806000018054610c7a90612670565b80601f0160208091040260200160405190810160405280929190818152602001828054610ca690612670565b8015610cf35780601f10610cc857610100808354040283529160200191610cf3565b820191906000526020600020905b815481529060010190602001808311610cd657829003601f168201915b50505050508260000181905250806001018054610d0f90612670565b80601f0160208091040260200160405190810160405280929190818152602001828054610d3b90612670565b8015610d885780601f10610d5d57610100808354040283529160200191610d88565b820191906000526020600020905b815481529060010190602001808311610d6b57829003601f168201915b50505050508260200181905250806002018054610da490612670565b80601f0160208091040260200160405190810160405280929190818152602001828054610dd090612670565b8015610e1d5780601f10610df257610100808354040283529160200191610e1d565b820191906000526020600020905b815481529060010190602001808311610e0057829003601f168201915b5050505050826040018190525080600301805480602002602001604051908101604052809291908181526020018280548015610e7857602002820191906000526020600020905b815481526020019060010190808311610e64575b50505050508260600181905250806004015482608001818152505050949350505050565b6060815167ffffffffffffffff811115610eb957610eb86127a9565b5b604051908082528060200260200182016040528015610ef257816020015b610edf61134b565b815260200190600190039081610ed75790505b50905060005b82518110156111ad57600080848381518110610f1757610f1661277a565b5b6020026020010151604051610f2c91906123aa565b90815260200160405180910390209050806000018054610f4b90612670565b80601f0160208091040260200160405190810160405280929190818152602001828054610f7790612670565b8015610fc45780601f10610f9957610100808354040283529160200191610fc4565b820191906000526020600020905b815481529060010190602001808311610fa757829003601f168201915b5050505050838381518110610fdc57610fdb61277a565b5b602002602001015160000181905250806001018054610ffa90612670565b80601f016020809104026020016040519081016040528092919081815260200182805461102690612670565b80156110735780601f1061104857610100808354040283529160200191611073565b820191906000526020600020905b81548152906001019060200180831161105657829003601f168201915b505050505083838151811061108b5761108a61277a565b5b6020026020010151602001819052508060020180546110a990612670565b80601f01602080910402602001604051908101604052809291908181526020018280546110d590612670565b80156111225780601f106110f757610100808354040283529160200191611122565b820191906000526020600020905b81548152906001019060200180831161110557829003601f168201915b505050505083838151811061113a5761113961277a565b5b60200260200101516040018190525080600301548383815181106111615761116061277a565b5b6020026020010151606001818152505080600401548383815181106111895761118861277a565b5b602002602001015160800181815250505080806111a5906126d3565b915050610ef8565b50919050565b6000808b8b6040516111c6929190612391565b908152602001604051809103902060050189896040516111e7929190612391565b90815260200160405180910390206005018787604051611208929190612391565b90815260200160405180910390209050868682600001919061122b92919061137a565b50848482600101919061123f92919061137a565b508281600201819055508181600301908051906020019061126192919061126f565b505050505050505050505050565b8280548282559060005260206000209081019282156112be579160200282015b828111156112bd5782518290805190602001906112ad929190611428565b509160200191906001019061128f565b5b5090506112cb91906114ae565b5090565b82805482825590600052602060002090810192821561130b579160200282015b8281111561130a5782518255916020019190600101906112ef565b5b50905061131891906114d2565b5090565b6040518060a0016040528060608152602001606081526020016060815260200160608152602001600081525090565b6040518060a0016040528060608152602001606081526020016060815260200160008152602001600081525090565b82805461138690612670565b90600052602060002090601f0160209004810192826113a857600085556113ef565b82601f106113c157803560ff19168380011785556113ef565b828001600101855582156113ef579182015b828111156113ee5782358255916020019190600101906113d3565b5b5090506113fc91906114d2565b5090565b6040518060800160405280606081526020016060815260200160008152602001606081525090565b82805461143490612670565b90600052602060002090601f016020900481019282611456576000855561149d565b82601f1061146f57805160ff191683800117855561149d565b8280016001018555821561149d579182015b8281111561149c578251825591602001919060010190611481565b5b5090506114aa91906114d2565b5090565b5b808211156114ce57600081816114c591906114ef565b506001016114af565b5090565b5b808211156114eb5760008160009055506001016114d3565b5090565b5080546114fb90612670565b6000825580601f1061150d575061152c565b601f01602090049060005260206000209081019061152b91906114d2565b5b50565b600061154261153d84612490565b61246b565b90508083825260208201905082856020860282011115611565576115646127e2565b5b60005b858110156115b357813567ffffffffffffffff81111561158b5761158a6127dd565b5b8086016115988982611721565b85526020850194506020840193505050600181019050611568565b5050509392505050565b60006115d06115cb846124bc565b61246b565b905080838252602082019050828560208602820111156115f3576115f26127e2565b5b60005b858110156116235781611609888261174f565b8452602084019350602083019250506001810190506115f6565b5050509392505050565b600061164061163b846124e8565b61246b565b90508281526020810184848401111561165c5761165b6127e7565b5b61166784828561262e565b509392505050565b600082601f830112611684576116836127dd565b5b813561169484826020860161152f565b91505092915050565b600082601f8301126116b2576116b16127dd565b5b81356116c28482602086016115bd565b91505092915050565b60008083601f8401126116e1576116e06127dd565b5b8235905067ffffffffffffffff8111156116fe576116fd6127d8565b5b60208301915083600182028301111561171a576117196127e2565b5b9250929050565b600082601f830112611736576117356127dd565b5b813561174684826020860161162d565b91505092915050565b60008135905061175e81612807565b92915050565b60006020828403121561177a576117796127f1565b5b600082013567ffffffffffffffff811115611798576117976127ec565b5b6117a48482850161166f565b91505092915050565b600080602083850312156117c4576117c36127f1565b5b600083013567ffffffffffffffff8111156117e2576117e16127ec565b5b6117ee858286016116cb565b92509250509250929050565b60008060008060408587031215611814576118136127f1565b5b600085013567ffffffffffffffff811115611832576118316127ec565b5b61183e878288016116cb565b9450945050602085013567ffffffffffffffff811115611861576118606127ec565b5b61186d878288016116cb565b925092505092959194509250565b60008060008060008060608789031215611898576118976127f1565b5b600087013567ffffffffffffffff8111156118b6576118b56127ec565b5b6118c289828a016116cb565b9650965050602087013567ffffffffffffffff8111156118e5576118e46127ec565b5b6118f189828a016116cb565b9450945050604087013567ffffffffffffffff811115611914576119136127ec565b5b61192089828a016116cb565b92509250509295509295509295565b600080600080600080600080600080600060e08c8e031215611954576119536127f1565b5b60008c013567ffffffffffffffff811115611972576119716127ec565b5b61197e8e828f016116cb565b9b509b505060208c013567ffffffffffffffff8111156119a1576119a06127ec565b5b6119ad8e828f016116cb565b995099505060408c013567ffffffffffffffff8111156119d0576119cf6127ec565b5b6119dc8e828f016116cb565b975097505060608c013567ffffffffffffffff8111156119ff576119fe6127ec565b5b611a0b8e828f016116cb565b955095505060808c013567ffffffffffffffff811115611a2e57611a2d6127ec565b5b611a3a8e828f0161166f565b93505060a08c013567ffffffffffffffff811115611a5b57611a5a6127ec565b5b611a678e828f0161169d565b92505060c08c013567ffffffffffffffff811115611a8857611a876127ec565b5b611a948e828f0161166f565b9150509295989b509295989b9093969950565b60008060008060008060008060008060c08b8d031215611aca57611ac96127f1565b5b60008b013567ffffffffffffffff811115611ae857611ae76127ec565b5b611af48d828e016116cb565b9a509a505060208b013567ffffffffffffffff811115611b1757611b166127ec565b5b611b238d828e016116cb565b985098505060408b013567ffffffffffffffff811115611b4657611b456127ec565b5b611b528d828e016116cb565b965096505060608b013567ffffffffffffffff811115611b7557611b746127ec565b5b611b818d828e016116cb565b945094505060808b013567ffffffffffffffff811115611ba457611ba36127ec565b5b611bb08d828e0161169d565b92505060a0611bc18d828e0161174f565b9150509295989b9194979a5092959850565b60008060008060008060008060008060c08b8d031215611bf657611bf56127f1565b5b60008b013567ffffffffffffffff811115611c1457611c136127ec565b5b611c208d828e016116cb565b9a509a505060208b013567ffffffffffffffff811115611c4357611c426127ec565b5b611c4f8d828e016116cb565b985098505060408b013567ffffffffffffffff811115611c7257611c716127ec565b5b611c7e8d828e016116cb565b965096505060608b013567ffffffffffffffff811115611ca157611ca06127ec565b5b611cad8d828e016116cb565b94509450506080611cc08d828e0161174f565b92505060a08b013567ffffffffffffffff811115611ce157611ce06127ec565b5b611ced8d828e0161166f565b9150509295989b9194979a5092959850565b60008060008060008060008060a0898b031215611d1f57611d1e6127f1565b5b600089013567ffffffffffffffff811115611d3d57611d3c6127ec565b5b611d498b828c016116cb565b9850985050602089013567ffffffffffffffff811115611d6c57611d6b6127ec565b5b611d788b828c016116cb565b9650965050604089013567ffffffffffffffff811115611d9b57611d9a6127ec565b5b611da78b828c016116cb565b94509450506060611dba8b828c0161174f565b9250506080611dcb8b828c0161174f565b9150509295985092959890939650565b60008060408385031215611df257611df16127f1565b5b600083013567ffffffffffffffff811115611e1057611e0f6127ec565b5b611e1c85828601611721565b925050602083013567ffffffffffffffff811115611e3d57611e3c6127ec565b5b611e498582860161166f565b9150509250929050565b6000611e5f8383612089565b905092915050565b6000611e7383836120f3565b905092915050565b6000611e87838361226c565b905092915050565b6000611e9b8383612382565b60208301905092915050565b6000611eb282612559565b611ebc81856125c4565b935083602082028501611ece85612519565b8060005b85811015611f0a5784840389528151611eeb8582611e53565b9450611ef683612590565b925060208a01995050600181019050611ed2565b50829750879550505050505092915050565b6000611f2782612564565b611f3181856125d5565b935083602082028501611f4385612529565b8060005b85811015611f7f5784840389528151611f608582611e67565b9450611f6b8361259d565b925060208a01995050600181019050611f47565b50829750879550505050505092915050565b6000611f9c8261256f565b611fa681856125e6565b935083602082028501611fb885612539565b8060005b85811015611ff45784840389528151611fd58582611e7b565b9450611fe0836125aa565b925060208a01995050600181019050611fbc565b50829750879550505050505092915050565b60006120118261257a565b61201b81856125f7565b935061202683612549565b8060005b8381101561205757815161203e8882611e8f565b9750612049836125b7565b92505060018101905061202a565b5085935050505092915050565b60006120708385612619565b935061207d83858461262e565b82840190509392505050565b600061209482612585565b61209e8185612608565b93506120ae81856020860161263d565b6120b7816127f6565b840191505092915050565b60006120cd82612585565b6120d78185612619565b93506120e781856020860161263d565b80840191505092915050565b600060a08301600083015184820360008601526121108282612089565b9150506020830151848203602086015261212a8282612089565b915050604083015184820360408601526121448282612089565b91505060608301516121596060860182612382565b50608083015161216c6080860182612382565b508091505092915050565b600060a08301600083015184820360008601526121948282612089565b915050602083015184820360208601526121ae8282612089565b915050604083015184820360408601526121c88282612089565b91505060608301516121dd6060860182612382565b5060808301516121f06080860182612382565b508091505092915050565b600060808301600083015184820360008601526122188282612089565b915050602083015184820360208601526122328282612089565b91505060408301516122476040860182612382565b506060830151848203606086015261225f8282611ea7565b9150508091505092915050565b600060a08301600083015184820360008601526122898282612089565b915050602083015184820360208601526122a38282612089565b915050604083015184820360408601526122bd8282612089565b915050606083015184820360608601526122d78282612006565b91505060808301516122ec6080860182612382565b508091505092915050565b600060a08301600083015184820360008601526123148282612089565b9150506020830151848203602086015261232e8282612089565b915050604083015184820360408601526123488282612089565b915050606083015184820360608601526123628282612006565b91505060808301516123776080860182612382565b508091505092915050565b61238b81612624565b82525050565b600061239e828486612064565b91508190509392505050565b60006123b682846120c2565b915081905092915050565b600060208201905081810360008301526123db8184611f1c565b905092915050565b600060208201905081810360008301526123fd8184611f91565b905092915050565b6000602082019050818103600083015261241f8184612177565b905092915050565b6000602082019050818103600083015261244181846121fb565b905092915050565b6000602082019050818103600083015261246381846122f7565b905092915050565b6000612475612486565b905061248182826126a2565b919050565b6000604051905090565b600067ffffffffffffffff8211156124ab576124aa6127a9565b5b602082029050602081019050919050565b600067ffffffffffffffff8211156124d7576124d66127a9565b5b602082029050602081019050919050565b600067ffffffffffffffff821115612503576125026127a9565b5b61250c826127f6565b9050602081019050919050565b6000819050602082019050919050565b6000819050602082019050919050565b6000819050602082019050919050565b6000819050602082019050919050565b600081519050919050565b600081519050919050565b600081519050919050565b600081519050919050565b600081519050919050565b6000602082019050919050565b6000602082019050919050565b6000602082019050919050565b6000602082019050919050565b600082825260208201905092915050565b600082825260208201905092915050565b600082825260208201905092915050565b600082825260208201905092915050565b600082825260208201905092915050565b600081905092915050565b6000819050919050565b82818337600083830152505050565b60005b8381101561265b578082015181840152602081019050612640565b8381111561266a576000848401525b50505050565b6000600282049050600182168061268857607f821691505b6020821081141561269c5761269b61274b565b5b50919050565b6126ab826127f6565b810181811067ffffffffffffffff821117156126ca576126c96127a9565b5b80604052505050565b60006126de82612624565b91507fffffffffffffffffffffffffffffffffffffffffffffffffffffffffffffffff8214156127115761271061271c565b5b600182019050919050565b7f4e487b7100000000000000000000000000000000000000000000000000000000600052601160045260246000fd5b7f4e487b7100000000000000000000000000000000000000000000000000000000600052602260045260246000fd5b7f4e487b7100000000000000000000000000000000000000000000000000000000600052603260045260246000fd5b7f4e487b7100000000000000000000000000000000000000000000000000000000600052604160045260246000fd5b600080fd5b600080fd5b600080fd5b600080fd5b600080fd5b600080fd5b6000601f19601f8301169050919050565b61281081612624565b811461281b57600080fd5b5056fea2646970667358221220629088ca1d7800cd8841412c7eedd43912ea5015e13cc73447dde938ad8e011164736f6c63430008060033",
			"opcodes": "PUSH1 0x80 PUSH1 0x40 MSTORE CALLVALUE DUP1 ISZERO PUSH2 0x10 JUMPI PUSH1 0x0 DUP1 REVERT JUMPDEST POP PUSH2 0x2854 DUP1 PUSH2 0x20 PUSH1 0x0 CODECOPY PUSH1 0x0 RETURN INVALID PUSH1 0x80 PUSH1 0x40 MSTORE CALLVALUE DUP1 ISZERO PUSH2 0x10 JUMPI PUSH1 0x0 DUP1 REVERT JUMPDEST POP PUSH1 0x4 CALLDATASIZE LT PUSH2 0x93 JUMPI PUSH1 0x0 CALLDATALOAD PUSH1 0xE0 SHR DUP1 PUSH4 0x7D31F1EE GT PUSH2 0x66 JUMPI DUP1 PUSH4 0x7D31F1EE EQ PUSH2 0x130 JUMPI DUP1 PUSH4 0xAE1F81E4 EQ PUSH2 0x160 JUMPI DUP1 PUSH4 0xB3FDE2B1 EQ PUSH2 0x17C JUMPI DUP1 PUSH4 0xD0E067EA EQ PUSH2 0x1AC JUMPI DUP1 PUSH4 0xE027EB51 EQ PUSH2 0x1DC JUMPI PUSH2 0x93 JUMP JUMPDEST DUP1 PUSH4 0xE411DC2 EQ PUSH2 0x98 JUMPI DUP1 PUSH4 0x105E24EC EQ PUSH2 0xB4 JUMPI DUP1 PUSH4 0x30705565 EQ PUSH2 0xE4 JUMPI DUP1 PUSH4 0x40D48950 EQ PUSH2 0x114 JUMPI JUMPDEST PUSH1 0x0 DUP1 REVERT JUMPDEST PUSH2 0xB2 PUSH1 0x4 DUP1 CALLDATASIZE SUB DUP2 ADD SWAP1 PUSH2 0xAD SWAP2 SWAP1 PUSH2 0x192F JUMP JUMPDEST PUSH2 0x1F8 JUMP JUMPDEST STOP JUMPDEST PUSH2 0xCE PUSH1 0x4 DUP1 CALLDATASIZE SUB DUP2 ADD SWAP1 PUSH2 0xC9 SWAP2 SWAP1 PUSH2 0x1DDB JUMP JUMPDEST PUSH2 0x2D7 JUMP JUMPDEST PUSH1 0x40 MLOAD PUSH2 0xDB SWAP2 SWAP1 PUSH2 0x23E3 JUMP JUMPDEST PUSH1 0x40 MLOAD DUP1 SWAP2 SUB SWAP1 RETURN JUMPDEST PUSH2 0xFE PUSH1 0x4 DUP1 CALLDATASIZE SUB DUP2 ADD SWAP1 PUSH2 0xF9 SWAP2 SWAP1 PUSH2 0x17AD JUMP JUMPDEST PUSH2 0x65B JUMP JUMPDEST PUSH1 0x40 MLOAD PUSH2 0x10B SWAP2 SWAP1 PUSH2 0x2405 JUMP JUMPDEST PUSH1 0x40 MLOAD DUP1 SWAP2 SUB SWAP1 RETURN JUMPDEST PUSH2 0x12E PUSH1 0x4 DUP1 CALLDATASIZE SUB DUP2 ADD SWAP1 PUSH2 0x129 SWAP2 SWAP1 PUSH2 0x1AA7 JUMP JUMPDEST PUSH2 0x868 JUMP JUMPDEST STOP JUMPDEST PUSH2 0x14A PUSH1 0x4 DUP1 CALLDATASIZE SUB DUP2 ADD SWAP1 PUSH2 0x145 SWAP2 SWAP1 PUSH2 0x187B JUMP JUMPDEST PUSH2 0x917 JUMP JUMPDEST PUSH1 0x40 MLOAD PUSH2 0x157 SWAP2 SWAP1 PUSH2 0x2427 JUMP JUMPDEST PUSH1 0x40 MLOAD DUP1 SWAP2 SUB SWAP1 RETURN JUMPDEST PUSH2 0x17A PUSH1 0x4 DUP1 CALLDATASIZE SUB DUP2 ADD SWAP1 PUSH2 0x175 SWAP2 SWAP1 PUSH2 0x1CFF JUMP JUMPDEST PUSH2 0xBA3 JUMP JUMPDEST STOP JUMPDEST PUSH2 0x196 PUSH1 0x4 DUP1 CALLDATASIZE SUB DUP2 ADD SWAP1 PUSH2 0x191 SWAP2 SWAP1 PUSH2 0x17FA JUMP JUMPDEST PUSH2 0xC1F JUMP JUMPDEST PUSH1 0x40 MLOAD PUSH2 0x1A3 SWAP2 SWAP1 PUSH2 0x2449 JUMP JUMPDEST PUSH1 0x40 MLOAD DUP1 SWAP2 SUB SWAP1 RETURN JUMPDEST PUSH2 0x1C6 PUSH1 0x4 DUP1 CALLDATASIZE SUB DUP2 ADD SWAP1 PUSH2 0x1C1 SWAP2 SWAP1 PUSH2 0x1764 JUMP JUMPDEST PUSH2 0xE9C JUMP JUMPDEST PUSH1 0x40 MLOAD PUSH2 0x1D3 SWAP2 SWAP1 PUSH2 0x23C1 JUMP JUMPDEST PUSH1 0x40 MLOAD DUP1 SWAP2 SUB SWAP1 RETURN JUMPDEST PUSH2 0x1F6 PUSH1 0x4 DUP1 CALLDATASIZE SUB DUP2 ADD SWAP1 PUSH2 0x1F1 SWAP2 SWAP1 PUSH2 0x1BD3 JUMP JUMPDEST PUSH2 0x11B3 JUMP JUMPDEST STOP JUMPDEST PUSH1 0x0 DUP1 DUP13 DUP13 PUSH1 0x40 MLOAD PUSH2 0x20B SWAP3 SWAP2 SWAP1 PUSH2 0x2391 JUMP JUMPDEST SWAP1 DUP2 MSTORE PUSH1 0x20 ADD PUSH1 0x40 MLOAD DUP1 SWAP2 SUB SWAP1 KECCAK256 PUSH1 0x5 ADD DUP11 DUP11 PUSH1 0x40 MLOAD PUSH2 0x22C SWAP3 SWAP2 SWAP1 PUSH2 0x2391 JUMP JUMPDEST SWAP1 DUP2 MSTORE PUSH1 0x20 ADD PUSH1 0x40 MLOAD DUP1 SWAP2 SUB SWAP1 KECCAK256 PUSH1 0x5 ADD DUP9 DUP9 PUSH1 0x40 MLOAD PUSH2 0x24D SWAP3 SWAP2 SWAP1 PUSH2 0x2391 JUMP JUMPDEST SWAP1 DUP2 MSTORE PUSH1 0x20 ADD PUSH1 0x40 MLOAD DUP1 SWAP2 SUB SWAP1 KECCAK256 PUSH1 0x4 ADD DUP7 DUP7 PUSH1 0x40 MLOAD PUSH2 0x26E SWAP3 SWAP2 SWAP1 PUSH2 0x2391 JUMP JUMPDEST SWAP1 DUP2 MSTORE PUSH1 0x20 ADD PUSH1 0x40 MLOAD DUP1 SWAP2 SUB SWAP1 KECCAK256 SWAP1 POP DUP4 DUP2 PUSH1 0x0 ADD SWAP1 DUP1 MLOAD SWAP1 PUSH1 0x20 ADD SWAP1 PUSH2 0x296 SWAP3 SWAP2 SWAP1 PUSH2 0x126F JUMP JUMPDEST POP DUP3 DUP2 PUSH1 0x1 ADD SWAP1 DUP1 MLOAD SWAP1 PUSH1 0x20 ADD SWAP1 PUSH2 0x2AF SWAP3 SWAP2 SWAP1 PUSH2 0x12CF JUMP JUMPDEST POP DUP2 DUP2 PUSH1 0x2 ADD SWAP1 DUP1 MLOAD SWAP1 PUSH1 0x20 ADD SWAP1 PUSH2 0x2C8 SWAP3 SWAP2 SWAP1 PUSH2 0x126F JUMP JUMPDEST POP POP POP POP POP POP POP POP POP POP POP POP POP JUMP JUMPDEST PUSH1 0x60 DUP2 MLOAD PUSH8 0xFFFFFFFFFFFFFFFF DUP2 GT ISZERO PUSH2 0x2F4 JUMPI PUSH2 0x2F3 PUSH2 0x27A9 JUMP JUMPDEST JUMPDEST PUSH1 0x40 MLOAD SWAP1 DUP1 DUP3 MSTORE DUP1 PUSH1 0x20 MUL PUSH1 0x20 ADD DUP3 ADD PUSH1 0x40 MSTORE DUP1 ISZERO PUSH2 0x32D JUMPI DUP2 PUSH1 0x20 ADD JUMPDEST PUSH2 0x31A PUSH2 0x131C JUMP JUMPDEST DUP2 MSTORE PUSH1 0x20 ADD SWAP1 PUSH1 0x1 SWAP1 SUB SWAP1 DUP2 PUSH2 0x312 JUMPI SWAP1 POP JUMPDEST POP SWAP1 POP PUSH1 0x0 JUMPDEST DUP3 MLOAD DUP2 LT ISZERO PUSH2 0x654 JUMPI PUSH1 0x0 DUP1 DUP6 PUSH1 0x40 MLOAD PUSH2 0x34D SWAP2 SWAP1 PUSH2 0x23AA JUMP JUMPDEST SWAP1 DUP2 MSTORE PUSH1 0x20 ADD PUSH1 0x40 MLOAD DUP1 SWAP2 SUB SWAP1 KECCAK256 PUSH1 0x5 ADD DUP5 DUP4 DUP2 MLOAD DUP2 LT PUSH2 0x371 JUMPI PUSH2 0x370 PUSH2 0x277A JUMP JUMPDEST JUMPDEST PUSH1 0x20 MUL PUSH1 0x20 ADD ADD MLOAD PUSH1 0x40 MLOAD PUSH2 0x386 SWAP2 SWAP1 PUSH2 0x23AA JUMP JUMPDEST SWAP1 DUP2 MSTORE PUSH1 0x20 ADD PUSH1 0x40 MLOAD DUP1 SWAP2 SUB SWAP1 KECCAK256 SWAP1 POP DUP1 PUSH1 0x0 ADD DUP1 SLOAD PUSH2 0x3A5 SWAP1 PUSH2 0x2670 JUMP JUMPDEST DUP1 PUSH1 0x1F ADD PUSH1 0x20 DUP1 SWAP2 DIV MUL PUSH1 0x20 ADD PUSH1 0x40 MLOAD SWAP1 DUP2 ADD PUSH1 0x40 MSTORE DUP1 SWAP3 SWAP2 SWAP1 DUP2 DUP2 MSTORE PUSH1 0x20 ADD DUP3 DUP1 SLOAD PUSH2 0x3D1 SWAP1 PUSH2 0x2670 JUMP JUMPDEST DUP1 ISZERO PUSH2 0x41E JUMPI DUP1 PUSH1 0x1F LT PUSH2 0x3F3 JUMPI PUSH2 0x100 DUP1 DUP4 SLOAD DIV MUL DUP4 MSTORE SWAP2 PUSH1 0x20 ADD SWAP2 PUSH2 0x41E JUMP JUMPDEST DUP3 ADD SWAP2 SWAP1 PUSH1 0x0 MSTORE PUSH1 0x20 PUSH1 0x0 KECCAK256 SWAP1 JUMPDEST DUP2 SLOAD DUP2 MSTORE SWAP1 PUSH1 0x1 ADD SWAP1 PUSH1 0x20 ADD DUP1 DUP4 GT PUSH2 0x401 JUMPI DUP3 SWAP1 SUB PUSH1 0x1F AND DUP3 ADD SWAP2 JUMPDEST POP POP POP POP POP DUP4 DUP4 DUP2 MLOAD DUP2 LT PUSH2 0x436 JUMPI PUSH2 0x435 PUSH2 0x277A JUMP JUMPDEST JUMPDEST PUSH1 0x20 MUL PUSH1 0x20 ADD ADD MLOAD PUSH1 0x0 ADD DUP2 SWAP1 MSTORE POP DUP1 PUSH1 0x1 ADD DUP1 SLOAD PUSH2 0x454 SWAP1 PUSH2 0x2670 JUMP JUMPDEST DUP1 PUSH1 0x1F ADD PUSH1 0x20 DUP1 SWAP2 DIV MUL PUSH1 0x20 ADD PUSH1 0x40 MLOAD SWAP1 DUP2 ADD PUSH1 0x40 MSTORE DUP1 SWAP3 SWAP2 SWAP1 DUP2 DUP2 MSTORE PUSH1 0x20 ADD DUP3 DUP1 SLOAD PUSH2 0x480 SWAP1 PUSH2 0x2670 JUMP JUMPDEST DUP1 ISZERO PUSH2 0x4CD JUMPI DUP1 PUSH1 0x1F LT PUSH2 0x4A2 JUMPI PUSH2 0x100 DUP1 DUP4 SLOAD DIV MUL DUP4 MSTORE SWAP2 PUSH1 0x20 ADD SWAP2 PUSH2 0x4CD JUMP JUMPDEST DUP3 ADD SWAP2 SWAP1 PUSH1 0x0 MSTORE PUSH1 0x20 PUSH1 0x0 KECCAK256 SWAP1 JUMPDEST DUP2 SLOAD DUP2 MSTORE SWAP1 PUSH1 0x1 ADD SWAP1 PUSH1 0x20 ADD DUP1 DUP4 GT PUSH2 0x4B0 JUMPI DUP3 SWAP1 SUB PUSH1 0x1F AND DUP3 ADD SWAP2 JUMPDEST POP POP POP POP POP DUP4 DUP4 DUP2 MLOAD DUP2 LT PUSH2 0x4E5 JUMPI PUSH2 0x4E4 PUSH2 0x277A JUMP JUMPDEST JUMPDEST PUSH1 0x20 MUL PUSH1 0x20 ADD ADD MLOAD PUSH1 0x20 ADD DUP2 SWAP1 MSTORE POP DUP1 PUSH1 0x2 ADD DUP1 SLOAD PUSH2 0x503 SWAP1 PUSH2 0x2670 JUMP JUMPDEST DUP1 PUSH1 0x1F ADD PUSH1 0x20 DUP1 SWAP2 DIV MUL PUSH1 0x20 ADD PUSH1 0x40 MLOAD SWAP1 DUP2 ADD PUSH1 0x40 MSTORE DUP1 SWAP3 SWAP2 SWAP1 DUP2 DUP2 MSTORE PUSH1 0x20 ADD DUP3 DUP1 SLOAD PUSH2 0x52F SWAP1 PUSH2 0x2670 JUMP JUMPDEST DUP1 ISZERO PUSH2 0x57C JUMPI DUP1 PUSH1 0x1F LT PUSH2 0x551 JUMPI PUSH2 0x100 DUP1 DUP4 SLOAD DIV MUL DUP4 MSTORE SWAP2 PUSH1 0x20 ADD SWAP2 PUSH2 0x57C JUMP JUMPDEST DUP3 ADD SWAP2 SWAP1 PUSH1 0x0 MSTORE PUSH1 0x20 PUSH1 0x0 KECCAK256 SWAP1 JUMPDEST DUP2 SLOAD DUP2 MSTORE SWAP1 PUSH1 0x1 ADD SWAP1 PUSH1 0x20 ADD DUP1 DUP4 GT PUSH2 0x55F JUMPI DUP3 SWAP1 SUB PUSH1 0x1F AND DUP3 ADD SWAP2 JUMPDEST POP POP POP POP POP DUP4 DUP4 DUP2 MLOAD DUP2 LT PUSH2 0x594 JUMPI PUSH2 0x593 PUSH2 0x277A JUMP JUMPDEST JUMPDEST PUSH1 0x20 MUL PUSH1 0x20 ADD ADD MLOAD PUSH1 0x40 ADD DUP2 SWAP1 MSTORE POP DUP1 PUSH1 0x3 ADD DUP1 SLOAD DUP1 PUSH1 0x20 MUL PUSH1 0x20 ADD PUSH1 0x40 MLOAD SWAP1 DUP2 ADD PUSH1 0x40 MSTORE DUP1 SWAP3 SWAP2 SWAP1 DUP2 DUP2 MSTORE PUSH1 0x20 ADD DUP3 DUP1 SLOAD DUP1 ISZERO PUSH2 0x5F1 JUMPI PUSH1 0x20 MUL DUP3 ADD SWAP2 SWAP1 PUSH1 0x0 MSTORE PUSH1 0x20 PUSH1 0x0 KECCAK256 SWAP1 JUMPDEST DUP2 SLOAD DUP2 MSTORE PUSH1 0x20 ADD SWAP1 PUSH1 0x1 ADD SWAP1 DUP1 DUP4 GT PUSH2 0x5DD JUMPI JUMPDEST POP POP POP POP POP DUP4 DUP4 DUP2 MLOAD DUP2 LT PUSH2 0x609 JUMPI PUSH2 0x608 PUSH2 0x277A JUMP JUMPDEST JUMPDEST PUSH1 0x20 MUL PUSH1 0x20 ADD ADD MLOAD PUSH1 0x60 ADD DUP2 SWAP1 MSTORE POP DUP1 PUSH1 0x4 ADD SLOAD DUP4 DUP4 DUP2 MLOAD DUP2 LT PUSH2 0x630 JUMPI PUSH2 0x62F PUSH2 0x277A JUMP JUMPDEST JUMPDEST PUSH1 0x20 MUL PUSH1 0x20 ADD ADD MLOAD PUSH1 0x80 ADD DUP2 DUP2 MSTORE POP POP POP DUP1 DUP1 PUSH2 0x64C SWAP1 PUSH2 0x26D3 JUMP JUMPDEST SWAP2 POP POP PUSH2 0x333 JUMP JUMPDEST POP SWAP3 SWAP2 POP POP JUMP JUMPDEST PUSH2 0x663 PUSH2 0x134B JUMP JUMPDEST PUSH1 0x0 DUP1 DUP5 DUP5 PUSH1 0x40 MLOAD PUSH2 0x676 SWAP3 SWAP2 SWAP1 PUSH2 0x2391 JUMP JUMPDEST SWAP1 DUP2 MSTORE PUSH1 0x20 ADD PUSH1 0x40 MLOAD DUP1 SWAP2 SUB SWAP1 KECCAK256 SWAP1 POP DUP1 PUSH1 0x0 ADD DUP1 SLOAD PUSH2 0x695 SWAP1 PUSH2 0x2670 JUMP JUMPDEST DUP1 PUSH1 0x1F ADD PUSH1 0x20 DUP1 SWAP2 DIV MUL PUSH1 0x20 ADD PUSH1 0x40 MLOAD SWAP1 DUP2 ADD PUSH1 0x40 MSTORE DUP1 SWAP3 SWAP2 SWAP1 DUP2 DUP2 MSTORE PUSH1 0x20 ADD DUP3 DUP1 SLOAD PUSH2 0x6C1 SWAP1 PUSH2 0x2670 JUMP JUMPDEST DUP1 ISZERO PUSH2 0x70E JUMPI DUP1 PUSH1 0x1F LT PUSH2 0x6E3 JUMPI PUSH2 0x100 DUP1 DUP4 SLOAD DIV MUL DUP4 MSTORE SWAP2 PUSH1 0x20 ADD SWAP2 PUSH2 0x70E JUMP JUMPDEST DUP3 ADD SWAP2 SWAP1 PUSH1 0x0 MSTORE PUSH1 0x20 PUSH1 0x0 KECCAK256 SWAP1 JUMPDEST DUP2 SLOAD DUP2 MSTORE SWAP1 PUSH1 0x1 ADD SWAP1 PUSH1 0x20 ADD DUP1 DUP4 GT PUSH2 0x6F1 JUMPI DUP3 SWAP1 SUB PUSH1 0x1F AND DUP3 ADD SWAP2 JUMPDEST POP POP POP POP POP DUP3 PUSH1 0x0 ADD DUP2 SWAP1 MSTORE POP DUP1 PUSH1 0x1 ADD DUP1 SLOAD PUSH2 0x72A SWAP1 PUSH2 0x2670 JUMP JUMPDEST DUP1 PUSH1 0x1F ADD PUSH1 0x20 DUP1 SWAP2 DIV MUL PUSH1 0x20 ADD PUSH1 0x40 MLOAD SWAP1 DUP2 ADD PUSH1 0x40 MSTORE DUP1 SWAP3 SWAP2 SWAP1 DUP2 DUP2 MSTORE PUSH1 0x20 ADD DUP3 DUP1 SLOAD PUSH2 0x756 SWAP1 PUSH2 0x2670 JUMP JUMPDEST DUP1 ISZERO PUSH2 0x7A3 JUMPI DUP1 PUSH1 0x1F LT PUSH2 0x778 JUMPI PUSH2 0x100 DUP1 DUP4 SLOAD DIV MUL DUP4 MSTORE SWAP2 PUSH1 0x20 ADD SWAP2 PUSH2 0x7A3 JUMP JUMPDEST DUP3 ADD SWAP2 SWAP1 PUSH1 0x0 MSTORE PUSH1 0x20 PUSH1 0x0 KECCAK256 SWAP1 JUMPDEST DUP2 SLOAD DUP2 MSTORE SWAP1 PUSH1 0x1 ADD SWAP1 PUSH1 0x20 ADD DUP1 DUP4 GT PUSH2 0x786 JUMPI DUP3 SWAP1 SUB PUSH1 0x1F AND DUP3 ADD SWAP2 JUMPDEST POP POP POP POP POP DUP3 PUSH1 0x20 ADD DUP2 SWAP1 MSTORE POP DUP1 PUSH1 0x2 ADD DUP1 SLOAD PUSH2 0x7BF SWAP1 PUSH2 0x2670 JUMP JUMPDEST DUP1 PUSH1 0x1F ADD PUSH1 0x20 DUP1 SWAP2 DIV MUL PUSH1 0x20 ADD PUSH1 0x40 MLOAD SWAP1 DUP2 ADD PUSH1 0x40 MSTORE DUP1 SWAP3 SWAP2 SWAP1 DUP2 DUP2 MSTORE PUSH1 0x20 ADD DUP3 DUP1 SLOAD PUSH2 0x7EB SWAP1 PUSH2 0x2670 JUMP JUMPDEST DUP1 ISZERO PUSH2 0x838 JUMPI DUP1 PUSH1 0x1F LT PUSH2 0x80D JUMPI PUSH2 0x100 DUP1 DUP4 SLOAD DIV MUL DUP4 MSTORE SWAP2 PUSH1 0x20 ADD SWAP2 PUSH2 0x838 JUMP JUMPDEST DUP3 ADD SWAP2 SWAP1 PUSH1 0x0 MSTORE PUSH1 0x20 PUSH1 0x0 KECCAK256 SWAP1 JUMPDEST DUP2 SLOAD DUP2 MSTORE SWAP1 PUSH1 0x1 ADD SWAP1 PUSH1 0x20 ADD DUP1 DUP4 GT PUSH2 0x81B JUMPI DUP3 SWAP1 SUB PUSH1 0x1F AND DUP3 ADD SWAP2 JUMPDEST POP POP POP POP POP DUP3 PUSH1 0x40 ADD DUP2 SWAP1 MSTORE POP DUP1 PUSH1 0x3 ADD SLOAD DUP3 PUSH1 0x60 ADD DUP2 DUP2 MSTORE POP POP DUP1 PUSH1 0x4 ADD SLOAD DUP3 PUSH1 0x80 ADD DUP2 DUP2 MSTORE POP POP POP SWAP3 SWAP2 POP POP JUMP JUMPDEST PUSH1 0x0 DUP1 DUP10 DUP10 PUSH1 0x40 MLOAD PUSH2 0x87B SWAP3 SWAP2 SWAP1 PUSH2 0x2391 JUMP JUMPDEST SWAP1 DUP2 MSTORE PUSH1 0x20 ADD PUSH1 0x40 MLOAD DUP1 SWAP2 SUB SWAP1 KECCAK256 PUSH1 0x5 ADD DUP12 DUP12 PUSH1 0x40 MLOAD PUSH2 0x89C SWAP3 SWAP2 SWAP1 PUSH2 0x2391 JUMP JUMPDEST SWAP1 DUP2 MSTORE PUSH1 0x20 ADD PUSH1 0x40 MLOAD DUP1 SWAP2 SUB SWAP1 KECCAK256 SWAP1 POP DUP11 DUP11 DUP3 PUSH1 0x0 ADD SWAP2 SWAP1 PUSH2 0x8BF SWAP3 SWAP2 SWAP1 PUSH2 0x137A JUMP JUMPDEST POP DUP7 DUP7 DUP3 PUSH1 0x1 ADD SWAP2 SWAP1 PUSH2 0x8D3 SWAP3 SWAP2 SWAP1 PUSH2 0x137A JUMP JUMPDEST POP DUP5 DUP5 DUP3 PUSH1 0x2 ADD SWAP2 SWAP1 PUSH2 0x8E7 SWAP3 SWAP2 SWAP1 PUSH2 0x137A JUMP JUMPDEST POP DUP3 DUP2 PUSH1 0x3 ADD SWAP1 DUP1 MLOAD SWAP1 PUSH1 0x20 ADD SWAP1 PUSH2 0x900 SWAP3 SWAP2 SWAP1 PUSH2 0x12CF JUMP JUMPDEST POP DUP2 DUP2 PUSH1 0x4 ADD DUP2 SWAP1 SSTORE POP POP POP POP POP POP POP POP POP POP POP POP JUMP JUMPDEST PUSH2 0x91F PUSH2 0x1400 JUMP JUMPDEST PUSH1 0x0 DUP1 DUP5 DUP5 PUSH1 0x40 MLOAD PUSH2 0x932 SWAP3 SWAP2 SWAP1 PUSH2 0x2391 JUMP JUMPDEST SWAP1 DUP2 MSTORE PUSH1 0x20 ADD PUSH1 0x40 MLOAD DUP1 SWAP2 SUB SWAP1 KECCAK256 PUSH1 0x5 ADD DUP7 DUP7 PUSH1 0x40 MLOAD PUSH2 0x953 SWAP3 SWAP2 SWAP1 PUSH2 0x2391 JUMP JUMPDEST SWAP1 DUP2 MSTORE PUSH1 0x20 ADD PUSH1 0x40 MLOAD DUP1 SWAP2 SUB SWAP1 KECCAK256 PUSH1 0x5 ADD DUP9 DUP9 PUSH1 0x40 MLOAD PUSH2 0x974 SWAP3 SWAP2 SWAP1 PUSH2 0x2391 JUMP JUMPDEST SWAP1 DUP2 MSTORE PUSH1 0x20 ADD PUSH1 0x40 MLOAD DUP1 SWAP2 SUB SWAP1 KECCAK256 SWAP1 POP DUP1 PUSH1 0x0 ADD DUP1 SLOAD PUSH2 0x993 SWAP1 PUSH2 0x2670 JUMP JUMPDEST DUP1 PUSH1 0x1F ADD PUSH1 0x20 DUP1 SWAP2 DIV MUL PUSH1 0x20 ADD PUSH1 0x40 MLOAD SWAP1 DUP2 ADD PUSH1 0x40 MSTORE DUP1 SWAP3 SWAP2 SWAP1 DUP2 DUP2 MSTORE PUSH1 0x20 ADD DUP3 DUP1 SLOAD PUSH2 0x9BF SWAP1 PUSH2 0x2670 JUMP JUMPDEST DUP1 ISZERO PUSH2 0xA0C JUMPI DUP1 PUSH1 0x1F LT PUSH2 0x9E1 JUMPI PUSH2 0x100 DUP1 DUP4 SLOAD DIV MUL DUP4 MSTORE SWAP2 PUSH1 0x20 ADD SWAP2 PUSH2 0xA0C JUMP JUMPDEST DUP3 ADD SWAP2 SWAP1 PUSH1 0x0 MSTORE PUSH1 0x20 PUSH1 0x0 KECCAK256 SWAP1 JUMPDEST DUP2 SLOAD DUP2 MSTORE SWAP1 PUSH1 0x1 ADD SWAP1 PUSH1 0x20 ADD DUP1 DUP4 GT PUSH2 0x9EF JUMPI DUP3 SWAP1 SUB PUSH1 0x1F AND DUP3 ADD SWAP2 JUMPDEST POP POP POP POP POP DUP3 PUSH1 0x0 ADD DUP2 SWAP1 MSTORE POP DUP1 PUSH1 0x1 ADD DUP1 SLOAD PUSH2 0xA28 SWAP1 PUSH2 0x2670 JUMP JUMPDEST DUP1 PUSH1 0x1F ADD PUSH1 0x20 DUP1 SWAP2 DIV MUL PUSH1 0x20 ADD PUSH1 0x40 MLOAD SWAP1 DUP2 ADD PUSH1 0x40 MSTORE DUP1 SWAP3 SWAP2 SWAP1 DUP2 DUP2 MSTORE PUSH1 0x20 ADD DUP3 DUP1 SLOAD PUSH2 0xA54 SWAP1 PUSH2 0x2670 JUMP JUMPDEST DUP1 ISZERO PUSH2 0xAA1 JUMPI DUP1 PUSH1 0x1F LT PUSH2 0xA76 JUMPI PUSH2 0x100 DUP1 DUP4 SLOAD DIV MUL DUP4 MSTORE SWAP2 PUSH1 0x20 ADD SWAP2 PUSH2 0xAA1 JUMP JUMPDEST DUP3 ADD SWAP2 SWAP1 PUSH1 0x0 MSTORE PUSH1 0x20 PUSH1 0x0 KECCAK256 SWAP1 JUMPDEST DUP2 SLOAD DUP2 MSTORE SWAP1 PUSH1 0x1 ADD SWAP1 PUSH1 0x20 ADD DUP1 DUP4 GT PUSH2 0xA84 JUMPI DUP3 SWAP1 SUB PUSH1 0x1F AND DUP3 ADD SWAP2 JUMPDEST POP POP POP POP POP DUP3 PUSH1 0x20 ADD DUP2 SWAP1 MSTORE POP DUP1 PUSH1 0x2 ADD SLOAD DUP3 PUSH1 0x40 ADD DUP2 DUP2 MSTORE POP POP DUP1 PUSH1 0x3 ADD DUP1 SLOAD DUP1 PUSH1 0x20 MUL PUSH1 0x20 ADD PUSH1 0x40 MLOAD SWAP1 DUP2 ADD PUSH1 0x40 MSTORE DUP1 SWAP3 SWAP2 SWAP1 DUP2 DUP2 MSTORE PUSH1 0x20 ADD PUSH1 0x0 SWAP1 JUMPDEST DUP3 DUP3 LT ISZERO PUSH2 0xB8C JUMPI DUP4 DUP3 SWAP1 PUSH1 0x0 MSTORE PUSH1 0x20 PUSH1 0x0 KECCAK256 ADD DUP1 SLOAD PUSH2 0xAFF SWAP1 PUSH2 0x2670 JUMP JUMPDEST DUP1 PUSH1 0x1F ADD PUSH1 0x20 DUP1 SWAP2 DIV MUL PUSH1 0x20 ADD PUSH1 0x40 MLOAD SWAP1 DUP2 ADD PUSH1 0x40 MSTORE DUP1 SWAP3 SWAP2 SWAP1 DUP2 DUP2 MSTORE PUSH1 0x20 ADD DUP3 DUP1 SLOAD PUSH2 0xB2B SWAP1 PUSH2 0x2670 JUMP JUMPDEST DUP1 ISZERO PUSH2 0xB78 JUMPI DUP1 PUSH1 0x1F LT PUSH2 0xB4D JUMPI PUSH2 0x100 DUP1 DUP4 SLOAD DIV MUL DUP4 MSTORE SWAP2 PUSH1 0x20 ADD SWAP2 PUSH2 0xB78 JUMP JUMPDEST DUP3 ADD SWAP2 SWAP1 PUSH1 0x0 MSTORE PUSH1 0x20 PUSH1 0x0 KECCAK256 SWAP1 JUMPDEST DUP2 SLOAD DUP2 MSTORE SWAP1 PUSH1 0x1 ADD SWAP1 PUSH1 0x20 ADD DUP1 DUP4 GT PUSH2 0xB5B JUMPI DUP3 SWAP1 SUB PUSH1 0x1F AND DUP3 ADD SWAP2 JUMPDEST POP POP POP POP POP DUP2 MSTORE PUSH1 0x20 ADD SWAP1 PUSH1 0x1 ADD SWAP1 PUSH2 0xAE0 JUMP JUMPDEST POP POP POP POP DUP3 PUSH1 0x60 ADD DUP2 SWAP1 MSTORE POP POP SWAP7 SWAP6 POP POP POP POP POP POP JUMP JUMPDEST PUSH1 0x0 DUP1 DUP10 DUP10 PUSH1 0x40 MLOAD PUSH2 0xBB6 SWAP3 SWAP2 SWAP1 PUSH2 0x2391 JUMP JUMPDEST SWAP1 DUP2 MSTORE PUSH1 0x20 ADD PUSH1 0x40 MLOAD DUP1 SWAP2 SUB SWAP1 KECCAK256 SWAP1 POP DUP9 DUP9 DUP3 PUSH1 0x0 ADD SWAP2 SWAP1 PUSH2 0xBD9 SWAP3 SWAP2 SWAP1 PUSH2 0x137A JUMP JUMPDEST POP DUP7 DUP7 DUP3 PUSH1 0x1 ADD SWAP2 SWAP1 PUSH2 0xBED SWAP3 SWAP2 SWAP1 PUSH2 0x137A JUMP JUMPDEST POP DUP5 DUP5 DUP3 PUSH1 0x2 ADD SWAP2 SWAP1 PUSH2 0xC01 SWAP3 SWAP2 SWAP1 PUSH2 0x137A JUMP JUMPDEST POP DUP3 DUP2 PUSH1 0x3 ADD DUP2 SWAP1 SSTORE POP DUP2 DUP2 PUSH1 0x4 ADD DUP2 SWAP1 SSTORE POP POP POP POP POP POP POP POP POP POP JUMP JUMPDEST PUSH2 0xC27 PUSH2 0x131C JUMP JUMPDEST PUSH1 0x0 DUP1 DUP5 DUP5 PUSH1 0x40 MLOAD PUSH2 0xC3A SWAP3 SWAP2 SWAP1 PUSH2 0x2391 JUMP JUMPDEST SWAP1 DUP2 MSTORE PUSH1 0x20 ADD PUSH1 0x40 MLOAD DUP1 SWAP2 SUB SWAP1 KECCAK256 PUSH1 0x5 ADD DUP7 DUP7 PUSH1 0x40 MLOAD PUSH2 0xC5B SWAP3 SWAP2 SWAP1 PUSH2 0x2391 JUMP JUMPDEST SWAP1 DUP2 MSTORE PUSH1 0x20 ADD PUSH1 0x40 MLOAD DUP1 SWAP2 SUB SWAP1 KECCAK256 SWAP1 POP DUP1 PUSH1 0x0 ADD DUP1 SLOAD PUSH2 0xC7A SWAP1 PUSH2 0x2670 JUMP JUMPDEST DUP1 PUSH1 0x1F ADD PUSH1 0x20 DUP1 SWAP2 DIV MUL PUSH1 0x20 ADD PUSH1 0x40 MLOAD SWAP1 DUP2 ADD PUSH1 0x40 MSTORE DUP1 SWAP3 SWAP2 SWAP1 DUP2 DUP2 MSTORE PUSH1 0x20 ADD DUP3 DUP1 SLOAD PUSH2 0xCA6 SWAP1 PUSH2 0x2670 JUMP JUMPDEST DUP1 ISZERO PUSH2 0xCF3 JUMPI DUP1 PUSH1 0x1F LT PUSH2 0xCC8 JUMPI PUSH2 0x100 DUP1 DUP4 SLOAD DIV MUL DUP4 MSTORE SWAP2 PUSH1 0x20 ADD SWAP2 PUSH2 0xCF3 JUMP JUMPDEST DUP3 ADD SWAP2 SWAP1 PUSH1 0x0 MSTORE PUSH1 0x20 PUSH1 0x0 KECCAK256 SWAP1 JUMPDEST DUP2 SLOAD DUP2 MSTORE SWAP1 PUSH1 0x1 ADD SWAP1 PUSH1 0x20 ADD DUP1 DUP4 GT PUSH2 0xCD6 JUMPI DUP3 SWAP1 SUB PUSH1 0x1F AND DUP3 ADD SWAP2 JUMPDEST POP POP POP POP POP DUP3 PUSH1 0x0 ADD DUP2 SWAP1 MSTORE POP DUP1 PUSH1 0x1 ADD DUP1 SLOAD PUSH2 0xD0F SWAP1 PUSH2 0x2670 JUMP JUMPDEST DUP1 PUSH1 0x1F ADD PUSH1 0x20 DUP1 SWAP2 DIV MUL PUSH1 0x20 ADD PUSH1 0x40 MLOAD SWAP1 DUP2 ADD PUSH1 0x40 MSTORE DUP1 SWAP3 SWAP2 SWAP1 DUP2 DUP2 MSTORE PUSH1 0x20 ADD DUP3 DUP1 SLOAD PUSH2 0xD3B SWAP1 PUSH2 0x2670 JUMP JUMPDEST DUP1 ISZERO PUSH2 0xD88 JUMPI DUP1 PUSH1 0x1F LT PUSH2 0xD5D JUMPI PUSH2 0x100 DUP1 DUP4 SLOAD DIV MUL DUP4 MSTORE SWAP2 PUSH1 0x20 ADD SWAP2 PUSH2 0xD88 JUMP JUMPDEST DUP3 ADD SWAP2 SWAP1 PUSH1 0x0 MSTORE PUSH1 0x20 PUSH1 0x0 KECCAK256 SWAP1 JUMPDEST DUP2 SLOAD DUP2 MSTORE SWAP1 PUSH1 0x1 ADD SWAP1 PUSH1 0x20 ADD DUP1 DUP4 GT PUSH2 0xD6B JUMPI DUP3 SWAP1 SUB PUSH1 0x1F AND DUP3 ADD SWAP2 JUMPDEST POP POP POP POP POP DUP3 PUSH1 0x20 ADD DUP2 SWAP1 MSTORE POP DUP1 PUSH1 0x2 ADD DUP1 SLOAD PUSH2 0xDA4 SWAP1 PUSH2 0x2670 JUMP JUMPDEST DUP1 PUSH1 0x1F ADD PUSH1 0x20 DUP1 SWAP2 DIV MUL PUSH1 0x20 ADD PUSH1 0x40 MLOAD SWAP1 DUP2 ADD PUSH1 0x40 MSTORE DUP1 SWAP3 SWAP2 SWAP1 DUP2 DUP2 MSTORE PUSH1 0x20 ADD DUP3 DUP1 SLOAD PUSH2 0xDD0 SWAP1 PUSH2 0x2670 JUMP JUMPDEST DUP1 ISZERO PUSH2 0xE1D JUMPI DUP1 PUSH1 0x1F LT PUSH2 0xDF2 JUMPI PUSH2 0x100 DUP1 DUP4 SLOAD DIV MUL DUP4 MSTORE SWAP2 PUSH1 0x20 ADD SWAP2 PUSH2 0xE1D JUMP JUMPDEST DUP3 ADD SWAP2 SWAP1 PUSH1 0x0 MSTORE PUSH1 0x20 PUSH1 0x0 KECCAK256 SWAP1 JUMPDEST DUP2 SLOAD DUP2 MSTORE SWAP1 PUSH1 0x1 ADD SWAP1 PUSH1 0x20 ADD DUP1 DUP4 GT PUSH2 0xE00 JUMPI DUP3 SWAP1 SUB PUSH1 0x1F AND DUP3 ADD SWAP2 JUMPDEST POP POP POP POP POP DUP3 PUSH1 0x40 ADD DUP2 SWAP1 MSTORE POP DUP1 PUSH1 0x3 ADD DUP1 SLOAD DUP1 PUSH1 0x20 MUL PUSH1 0x20 ADD PUSH1 0x40 MLOAD SWAP1 DUP2 ADD PUSH1 0x40 MSTORE DUP1 SWAP3 SWAP2 SWAP1 DUP2 DUP2 MSTORE PUSH1 0x20 ADD DUP3 DUP1 SLOAD DUP1 ISZERO PUSH2 0xE78 JUMPI PUSH1 0x20 MUL DUP3 ADD SWAP2 SWAP1 PUSH1 0x0 MSTORE PUSH1 0x20 PUSH1 0x0 KECCAK256 SWAP1 JUMPDEST DUP2 SLOAD DUP2 MSTORE PUSH1 0x20 ADD SWAP1 PUSH1 0x1 ADD SWAP1 DUP1 DUP4 GT PUSH2 0xE64 JUMPI JUMPDEST POP POP POP POP POP DUP3 PUSH1 0x60 ADD DUP2 SWAP1 MSTORE POP DUP1 PUSH1 0x4 ADD SLOAD DUP3 PUSH1 0x80 ADD DUP2 DUP2 MSTORE POP POP POP SWAP5 SWAP4 POP POP POP POP JUMP JUMPDEST PUSH1 0x60 DUP2 MLOAD PUSH8 0xFFFFFFFFFFFFFFFF DUP2 GT ISZERO PUSH2 0xEB9 JUMPI PUSH2 0xEB8 PUSH2 0x27A9 JUMP JUMPDEST JUMPDEST PUSH1 0x40 MLOAD SWAP1 DUP1 DUP3 MSTORE DUP1 PUSH1 0x20 MUL PUSH1 0x20 ADD DUP3 ADD PUSH1 0x40 MSTORE DUP1 ISZERO PUSH2 0xEF2 JUMPI DUP2 PUSH1 0x20 ADD JUMPDEST PUSH2 0xEDF PUSH2 0x134B JUMP JUMPDEST DUP2 MSTORE PUSH1 0x20 ADD SWAP1 PUSH1 0x1 SWAP1 SUB SWAP1 DUP2 PUSH2 0xED7 JUMPI SWAP1 POP JUMPDEST POP SWAP1 POP PUSH1 0x0 JUMPDEST DUP3 MLOAD DUP2 LT ISZERO PUSH2 0x11AD JUMPI PUSH1 0x0 DUP1 DUP5 DUP4 DUP2 MLOAD DUP2 LT PUSH2 0xF17 JUMPI PUSH2 0xF16 PUSH2 0x277A JUMP JUMPDEST JUMPDEST PUSH1 0x20 MUL PUSH1 0x20 ADD ADD MLOAD PUSH1 0x40 MLOAD PUSH2 0xF2C SWAP2 SWAP1 PUSH2 0x23AA JUMP JUMPDEST SWAP1 DUP2 MSTORE PUSH1 0x20 ADD PUSH1 0x40 MLOAD DUP1 SWAP2 SUB SWAP1 KECCAK256 SWAP1 POP DUP1 PUSH1 0x0 ADD DUP1 SLOAD PUSH2 0xF4B SWAP1 PUSH2 0x2670 JUMP JUMPDEST DUP1 PUSH1 0x1F ADD PUSH1 0x20 DUP1 SWAP2 DIV MUL PUSH1 0x20 ADD PUSH1 0x40 MLOAD SWAP1 DUP2 ADD PUSH1 0x40 MSTORE DUP1 SWAP3 SWAP2 SWAP1 DUP2 DUP2 MSTORE PUSH1 0x20 ADD DUP3 DUP1 SLOAD PUSH2 0xF77 SWAP1 PUSH2 0x2670 JUMP JUMPDEST DUP1 ISZERO PUSH2 0xFC4 JUMPI DUP1 PUSH1 0x1F LT PUSH2 0xF99 JUMPI PUSH2 0x100 DUP1 DUP4 SLOAD DIV MUL DUP4 MSTORE SWAP2 PUSH1 0x20 ADD SWAP2 PUSH2 0xFC4 JUMP JUMPDEST DUP3 ADD SWAP2 SWAP1 PUSH1 0x0 MSTORE PUSH1 0x20 PUSH1 0x0 KECCAK256 SWAP1 JUMPDEST DUP2 SLOAD DUP2 MSTORE SWAP1 PUSH1 0x1 ADD SWAP1 PUSH1 0x20 ADD DUP1 DUP4 GT PUSH2 0xFA7 JUMPI DUP3 SWAP1 SUB PUSH1 0x1F AND DUP3 ADD SWAP2 JUMPDEST POP POP POP POP POP DUP4 DUP4 DUP2 MLOAD DUP2 LT PUSH2 0xFDC JUMPI PUSH2 0xFDB PUSH2 0x277A JUMP JUMPDEST JUMPDEST PUSH1 0x20 MUL PUSH1 0x20 ADD ADD MLOAD PUSH1 0x0 ADD DUP2 SWAP1 MSTORE POP DUP1 PUSH1 0x1 ADD DUP1 SLOAD PUSH2 0xFFA SWAP1 PUSH2 0x2670 JUMP JUMPDEST DUP1 PUSH1 0x1F ADD PUSH1 0x20 DUP1 SWAP2 DIV MUL PUSH1 0x20 ADD PUSH1 0x40 MLOAD SWAP1 DUP2 ADD PUSH1 0x40 MSTORE DUP1 SWAP3 SWAP2 SWAP1 DUP2 DUP2 MSTORE PUSH1 0x20 ADD DUP3 DUP1 SLOAD PUSH2 0x1026 SWAP1 PUSH2 0x2670 JUMP JUMPDEST DUP1 ISZERO PUSH2 0x1073 JUMPI DUP1 PUSH1 0x1F LT PUSH2 0x1048 JUMPI PUSH2 0x100 DUP1 DUP4 SLOAD DIV MUL DUP4 MSTORE SWAP2 PUSH1 0x20 ADD SWAP2 PUSH2 0x1073 JUMP JUMPDEST DUP3 ADD SWAP2 SWAP1 PUSH1 0x0 MSTORE PUSH1 0x20 PUSH1 0x0 KECCAK256 SWAP1 JUMPDEST DUP2 SLOAD DUP2 MSTORE SWAP1 PUSH1 0x1 ADD SWAP1 PUSH1 0x20 ADD DUP1 DUP4 GT PUSH2 0x1056 JUMPI DUP3 SWAP1 SUB PUSH1 0x1F AND DUP3 ADD SWAP2 JUMPDEST POP POP POP POP POP DUP4 DUP4 DUP2 MLOAD DUP2 LT PUSH2 0x108B JUMPI PUSH2 0x108A PUSH2 0x277A JUMP JUMPDEST JUMPDEST PUSH1 0x20 MUL PUSH1 0x20 ADD ADD MLOAD PUSH1 0x20 ADD DUP2 SWAP1 MSTORE POP DUP1 PUSH1 0x2 ADD DUP1 SLOAD PUSH2 0x10A9 SWAP1 PUSH2 0x2670 JUMP JUMPDEST DUP1 PUSH1 0x1F ADD PUSH1 0x20 DUP1 SWAP2 DIV MUL PUSH1 0x20 ADD PUSH1 0x40 MLOAD SWAP1 DUP2 ADD PUSH1 0x40 MSTORE DUP1 SWAP3 SWAP2 SWAP1 DUP2 DUP2 MSTORE PUSH1 0x20 ADD DUP3 DUP1 SLOAD PUSH2 0x10D5 SWAP1 PUSH2 0x2670 JUMP JUMPDEST DUP1 ISZERO PUSH2 0x1122 JUMPI DUP1 PUSH1 0x1F LT PUSH2 0x10F7 JUMPI PUSH2 0x100 DUP1 DUP4 SLOAD DIV MUL DUP4 MSTORE SWAP2 PUSH1 0x20 ADD SWAP2 PUSH2 0x1122 JUMP JUMPDEST DUP3 ADD SWAP2 SWAP1 PUSH1 0x0 MSTORE PUSH1 0x20 PUSH1 0x0 KECCAK256 SWAP1 JUMPDEST DUP2 SLOAD DUP2 MSTORE SWAP1 PUSH1 0x1 ADD SWAP1 PUSH1 0x20 ADD DUP1 DUP4 GT PUSH2 0x1105 JUMPI DUP3 SWAP1 SUB PUSH1 0x1F AND DUP3 ADD SWAP2 JUMPDEST POP POP POP POP POP DUP4 DUP4 DUP2 MLOAD DUP2 LT PUSH2 0x113A JUMPI PUSH2 0x1139 PUSH2 0x277A JUMP JUMPDEST JUMPDEST PUSH1 0x20 MUL PUSH1 0x20 ADD ADD MLOAD PUSH1 0x40 ADD DUP2 SWAP1 MSTORE POP DUP1 PUSH1 0x3 ADD SLOAD DUP4 DUP4 DUP2 MLOAD DUP2 LT PUSH2 0x1161 JUMPI PUSH2 0x1160 PUSH2 0x277A JUMP JUMPDEST JUMPDEST PUSH1 0x20 MUL PUSH1 0x20 ADD ADD MLOAD PUSH1 0x60 ADD DUP2 DUP2 MSTORE POP POP DUP1 PUSH1 0x4 ADD SLOAD DUP4 DUP4 DUP2 MLOAD DUP2 LT PUSH2 0x1189 JUMPI PUSH2 0x1188 PUSH2 0x277A JUMP JUMPDEST JUMPDEST PUSH1 0x20 MUL PUSH1 0x20 ADD ADD MLOAD PUSH1 0x80 ADD DUP2 DUP2 MSTORE POP POP POP DUP1 DUP1 PUSH2 0x11A5 SWAP1 PUSH2 0x26D3 JUMP JUMPDEST SWAP2 POP POP PUSH2 0xEF8 JUMP JUMPDEST POP SWAP2 SWAP1 POP JUMP JUMPDEST PUSH1 0x0 DUP1 DUP12 DUP12 PUSH1 0x40 MLOAD PUSH2 0x11C6 SWAP3 SWAP2 SWAP1 PUSH2 0x2391 JUMP JUMPDEST SWAP1 DUP2 MSTORE PUSH1 0x20 ADD PUSH1 0x40 MLOAD DUP1 SWAP2 SUB SWAP1 KECCAK256 PUSH1 0x5 ADD DUP10 DUP10 PUSH1 0x40 MLOAD PUSH2 0x11E7 SWAP3 SWAP2 SWAP1 PUSH2 0x2391 JUMP JUMPDEST SWAP1 DUP2 MSTORE PUSH1 0x20 ADD PUSH1 0x40 MLOAD DUP1 SWAP2 SUB SWAP1 KECCAK256 PUSH1 0x5 ADD DUP8 DUP8 PUSH1 0x40 MLOAD PUSH2 0x1208 SWAP3 SWAP2 SWAP1 PUSH2 0x2391 JUMP JUMPDEST SWAP1 DUP2 MSTORE PUSH1 0x20 ADD PUSH1 0x40 MLOAD DUP1 SWAP2 SUB SWAP1 KECCAK256 SWAP1 POP DUP7 DUP7 DUP3 PUSH1 0x0 ADD SWAP2 SWAP1 PUSH2 0x122B SWAP3 SWAP2 SWAP1 PUSH2 0x137A JUMP JUMPDEST POP DUP5 DUP5 DUP3 PUSH1 0x1 ADD SWAP2 SWAP1 PUSH2 0x123F SWAP3 SWAP2 SWAP1 PUSH2 0x137A JUMP JUMPDEST POP DUP3 DUP2 PUSH1 0x2 ADD DUP2 SWAP1 SSTORE POP DUP2 DUP2 PUSH1 0x3 ADD SWAP1 DUP1 MLOAD SWAP1 PUSH1 0x20 ADD SWAP1 PUSH2 0x1261 SWAP3 SWAP2 SWAP1 PUSH2 0x126F JUMP JUMPDEST POP POP POP POP POP POP POP POP POP POP POP POP JUMP JUMPDEST DUP3 DUP1 SLOAD DUP3 DUP3 SSTORE SWAP1 PUSH1 0x0 MSTORE PUSH1 0x20 PUSH1 0x0 KECCAK256 SWAP1 DUP2 ADD SWAP3 DUP3 ISZERO PUSH2 0x12BE JUMPI SWAP2 PUSH1 0x20 MUL DUP3 ADD JUMPDEST DUP3 DUP2 GT ISZERO PUSH2 0x12BD JUMPI DUP3 MLOAD DUP3 SWAP1 DUP1 MLOAD SWAP1 PUSH1 0x20 ADD SWAP1 PUSH2 0x12AD SWAP3 SWAP2 SWAP1 PUSH2 0x1428 JUMP JUMPDEST POP SWAP2 PUSH1 0x20 ADD SWAP2 SWAP1 PUSH1 0x1 ADD SWAP1 PUSH2 0x128F JUMP JUMPDEST JUMPDEST POP SWAP1 POP PUSH2 0x12CB SWAP2 SWAP1 PUSH2 0x14AE JUMP JUMPDEST POP SWAP1 JUMP JUMPDEST DUP3 DUP1 SLOAD DUP3 DUP3 SSTORE SWAP1 PUSH1 0x0 MSTORE PUSH1 0x20 PUSH1 0x0 KECCAK256 SWAP1 DUP2 ADD SWAP3 DUP3 ISZERO PUSH2 0x130B JUMPI SWAP2 PUSH1 0x20 MUL DUP3 ADD JUMPDEST DUP3 DUP2 GT ISZERO PUSH2 0x130A JUMPI DUP3 MLOAD DUP3 SSTORE SWAP2 PUSH1 0x20 ADD SWAP2 SWAP1 PUSH1 0x1 ADD SWAP1 PUSH2 0x12EF JUMP JUMPDEST JUMPDEST POP SWAP1 POP PUSH2 0x1318 SWAP2 SWAP1 PUSH2 0x14D2 JUMP JUMPDEST POP SWAP1 JUMP JUMPDEST PUSH1 0x40 MLOAD DUP1 PUSH1 0xA0 ADD PUSH1 0x40 MSTORE DUP1 PUSH1 0x60 DUP2 MSTORE PUSH1 0x20 ADD PUSH1 0x60 DUP2 MSTORE PUSH1 0x20 ADD PUSH1 0x60 DUP2 MSTORE PUSH1 0x20 ADD PUSH1 0x60 DUP2 MSTORE PUSH1 0x20 ADD PUSH1 0x0 DUP2 MSTORE POP SWAP1 JUMP JUMPDEST PUSH1 0x40 MLOAD DUP1 PUSH1 0xA0 ADD PUSH1 0x40 MSTORE DUP1 PUSH1 0x60 DUP2 MSTORE PUSH1 0x20 ADD PUSH1 0x60 DUP2 MSTORE PUSH1 0x20 ADD PUSH1 0x60 DUP2 MSTORE PUSH1 0x20 ADD PUSH1 0x0 DUP2 MSTORE PUSH1 0x20 ADD PUSH1 0x0 DUP2 MSTORE POP SWAP1 JUMP JUMPDEST DUP3 DUP1 SLOAD PUSH2 0x1386 SWAP1 PUSH2 0x2670 JUMP JUMPDEST SWAP1 PUSH1 0x0 MSTORE PUSH1 0x20 PUSH1 0x0 KECCAK256 SWAP1 PUSH1 0x1F ADD PUSH1 0x20 SWAP1 DIV DUP2 ADD SWAP3 DUP3 PUSH2 0x13A8 JUMPI PUSH1 0x0 DUP6 SSTORE PUSH2 0x13EF JUMP JUMPDEST DUP3 PUSH1 0x1F LT PUSH2 0x13C1 JUMPI DUP1 CALLDATALOAD PUSH1 0xFF NOT AND DUP4 DUP1 ADD OR DUP6 SSTORE PUSH2 0x13EF JUMP JUMPDEST DUP3 DUP1 ADD PUSH1 0x1 ADD DUP6 SSTORE DUP3 ISZERO PUSH2 0x13EF JUMPI SWAP2 DUP3 ADD JUMPDEST DUP3 DUP2 GT ISZERO PUSH2 0x13EE JUMPI DUP3 CALLDATALOAD DUP3 SSTORE SWAP2 PUSH1 0x20 ADD SWAP2 SWAP1 PUSH1 0x1 ADD SWAP1 PUSH2 0x13D3 JUMP JUMPDEST JUMPDEST POP SWAP1 POP PUSH2 0x13FC SWAP2 SWAP1 PUSH2 0x14D2 JUMP JUMPDEST POP SWAP1 JUMP JUMPDEST PUSH1 0x40 MLOAD DUP1 PUSH1 0x80 ADD PUSH1 0x40 MSTORE DUP1 PUSH1 0x60 DUP2 MSTORE PUSH1 0x20 ADD PUSH1 0x60 DUP2 MSTORE PUSH1 0x20 ADD PUSH1 0x0 DUP2 MSTORE PUSH1 0x20 ADD PUSH1 0x60 DUP2 MSTORE POP SWAP1 JUMP JUMPDEST DUP3 DUP1 SLOAD PUSH2 0x1434 SWAP1 PUSH2 0x2670 JUMP JUMPDEST SWAP1 PUSH1 0x0 MSTORE PUSH1 0x20 PUSH1 0x0 KECCAK256 SWAP1 PUSH1 0x1F ADD PUSH1 0x20 SWAP1 DIV DUP2 ADD SWAP3 DUP3 PUSH2 0x1456 JUMPI PUSH1 0x0 DUP6 SSTORE PUSH2 0x149D JUMP JUMPDEST DUP3 PUSH1 0x1F LT PUSH2 0x146F JUMPI DUP1 MLOAD PUSH1 0xFF NOT AND DUP4 DUP1 ADD OR DUP6 SSTORE PUSH2 0x149D JUMP JUMPDEST DUP3 DUP1 ADD PUSH1 0x1 ADD DUP6 SSTORE DUP3 ISZERO PUSH2 0x149D JUMPI SWAP2 DUP3 ADD JUMPDEST DUP3 DUP2 GT ISZERO PUSH2 0x149C JUMPI DUP3 MLOAD DUP3 SSTORE SWAP2 PUSH1 0x20 ADD SWAP2 SWAP1 PUSH1 0x1 ADD SWAP1 PUSH2 0x1481 JUMP JUMPDEST JUMPDEST POP SWAP1 POP PUSH2 0x14AA SWAP2 SWAP1 PUSH2 0x14D2 JUMP JUMPDEST POP SWAP1 JUMP JUMPDEST JUMPDEST DUP1 DUP3 GT ISZERO PUSH2 0x14CE JUMPI PUSH1 0x0 DUP2 DUP2 PUSH2 0x14C5 SWAP2 SWAP1 PUSH2 0x14EF JUMP JUMPDEST POP PUSH1 0x1 ADD PUSH2 0x14AF JUMP JUMPDEST POP SWAP1 JUMP JUMPDEST JUMPDEST DUP1 DUP3 GT ISZERO PUSH2 0x14EB JUMPI PUSH1 0x0 DUP2 PUSH1 0x0 SWAP1 SSTORE POP PUSH1 0x1 ADD PUSH2 0x14D3 JUMP JUMPDEST POP SWAP1 JUMP JUMPDEST POP DUP1 SLOAD PUSH2 0x14FB SWAP1 PUSH2 0x2670 JUMP JUMPDEST PUSH1 0x0 DUP3 SSTORE DUP1 PUSH1 0x1F LT PUSH2 0x150D JUMPI POP PUSH2 0x152C JUMP JUMPDEST PUSH1 0x1F ADD PUSH1 0x20 SWAP1 DIV SWAP1 PUSH1 0x0 MSTORE PUSH1 0x20 PUSH1 0x0 KECCAK256 SWAP1 DUP2 ADD SWAP1 PUSH2 0x152B SWAP2 SWAP1 PUSH2 0x14D2 JUMP JUMPDEST JUMPDEST POP JUMP JUMPDEST PUSH1 0x0 PUSH2 0x1542 PUSH2 0x153D DUP5 PUSH2 0x2490 JUMP JUMPDEST PUSH2 0x246B JUMP JUMPDEST SWAP1 POP DUP1 DUP4 DUP3 MSTORE PUSH1 0x20 DUP3 ADD SWAP1 POP DUP3 DUP6 PUSH1 0x20 DUP7 MUL DUP3 ADD GT ISZERO PUSH2 0x1565 JUMPI PUSH2 0x1564 PUSH2 0x27E2 JUMP JUMPDEST JUMPDEST PUSH1 0x0 JUMPDEST DUP6 DUP2 LT ISZERO PUSH2 0x15B3 JUMPI DUP2 CALLDATALOAD PUSH8 0xFFFFFFFFFFFFFFFF DUP2 GT ISZERO PUSH2 0x158B JUMPI PUSH2 0x158A PUSH2 0x27DD JUMP JUMPDEST JUMPDEST DUP1 DUP7 ADD PUSH2 0x1598 DUP10 DUP3 PUSH2 0x1721 JUMP JUMPDEST DUP6 MSTORE PUSH1 0x20 DUP6 ADD SWAP5 POP PUSH1 0x20 DUP5 ADD SWAP4 POP POP POP PUSH1 0x1 DUP2 ADD SWAP1 POP PUSH2 0x1568 JUMP JUMPDEST POP POP POP SWAP4 SWAP3 POP POP POP JUMP JUMPDEST PUSH1 0x0 PUSH2 0x15D0 PUSH2 0x15CB DUP5 PUSH2 0x24BC JUMP JUMPDEST PUSH2 0x246B JUMP JUMPDEST SWAP1 POP DUP1 DUP4 DUP3 MSTORE PUSH1 0x20 DUP3 ADD SWAP1 POP DUP3 DUP6 PUSH1 0x20 DUP7 MUL DUP3 ADD GT ISZERO PUSH2 0x15F3 JUMPI PUSH2 0x15F2 PUSH2 0x27E2 JUMP JUMPDEST JUMPDEST PUSH1 0x0 JUMPDEST DUP6 DUP2 LT ISZERO PUSH2 0x1623 JUMPI DUP2 PUSH2 0x1609 DUP9 DUP3 PUSH2 0x174F JUMP JUMPDEST DUP5 MSTORE PUSH1 0x20 DUP5 ADD SWAP4 POP PUSH1 0x20 DUP4 ADD SWAP3 POP POP PUSH1 0x1 DUP2 ADD SWAP1 POP PUSH2 0x15F6 JUMP JUMPDEST POP POP POP SWAP4 SWAP3 POP POP POP JUMP JUMPDEST PUSH1 0x0 PUSH2 0x1640 PUSH2 0x163B DUP5 PUSH2 0x24E8 JUMP JUMPDEST PUSH2 0x246B JUMP JUMPDEST SWAP1 POP DUP3 DUP2 MSTORE PUSH1 0x20 DUP2 ADD DUP5 DUP5 DUP5 ADD GT ISZERO PUSH2 0x165C JUMPI PUSH2 0x165B PUSH2 0x27E7 JUMP JUMPDEST JUMPDEST PUSH2 0x1667 DUP5 DUP3 DUP6 PUSH2 0x262E JUMP JUMPDEST POP SWAP4 SWAP3 POP POP POP JUMP JUMPDEST PUSH1 0x0 DUP3 PUSH1 0x1F DUP4 ADD SLT PUSH2 0x1684 JUMPI PUSH2 0x1683 PUSH2 0x27DD JUMP JUMPDEST JUMPDEST DUP2 CALLDATALOAD PUSH2 0x1694 DUP5 DUP3 PUSH1 0x20 DUP7 ADD PUSH2 0x152F JUMP JUMPDEST SWAP2 POP POP SWAP3 SWAP2 POP POP JUMP JUMPDEST PUSH1 0x0 DUP3 PUSH1 0x1F DUP4 ADD SLT PUSH2 0x16B2 JUMPI PUSH2 0x16B1 PUSH2 0x27DD JUMP JUMPDEST JUMPDEST DUP2 CALLDATALOAD PUSH2 0x16C2 DUP5 DUP3 PUSH1 0x20 DUP7 ADD PUSH2 0x15BD JUMP JUMPDEST SWAP2 POP POP SWAP3 SWAP2 POP POP JUMP JUMPDEST PUSH1 0x0 DUP1 DUP4 PUSH1 0x1F DUP5 ADD SLT PUSH2 0x16E1 JUMPI PUSH2 0x16E0 PUSH2 0x27DD JUMP JUMPDEST JUMPDEST DUP3 CALLDATALOAD SWAP1 POP PUSH8 0xFFFFFFFFFFFFFFFF DUP2 GT ISZERO PUSH2 0x16FE JUMPI PUSH2 0x16FD PUSH2 0x27D8 JUMP JUMPDEST JUMPDEST PUSH1 0x20 DUP4 ADD SWAP2 POP DUP4 PUSH1 0x1 DUP3 MUL DUP4 ADD GT ISZERO PUSH2 0x171A JUMPI PUSH2 0x1719 PUSH2 0x27E2 JUMP JUMPDEST JUMPDEST SWAP3 POP SWAP3 SWAP1 POP JUMP JUMPDEST PUSH1 0x0 DUP3 PUSH1 0x1F DUP4 ADD SLT PUSH2 0x1736 JUMPI PUSH2 0x1735 PUSH2 0x27DD JUMP JUMPDEST JUMPDEST DUP2 CALLDATALOAD PUSH2 0x1746 DUP5 DUP3 PUSH1 0x20 DUP7 ADD PUSH2 0x162D JUMP JUMPDEST SWAP2 POP POP SWAP3 SWAP2 POP POP JUMP JUMPDEST PUSH1 0x0 DUP2 CALLDATALOAD SWAP1 POP PUSH2 0x175E DUP2 PUSH2 0x2807 JUMP JUMPDEST SWAP3 SWAP2 POP POP JUMP JUMPDEST PUSH1 0x0 PUSH1 0x20 DUP3 DUP5 SUB SLT ISZERO PUSH2 0x177A JUMPI PUSH2 0x1779 PUSH2 0x27F1 JUMP JUMPDEST JUMPDEST PUSH1 0x0 DUP3 ADD CALLDATALOAD PUSH8 0xFFFFFFFFFFFFFFFF DUP2 GT ISZERO PUSH2 0x1798 JUMPI PUSH2 0x1797 PUSH2 0x27EC JUMP JUMPDEST JUMPDEST PUSH2 0x17A4 DUP5 DUP3 DUP6 ADD PUSH2 0x166F JUMP JUMPDEST SWAP2 POP POP SWAP3 SWAP2 POP POP JUMP JUMPDEST PUSH1 0x0 DUP1 PUSH1 0x20 DUP4 DUP6 SUB SLT ISZERO PUSH2 0x17C4 JUMPI PUSH2 0x17C3 PUSH2 0x27F1 JUMP JUMPDEST JUMPDEST PUSH1 0x0 DUP4 ADD CALLDATALOAD PUSH8 0xFFFFFFFFFFFFFFFF DUP2 GT ISZERO PUSH2 0x17E2 JUMPI PUSH2 0x17E1 PUSH2 0x27EC JUMP JUMPDEST JUMPDEST PUSH2 0x17EE DUP6 DUP3 DUP7 ADD PUSH2 0x16CB JUMP JUMPDEST SWAP3 POP SWAP3 POP POP SWAP3 POP SWAP3 SWAP1 POP JUMP JUMPDEST PUSH1 0x0 DUP1 PUSH1 0x0 DUP1 PUSH1 0x40 DUP6 DUP8 SUB SLT ISZERO PUSH2 0x1814 JUMPI PUSH2 0x1813 PUSH2 0x27F1 JUMP JUMPDEST JUMPDEST PUSH1 0x0 DUP6 ADD CALLDATALOAD PUSH8 0xFFFFFFFFFFFFFFFF DUP2 GT ISZERO PUSH2 0x1832 JUMPI PUSH2 0x1831 PUSH2 0x27EC JUMP JUMPDEST JUMPDEST PUSH2 0x183E DUP8 DUP3 DUP9 ADD PUSH2 0x16CB JUMP JUMPDEST SWAP5 POP SWAP5 POP POP PUSH1 0x20 DUP6 ADD CALLDATALOAD PUSH8 0xFFFFFFFFFFFFFFFF DUP2 GT ISZERO PUSH2 0x1861 JUMPI PUSH2 0x1860 PUSH2 0x27EC JUMP JUMPDEST JUMPDEST PUSH2 0x186D DUP8 DUP3 DUP9 ADD PUSH2 0x16CB JUMP JUMPDEST SWAP3 POP SWAP3 POP POP SWAP3 SWAP6 SWAP2 SWAP5 POP SWAP3 POP JUMP JUMPDEST PUSH1 0x0 DUP1 PUSH1 0x0 DUP1 PUSH1 0x0 DUP1 PUSH1 0x60 DUP8 DUP10 SUB SLT ISZERO PUSH2 0x1898 JUMPI PUSH2 0x1897 PUSH2 0x27F1 JUMP JUMPDEST JUMPDEST PUSH1 0x0 DUP8 ADD CALLDATALOAD PUSH8 0xFFFFFFFFFFFFFFFF DUP2 GT ISZERO PUSH2 0x18B6 JUMPI PUSH2 0x18B5 PUSH2 0x27EC JUMP JUMPDEST JUMPDEST PUSH2 0x18C2 DUP10 DUP3 DUP11 ADD PUSH2 0x16CB JUMP JUMPDEST SWAP7 POP SWAP7 POP POP PUSH1 0x20 DUP8 ADD CALLDATALOAD PUSH8 0xFFFFFFFFFFFFFFFF DUP2 GT ISZERO PUSH2 0x18E5 JUMPI PUSH2 0x18E4 PUSH2 0x27EC JUMP JUMPDEST JUMPDEST PUSH2 0x18F1 DUP10 DUP3 DUP11 ADD PUSH2 0x16CB JUMP JUMPDEST SWAP5 POP SWAP5 POP POP PUSH1 0x40 DUP8 ADD CALLDATALOAD PUSH8 0xFFFFFFFFFFFFFFFF DUP2 GT ISZERO PUSH2 0x1914 JUMPI PUSH2 0x1913 PUSH2 0x27EC JUMP JUMPDEST JUMPDEST PUSH2 0x1920 DUP10 DUP3 DUP11 ADD PUSH2 0x16CB JUMP JUMPDEST SWAP3 POP SWAP3 POP POP SWAP3 SWAP6 POP SWAP3 SWAP6 POP SWAP3 SWAP6 JUMP JUMPDEST PUSH1 0x0 DUP1 PUSH1 0x0 DUP1 PUSH1 0x0 DUP1 PUSH1 0x0 DUP1 PUSH1 0x0 DUP1 PUSH1 0x0 PUSH1 0xE0 DUP13 DUP15 SUB SLT ISZERO PUSH2 0x1954 JUMPI PUSH2 0x1953 PUSH2 0x27F1 JUMP JUMPDEST JUMPDEST PUSH1 0x0 DUP13 ADD CALLDATALOAD PUSH8 0xFFFFFFFFFFFFFFFF DUP2 GT ISZERO PUSH2 0x1972 JUMPI PUSH2 0x1971 PUSH2 0x27EC JUMP JUMPDEST JUMPDEST PUSH2 0x197E DUP15 DUP3 DUP16 ADD PUSH2 0x16CB JUMP JUMPDEST SWAP12 POP SWAP12 POP POP PUSH1 0x20 DUP13 ADD CALLDATALOAD PUSH8 0xFFFFFFFFFFFFFFFF DUP2 GT ISZERO PUSH2 0x19A1 JUMPI PUSH2 0x19A0 PUSH2 0x27EC JUMP JUMPDEST JUMPDEST PUSH2 0x19AD DUP15 DUP3 DUP16 ADD PUSH2 0x16CB JUMP JUMPDEST SWAP10 POP SWAP10 POP POP PUSH1 0x40 DUP13 ADD CALLDATALOAD PUSH8 0xFFFFFFFFFFFFFFFF DUP2 GT ISZERO PUSH2 0x19D0 JUMPI PUSH2 0x19CF PUSH2 0x27EC JUMP JUMPDEST JUMPDEST PUSH2 0x19DC DUP15 DUP3 DUP16 ADD PUSH2 0x16CB JUMP JUMPDEST SWAP8 POP SWAP8 POP POP PUSH1 0x60 DUP13 ADD CALLDATALOAD PUSH8 0xFFFFFFFFFFFFFFFF DUP2 GT ISZERO PUSH2 0x19FF JUMPI PUSH2 0x19FE PUSH2 0x27EC JUMP JUMPDEST JUMPDEST PUSH2 0x1A0B DUP15 DUP3 DUP16 ADD PUSH2 0x16CB JUMP JUMPDEST SWAP6 POP SWAP6 POP POP PUSH1 0x80 DUP13 ADD CALLDATALOAD PUSH8 0xFFFFFFFFFFFFFFFF DUP2 GT ISZERO PUSH2 0x1A2E JUMPI PUSH2 0x1A2D PUSH2 0x27EC JUMP JUMPDEST JUMPDEST PUSH2 0x1A3A DUP15 DUP3 DUP16 ADD PUSH2 0x166F JUMP JUMPDEST SWAP4 POP POP PUSH1 0xA0 DUP13 ADD CALLDATALOAD PUSH8 0xFFFFFFFFFFFFFFFF DUP2 GT ISZERO PUSH2 0x1A5B JUMPI PUSH2 0x1A5A PUSH2 0x27EC JUMP JUMPDEST JUMPDEST PUSH2 0x1A67 DUP15 DUP3 DUP16 ADD PUSH2 0x169D JUMP JUMPDEST SWAP3 POP POP PUSH1 0xC0 DUP13 ADD CALLDATALOAD PUSH8 0xFFFFFFFFFFFFFFFF DUP2 GT ISZERO PUSH2 0x1A88 JUMPI PUSH2 0x1A87 PUSH2 0x27EC JUMP JUMPDEST JUMPDEST PUSH2 0x1A94 DUP15 DUP3 DUP16 ADD PUSH2 0x166F JUMP JUMPDEST SWAP2 POP POP SWAP3 SWAP6 SWAP9 SWAP12 POP SWAP3 SWAP6 SWAP9 SWAP12 SWAP1 SWAP4 SWAP7 SWAP10 POP JUMP JUMPDEST PUSH1 0x0 DUP1 PUSH1 0x0 DUP1 PUSH1 0x0 DUP1 PUSH1 0x0 DUP1 PUSH1 0x0 DUP1 PUSH1 0xC0 DUP12 DUP14 SUB SLT ISZERO PUSH2 0x1ACA JUMPI PUSH2 0x1AC9 PUSH2 0x27F1 JUMP JUMPDEST JUMPDEST PUSH1 0x0 DUP12 ADD CALLDATALOAD PUSH8 0xFFFFFFFFFFFFFFFF DUP2 GT ISZERO PUSH2 0x1AE8 JUMPI PUSH2 0x1AE7 PUSH2 0x27EC JUMP JUMPDEST JUMPDEST PUSH2 0x1AF4 DUP14 DUP3 DUP15 ADD PUSH2 0x16CB JUMP JUMPDEST SWAP11 POP SWAP11 POP POP PUSH1 0x20 DUP12 ADD CALLDATALOAD PUSH8 0xFFFFFFFFFFFFFFFF DUP2 GT ISZERO PUSH2 0x1B17 JUMPI PUSH2 0x1B16 PUSH2 0x27EC JUMP JUMPDEST JUMPDEST PUSH2 0x1B23 DUP14 DUP3 DUP15 ADD PUSH2 0x16CB JUMP JUMPDEST SWAP9 POP SWAP9 POP POP PUSH1 0x40 DUP12 ADD CALLDATALOAD PUSH8 0xFFFFFFFFFFFFFFFF DUP2 GT ISZERO PUSH2 0x1B46 JUMPI PUSH2 0x1B45 PUSH2 0x27EC JUMP JUMPDEST JUMPDEST PUSH2 0x1B52 DUP14 DUP3 DUP15 ADD PUSH2 0x16CB JUMP JUMPDEST SWAP7 POP SWAP7 POP POP PUSH1 0x60 DUP12 ADD CALLDATALOAD PUSH8 0xFFFFFFFFFFFFFFFF DUP2 GT ISZERO PUSH2 0x1B75 JUMPI PUSH2 0x1B74 PUSH2 0x27EC JUMP JUMPDEST JUMPDEST PUSH2 0x1B81 DUP14 DUP3 DUP15 ADD PUSH2 0x16CB JUMP JUMPDEST SWAP5 POP SWAP5 POP POP PUSH1 0x80 DUP12 ADD CALLDATALOAD PUSH8 0xFFFFFFFFFFFFFFFF DUP2 GT ISZERO PUSH2 0x1BA4 JUMPI PUSH2 0x1BA3 PUSH2 0x27EC JUMP JUMPDEST JUMPDEST PUSH2 0x1BB0 DUP14 DUP3 DUP15 ADD PUSH2 0x169D JUMP JUMPDEST SWAP3 POP POP PUSH1 0xA0 PUSH2 0x1BC1 DUP14 DUP3 DUP15 ADD PUSH2 0x174F JUMP JUMPDEST SWAP2 POP POP SWAP3 SWAP6 SWAP9 SWAP12 SWAP2 SWAP5 SWAP8 SWAP11 POP SWAP3 SWAP6 SWAP9 POP JUMP JUMPDEST PUSH1 0x0 DUP1 PUSH1 0x0 DUP1 PUSH1 0x0 DUP1 PUSH1 0x0 DUP1 PUSH1 0x0 DUP1 PUSH1 0xC0 DUP12 DUP14 SUB SLT ISZERO PUSH2 0x1BF6 JUMPI PUSH2 0x1BF5 PUSH2 0x27F1 JUMP JUMPDEST JUMPDEST PUSH1 0x0 DUP12 ADD CALLDATALOAD PUSH8 0xFFFFFFFFFFFFFFFF DUP2 GT ISZERO PUSH2 0x1C14 JUMPI PUSH2 0x1C13 PUSH2 0x27EC JUMP JUMPDEST JUMPDEST PUSH2 0x1C20 DUP14 DUP3 DUP15 ADD PUSH2 0x16CB JUMP JUMPDEST SWAP11 POP SWAP11 POP POP PUSH1 0x20 DUP12 ADD CALLDATALOAD PUSH8 0xFFFFFFFFFFFFFFFF DUP2 GT ISZERO PUSH2 0x1C43 JUMPI PUSH2 0x1C42 PUSH2 0x27EC JUMP JUMPDEST JUMPDEST PUSH2 0x1C4F DUP14 DUP3 DUP15 ADD PUSH2 0x16CB JUMP JUMPDEST SWAP9 POP SWAP9 POP POP PUSH1 0x40 DUP12 ADD CALLDATALOAD PUSH8 0xFFFFFFFFFFFFFFFF DUP2 GT ISZERO PUSH2 0x1C72 JUMPI PUSH2 0x1C71 PUSH2 0x27EC JUMP JUMPDEST JUMPDEST PUSH2 0x1C7E DUP14 DUP3 DUP15 ADD PUSH2 0x16CB JUMP JUMPDEST SWAP7 POP SWAP7 POP POP PUSH1 0x60 DUP12 ADD CALLDATALOAD PUSH8 0xFFFFFFFFFFFFFFFF DUP2 GT ISZERO PUSH2 0x1CA1 JUMPI PUSH2 0x1CA0 PUSH2 0x27EC JUMP JUMPDEST JUMPDEST PUSH2 0x1CAD DUP14 DUP3 DUP15 ADD PUSH2 0x16CB JUMP JUMPDEST SWAP5 POP SWAP5 POP POP PUSH1 0x80 PUSH2 0x1CC0 DUP14 DUP3 DUP15 ADD PUSH2 0x174F JUMP JUMPDEST SWAP3 POP POP PUSH1 0xA0 DUP12 ADD CALLDATALOAD PUSH8 0xFFFFFFFFFFFFFFFF DUP2 GT ISZERO PUSH2 0x1CE1 JUMPI PUSH2 0x1CE0 PUSH2 0x27EC JUMP JUMPDEST JUMPDEST PUSH2 0x1CED DUP14 DUP3 DUP15 ADD PUSH2 0x166F JUMP JUMPDEST SWAP2 POP POP SWAP3 SWAP6 SWAP9 SWAP12 SWAP2 SWAP5 SWAP8 SWAP11 POP SWAP3 SWAP6 SWAP9 POP JUMP JUMPDEST PUSH1 0x0 DUP1 PUSH1 0x0 DUP1 PUSH1 0x0 DUP1 PUSH1 0x0 DUP1 PUSH1 0xA0 DUP10 DUP12 SUB SLT ISZERO PUSH2 0x1D1F JUMPI PUSH2 0x1D1E PUSH2 0x27F1 JUMP JUMPDEST JUMPDEST PUSH1 0x0 DUP10 ADD CALLDATALOAD PUSH8 0xFFFFFFFFFFFFFFFF DUP2 GT ISZERO PUSH2 0x1D3D JUMPI PUSH2 0x1D3C PUSH2 0x27EC JUMP JUMPDEST JUMPDEST PUSH2 0x1D49 DUP12 DUP3 DUP13 ADD PUSH2 0x16CB JUMP JUMPDEST SWAP9 POP SWAP9 POP POP PUSH1 0x20 DUP10 ADD CALLDATALOAD PUSH8 0xFFFFFFFFFFFFFFFF DUP2 GT ISZERO PUSH2 0x1D6C JUMPI PUSH2 0x1D6B PUSH2 0x27EC JUMP JUMPDEST JUMPDEST PUSH2 0x1D78 DUP12 DUP3 DUP13 ADD PUSH2 0x16CB JUMP JUMPDEST SWAP7 POP SWAP7 POP POP PUSH1 0x40 DUP10 ADD CALLDATALOAD PUSH8 0xFFFFFFFFFFFFFFFF DUP2 GT ISZERO PUSH2 0x1D9B JUMPI PUSH2 0x1D9A PUSH2 0x27EC JUMP JUMPDEST JUMPDEST PUSH2 0x1DA7 DUP12 DUP3 DUP13 ADD PUSH2 0x16CB JUMP JUMPDEST SWAP5 POP SWAP5 POP POP PUSH1 0x60 PUSH2 0x1DBA DUP12 DUP3 DUP13 ADD PUSH2 0x174F JUMP JUMPDEST SWAP3 POP POP PUSH1 0x80 PUSH2 0x1DCB DUP12 DUP3 DUP13 ADD PUSH2 0x174F JUMP JUMPDEST SWAP2 POP POP SWAP3 SWAP6 SWAP9 POP SWAP3 SWAP6 SWAP9 SWAP1 SWAP4 SWAP7 POP JUMP JUMPDEST PUSH1 0x0 DUP1 PUSH1 0x40 DUP4 DUP6 SUB SLT ISZERO PUSH2 0x1DF2 JUMPI PUSH2 0x1DF1 PUSH2 0x27F1 JUMP JUMPDEST JUMPDEST PUSH1 0x0 DUP4 ADD CALLDATALOAD PUSH8 0xFFFFFFFFFFFFFFFF DUP2 GT ISZERO PUSH2 0x1E10 JUMPI PUSH2 0x1E0F PUSH2 0x27EC JUMP JUMPDEST JUMPDEST PUSH2 0x1E1C DUP6 DUP3 DUP7 ADD PUSH2 0x1721 JUMP JUMPDEST SWAP3 POP POP PUSH1 0x20 DUP4 ADD CALLDATALOAD PUSH8 0xFFFFFFFFFFFFFFFF DUP2 GT ISZERO PUSH2 0x1E3D JUMPI PUSH2 0x1E3C PUSH2 0x27EC JUMP JUMPDEST JUMPDEST PUSH2 0x1E49 DUP6 DUP3 DUP7 ADD PUSH2 0x166F JUMP JUMPDEST SWAP2 POP POP SWAP3 POP SWAP3 SWAP1 POP JUMP JUMPDEST PUSH1 0x0 PUSH2 0x1E5F DUP4 DUP4 PUSH2 0x2089 JUMP JUMPDEST SWAP1 POP SWAP3 SWAP2 POP POP JUMP JUMPDEST PUSH1 0x0 PUSH2 0x1E73 DUP4 DUP4 PUSH2 0x20F3 JUMP JUMPDEST SWAP1 POP SWAP3 SWAP2 POP POP JUMP JUMPDEST PUSH1 0x0 PUSH2 0x1E87 DUP4 DUP4 PUSH2 0x226C JUMP JUMPDEST SWAP1 POP SWAP3 SWAP2 POP POP JUMP JUMPDEST PUSH1 0x0 PUSH2 0x1E9B DUP4 DUP4 PUSH2 0x2382 JUMP JUMPDEST PUSH1 0x20 DUP4 ADD SWAP1 POP SWAP3 SWAP2 POP POP JUMP JUMPDEST PUSH1 0x0 PUSH2 0x1EB2 DUP3 PUSH2 0x2559 JUMP JUMPDEST PUSH2 0x1EBC DUP2 DUP6 PUSH2 0x25C4 JUMP JUMPDEST SWAP4 POP DUP4 PUSH1 0x20 DUP3 MUL DUP6 ADD PUSH2 0x1ECE DUP6 PUSH2 0x2519 JUMP JUMPDEST DUP1 PUSH1 0x0 JUMPDEST DUP6 DUP2 LT ISZERO PUSH2 0x1F0A JUMPI DUP5 DUP5 SUB DUP10 MSTORE DUP2 MLOAD PUSH2 0x1EEB DUP6 DUP3 PUSH2 0x1E53 JUMP JUMPDEST SWAP5 POP PUSH2 0x1EF6 DUP4 PUSH2 0x2590 JUMP JUMPDEST SWAP3 POP PUSH1 0x20 DUP11 ADD SWAP10 POP POP PUSH1 0x1 DUP2 ADD SWAP1 POP PUSH2 0x1ED2 JUMP JUMPDEST POP DUP3 SWAP8 POP DUP8 SWAP6 POP POP POP POP POP POP SWAP3 SWAP2 POP POP JUMP JUMPDEST PUSH1 0x0 PUSH2 0x1F27 DUP3 PUSH2 0x2564 JUMP JUMPDEST PUSH2 0x1F31 DUP2 DUP6 PUSH2 0x25D5 JUMP JUMPDEST SWAP4 POP DUP4 PUSH1 0x20 DUP3 MUL DUP6 ADD PUSH2 0x1F43 DUP6 PUSH2 0x2529 JUMP JUMPDEST DUP1 PUSH1 0x0 JUMPDEST DUP6 DUP2 LT ISZERO PUSH2 0x1F7F JUMPI DUP5 DUP5 SUB DUP10 MSTORE DUP2 MLOAD PUSH2 0x1F60 DUP6 DUP3 PUSH2 0x1E67 JUMP JUMPDEST SWAP5 POP PUSH2 0x1F6B DUP4 PUSH2 0x259D JUMP JUMPDEST SWAP3 POP PUSH1 0x20 DUP11 ADD SWAP10 POP POP PUSH1 0x1 DUP2 ADD SWAP1 POP PUSH2 0x1F47 JUMP JUMPDEST POP DUP3 SWAP8 POP DUP8 SWAP6 POP POP POP POP POP POP SWAP3 SWAP2 POP POP JUMP JUMPDEST PUSH1 0x0 PUSH2 0x1F9C DUP3 PUSH2 0x256F JUMP JUMPDEST PUSH2 0x1FA6 DUP2 DUP6 PUSH2 0x25E6 JUMP JUMPDEST SWAP4 POP DUP4 PUSH1 0x20 DUP3 MUL DUP6 ADD PUSH2 0x1FB8 DUP6 PUSH2 0x2539 JUMP JUMPDEST DUP1 PUSH1 0x0 JUMPDEST DUP6 DUP2 LT ISZERO PUSH2 0x1FF4 JUMPI DUP5 DUP5 SUB DUP10 MSTORE DUP2 MLOAD PUSH2 0x1FD5 DUP6 DUP3 PUSH2 0x1E7B JUMP JUMPDEST SWAP5 POP PUSH2 0x1FE0 DUP4 PUSH2 0x25AA JUMP JUMPDEST SWAP3 POP PUSH1 0x20 DUP11 ADD SWAP10 POP POP PUSH1 0x1 DUP2 ADD SWAP1 POP PUSH2 0x1FBC JUMP JUMPDEST POP DUP3 SWAP8 POP DUP8 SWAP6 POP POP POP POP POP POP SWAP3 SWAP2 POP POP JUMP JUMPDEST PUSH1 0x0 PUSH2 0x2011 DUP3 PUSH2 0x257A JUMP JUMPDEST PUSH2 0x201B DUP2 DUP6 PUSH2 0x25F7 JUMP JUMPDEST SWAP4 POP PUSH2 0x2026 DUP4 PUSH2 0x2549 JUMP JUMPDEST DUP1 PUSH1 0x0 JUMPDEST DUP4 DUP2 LT ISZERO PUSH2 0x2057 JUMPI DUP2 MLOAD PUSH2 0x203E DUP9 DUP3 PUSH2 0x1E8F JUMP JUMPDEST SWAP8 POP PUSH2 0x2049 DUP4 PUSH2 0x25B7 JUMP JUMPDEST SWAP3 POP POP PUSH1 0x1 DUP2 ADD SWAP1 POP PUSH2 0x202A JUMP JUMPDEST POP DUP6 SWAP4 POP POP POP POP SWAP3 SWAP2 POP POP JUMP JUMPDEST PUSH1 0x0 PUSH2 0x2070 DUP4 DUP6 PUSH2 0x2619 JUMP JUMPDEST SWAP4 POP PUSH2 0x207D DUP4 DUP6 DUP5 PUSH2 0x262E JUMP JUMPDEST DUP3 DUP5 ADD SWAP1 POP SWAP4 SWAP3 POP POP POP JUMP JUMPDEST PUSH1 0x0 PUSH2 0x2094 DUP3 PUSH2 0x2585 JUMP JUMPDEST PUSH2 0x209E DUP2 DUP6 PUSH2 0x2608 JUMP JUMPDEST SWAP4 POP PUSH2 0x20AE DUP2 DUP6 PUSH1 0x20 DUP7 ADD PUSH2 0x263D JUMP JUMPDEST PUSH2 0x20B7 DUP2 PUSH2 0x27F6 JUMP JUMPDEST DUP5 ADD SWAP2 POP POP SWAP3 SWAP2 POP POP JUMP JUMPDEST PUSH1 0x0 PUSH2 0x20CD DUP3 PUSH2 0x2585 JUMP JUMPDEST PUSH2 0x20D7 DUP2 DUP6 PUSH2 0x2619 JUMP JUMPDEST SWAP4 POP PUSH2 0x20E7 DUP2 DUP6 PUSH1 0x20 DUP7 ADD PUSH2 0x263D JUMP JUMPDEST DUP1 DUP5 ADD SWAP2 POP POP SWAP3 SWAP2 POP POP JUMP JUMPDEST PUSH1 0x0 PUSH1 0xA0 DUP4 ADD PUSH1 0x0 DUP4 ADD MLOAD DUP5 DUP3 SUB PUSH1 0x0 DUP7 ADD MSTORE PUSH2 0x2110 DUP3 DUP3 PUSH2 0x2089 JUMP JUMPDEST SWAP2 POP POP PUSH1 0x20 DUP4 ADD MLOAD DUP5 DUP3 SUB PUSH1 0x20 DUP7 ADD MSTORE PUSH2 0x212A DUP3 DUP3 PUSH2 0x2089 JUMP JUMPDEST SWAP2 POP POP PUSH1 0x40 DUP4 ADD MLOAD DUP5 DUP3 SUB PUSH1 0x40 DUP7 ADD MSTORE PUSH2 0x2144 DUP3 DUP3 PUSH2 0x2089 JUMP JUMPDEST SWAP2 POP POP PUSH1 0x60 DUP4 ADD MLOAD PUSH2 0x2159 PUSH1 0x60 DUP7 ADD DUP3 PUSH2 0x2382 JUMP JUMPDEST POP PUSH1 0x80 DUP4 ADD MLOAD PUSH2 0x216C PUSH1 0x80 DUP7 ADD DUP3 PUSH2 0x2382 JUMP JUMPDEST POP DUP1 SWAP2 POP POP SWAP3 SWAP2 POP POP JUMP JUMPDEST PUSH1 0x0 PUSH1 0xA0 DUP4 ADD PUSH1 0x0 DUP4 ADD MLOAD DUP5 DUP3 SUB PUSH1 0x0 DUP7 ADD MSTORE PUSH2 0x2194 DUP3 DUP3 PUSH2 0x2089 JUMP JUMPDEST SWAP2 POP POP PUSH1 0x20 DUP4 ADD MLOAD DUP5 DUP3 SUB PUSH1 0x20 DUP7 ADD MSTORE PUSH2 0x21AE DUP3 DUP3 PUSH2 0x2089 JUMP JUMPDEST SWAP2 POP POP PUSH1 0x40 DUP4 ADD MLOAD DUP5 DUP3 SUB PUSH1 0x40 DUP7 ADD MSTORE PUSH2 0x21C8 DUP3 DUP3 PUSH2 0x2089 JUMP JUMPDEST SWAP2 POP POP PUSH1 0x60 DUP4 ADD MLOAD PUSH2 0x21DD PUSH1 0x60 DUP7 ADD DUP3 PUSH2 0x2382 JUMP JUMPDEST POP PUSH1 0x80 DUP4 ADD MLOAD PUSH2 0x21F0 PUSH1 0x80 DUP7 ADD DUP3 PUSH2 0x2382 JUMP JUMPDEST POP DUP1 SWAP2 POP POP SWAP3 SWAP2 POP POP JUMP JUMPDEST PUSH1 0x0 PUSH1 0x80 DUP4 ADD PUSH1 0x0 DUP4 ADD MLOAD DUP5 DUP3 SUB PUSH1 0x0 DUP7 ADD MSTORE PUSH2 0x2218 DUP3 DUP3 PUSH2 0x2089 JUMP JUMPDEST SWAP2 POP POP PUSH1 0x20 DUP4 ADD MLOAD DUP5 DUP3 SUB PUSH1 0x20 DUP7 ADD MSTORE PUSH2 0x2232 DUP3 DUP3 PUSH2 0x2089 JUMP JUMPDEST SWAP2 POP POP PUSH1 0x40 DUP4 ADD MLOAD PUSH2 0x2247 PUSH1 0x40 DUP7 ADD DUP3 PUSH2 0x2382 JUMP JUMPDEST POP PUSH1 0x60 DUP4 ADD MLOAD DUP5 DUP3 SUB PUSH1 0x60 DUP7 ADD MSTORE PUSH2 0x225F DUP3 DUP3 PUSH2 0x1EA7 JUMP JUMPDEST SWAP2 POP POP DUP1 SWAP2 POP POP SWAP3 SWAP2 POP POP JUMP JUMPDEST PUSH1 0x0 PUSH1 0xA0 DUP4 ADD PUSH1 0x0 DUP4 ADD MLOAD DUP5 DUP3 SUB PUSH1 0x0 DUP7 ADD MSTORE PUSH2 0x2289 DUP3 DUP3 PUSH2 0x2089 JUMP JUMPDEST SWAP2 POP POP PUSH1 0x20 DUP4 ADD MLOAD DUP5 DUP3 SUB PUSH1 0x20 DUP7 ADD MSTORE PUSH2 0x22A3 DUP3 DUP3 PUSH2 0x2089 JUMP JUMPDEST SWAP2 POP POP PUSH1 0x40 DUP4 ADD MLOAD DUP5 DUP3 SUB PUSH1 0x40 DUP7 ADD MSTORE PUSH2 0x22BD DUP3 DUP3 PUSH2 0x2089 JUMP JUMPDEST SWAP2 POP POP PUSH1 0x60 DUP4 ADD MLOAD DUP5 DUP3 SUB PUSH1 0x60 DUP7 ADD MSTORE PUSH2 0x22D7 DUP3 DUP3 PUSH2 0x2006 JUMP JUMPDEST SWAP2 POP POP PUSH1 0x80 DUP4 ADD MLOAD PUSH2 0x22EC PUSH1 0x80 DUP7 ADD DUP3 PUSH2 0x2382 JUMP JUMPDEST POP DUP1 SWAP2 POP POP SWAP3 SWAP2 POP POP JUMP JUMPDEST PUSH1 0x0 PUSH1 0xA0 DUP4 ADD PUSH1 0x0 DUP4 ADD MLOAD DUP5 DUP3 SUB PUSH1 0x0 DUP7 ADD MSTORE PUSH2 0x2314 DUP3 DUP3 PUSH2 0x2089 JUMP JUMPDEST SWAP2 POP POP PUSH1 0x20 DUP4 ADD MLOAD DUP5 DUP3 SUB PUSH1 0x20 DUP7 ADD MSTORE PUSH2 0x232E DUP3 DUP3 PUSH2 0x2089 JUMP JUMPDEST SWAP2 POP POP PUSH1 0x40 DUP4 ADD MLOAD DUP5 DUP3 SUB PUSH1 0x40 DUP7 ADD MSTORE PUSH2 0x2348 DUP3 DUP3 PUSH2 0x2089 JUMP JUMPDEST SWAP2 POP POP PUSH1 0x60 DUP4 ADD MLOAD DUP5 DUP3 SUB PUSH1 0x60 DUP7 ADD MSTORE PUSH2 0x2362 DUP3 DUP3 PUSH2 0x2006 JUMP JUMPDEST SWAP2 POP POP PUSH1 0x80 DUP4 ADD MLOAD PUSH2 0x2377 PUSH1 0x80 DUP7 ADD DUP3 PUSH2 0x2382 JUMP JUMPDEST POP DUP1 SWAP2 POP POP SWAP3 SWAP2 POP POP JUMP JUMPDEST PUSH2 0x238B DUP2 PUSH2 0x2624 JUMP JUMPDEST DUP3 MSTORE POP POP JUMP JUMPDEST PUSH1 0x0 PUSH2 0x239E DUP3 DUP5 DUP7 PUSH2 0x2064 JUMP JUMPDEST SWAP2 POP DUP2 SWAP1 POP SWAP4 SWAP3 POP POP POP JUMP JUMPDEST PUSH1 0x0 PUSH2 0x23B6 DUP3 DUP5 PUSH2 0x20C2 JUMP JUMPDEST SWAP2 POP DUP2 SWAP1 POP SWAP3 SWAP2 POP POP JUMP JUMPDEST PUSH1 0x0 PUSH1 0x20 DUP3 ADD SWAP1 POP DUP2 DUP2 SUB PUSH1 0x0 DUP4 ADD MSTORE PUSH2 0x23DB DUP2 DUP5 PUSH2 0x1F1C JUMP JUMPDEST SWAP1 POP SWAP3 SWAP2 POP POP JUMP JUMPDEST PUSH1 0x0 PUSH1 0x20 DUP3 ADD SWAP1 POP DUP2 DUP2 SUB PUSH1 0x0 DUP4 ADD MSTORE PUSH2 0x23FD DUP2 DUP5 PUSH2 0x1F91 JUMP JUMPDEST SWAP1 POP SWAP3 SWAP2 POP POP JUMP JUMPDEST PUSH1 0x0 PUSH1 0x20 DUP3 ADD SWAP1 POP DUP2 DUP2 SUB PUSH1 0x0 DUP4 ADD MSTORE PUSH2 0x241F DUP2 DUP5 PUSH2 0x2177 JUMP JUMPDEST SWAP1 POP SWAP3 SWAP2 POP POP JUMP JUMPDEST PUSH1 0x0 PUSH1 0x20 DUP3 ADD SWAP1 POP DUP2 DUP2 SUB PUSH1 0x0 DUP4 ADD MSTORE PUSH2 0x2441 DUP2 DUP5 PUSH2 0x21FB JUMP JUMPDEST SWAP1 POP SWAP3 SWAP2 POP POP JUMP JUMPDEST PUSH1 0x0 PUSH1 0x20 DUP3 ADD SWAP1 POP DUP2 DUP2 SUB PUSH1 0x0 DUP4 ADD MSTORE PUSH2 0x2463 DUP2 DUP5 PUSH2 0x22F7 JUMP JUMPDEST SWAP1 POP SWAP3 SWAP2 POP POP JUMP JUMPDEST PUSH1 0x0 PUSH2 0x2475 PUSH2 0x2486 JUMP JUMPDEST SWAP1 POP PUSH2 0x2481 DUP3 DUP3 PUSH2 0x26A2 JUMP JUMPDEST SWAP2 SWAP1 POP JUMP JUMPDEST PUSH1 0x0 PUSH1 0x40 MLOAD SWAP1 POP SWAP1 JUMP JUMPDEST PUSH1 0x0 PUSH8 0xFFFFFFFFFFFFFFFF DUP3 GT ISZERO PUSH2 0x24AB JUMPI PUSH2 0x24AA PUSH2 0x27A9 JUMP JUMPDEST JUMPDEST PUSH1 0x20 DUP3 MUL SWAP1 POP PUSH1 0x20 DUP2 ADD SWAP1 POP SWAP2 SWAP1 POP JUMP JUMPDEST PUSH1 0x0 PUSH8 0xFFFFFFFFFFFFFFFF DUP3 GT ISZERO PUSH2 0x24D7 JUMPI PUSH2 0x24D6 PUSH2 0x27A9 JUMP JUMPDEST JUMPDEST PUSH1 0x20 DUP3 MUL SWAP1 POP PUSH1 0x20 DUP2 ADD SWAP1 POP SWAP2 SWAP1 POP JUMP JUMPDEST PUSH1 0x0 PUSH8 0xFFFFFFFFFFFFFFFF DUP3 GT ISZERO PUSH2 0x2503 JUMPI PUSH2 0x2502 PUSH2 0x27A9 JUMP JUMPDEST JUMPDEST PUSH2 0x250C DUP3 PUSH2 0x27F6 JUMP JUMPDEST SWAP1 POP PUSH1 0x20 DUP2 ADD SWAP1 POP SWAP2 SWAP1 POP JUMP JUMPDEST PUSH1 0x0 DUP2 SWAP1 POP PUSH1 0x20 DUP3 ADD SWAP1 POP SWAP2 SWAP1 POP JUMP JUMPDEST PUSH1 0x0 DUP2 SWAP1 POP PUSH1 0x20 DUP3 ADD SWAP1 POP SWAP2 SWAP1 POP JUMP JUMPDEST PUSH1 0x0 DUP2 SWAP1 POP PUSH1 0x20 DUP3 ADD SWAP1 POP SWAP2 SWAP1 POP JUMP JUMPDEST PUSH1 0x0 DUP2 SWAP1 POP PUSH1 0x20 DUP3 ADD SWAP1 POP SWAP2 SWAP1 POP JUMP JUMPDEST PUSH1 0x0 DUP2 MLOAD SWAP1 POP SWAP2 SWAP1 POP JUMP JUMPDEST PUSH1 0x0 DUP2 MLOAD SWAP1 POP SWAP2 SWAP1 POP JUMP JUMPDEST PUSH1 0x0 DUP2 MLOAD SWAP1 POP SWAP2 SWAP1 POP JUMP JUMPDEST PUSH1 0x0 DUP2 MLOAD SWAP1 POP SWAP2 SWAP1 POP JUMP JUMPDEST PUSH1 0x0 DUP2 MLOAD SWAP1 POP SWAP2 SWAP1 POP JUMP JUMPDEST PUSH1 0x0 PUSH1 0x20 DUP3 ADD SWAP1 POP SWAP2 SWAP1 POP JUMP JUMPDEST PUSH1 0x0 PUSH1 0x20 DUP3 ADD SWAP1 POP SWAP2 SWAP1 POP JUMP JUMPDEST PUSH1 0x0 PUSH1 0x20 DUP3 ADD SWAP1 POP SWAP2 SWAP1 POP JUMP JUMPDEST PUSH1 0x0 PUSH1 0x20 DUP3 ADD SWAP1 POP SWAP2 SWAP1 POP JUMP JUMPDEST PUSH1 0x0 DUP3 DUP3 MSTORE PUSH1 0x20 DUP3 ADD SWAP1 POP SWAP3 SWAP2 POP POP JUMP JUMPDEST PUSH1 0x0 DUP3 DUP3 MSTORE PUSH1 0x20 DUP3 ADD SWAP1 POP SWAP3 SWAP2 POP POP JUMP JUMPDEST PUSH1 0x0 DUP3 DUP3 MSTORE PUSH1 0x20 DUP3 ADD SWAP1 POP SWAP3 SWAP2 POP POP JUMP JUMPDEST PUSH1 0x0 DUP3 DUP3 MSTORE PUSH1 0x20 DUP3 ADD SWAP1 POP SWAP3 SWAP2 POP POP JUMP JUMPDEST PUSH1 0x0 DUP3 DUP3 MSTORE PUSH1 0x20 DUP3 ADD SWAP1 POP SWAP3 SWAP2 POP POP JUMP JUMPDEST PUSH1 0x0 DUP2 SWAP1 POP SWAP3 SWAP2 POP POP JUMP JUMPDEST PUSH1 0x0 DUP2 SWAP1 POP SWAP2 SWAP1 POP JUMP JUMPDEST DUP3 DUP2 DUP4 CALLDATACOPY PUSH1 0x0 DUP4 DUP4 ADD MSTORE POP POP POP JUMP JUMPDEST PUSH1 0x0 JUMPDEST DUP4 DUP2 LT ISZERO PUSH2 0x265B JUMPI DUP1 DUP3 ADD MLOAD DUP2 DUP5 ADD MSTORE PUSH1 0x20 DUP2 ADD SWAP1 POP PUSH2 0x2640 JUMP JUMPDEST DUP4 DUP2 GT ISZERO PUSH2 0x266A JUMPI PUSH1 0x0 DUP5 DUP5 ADD MSTORE JUMPDEST POP POP POP POP JUMP JUMPDEST PUSH1 0x0 PUSH1 0x2 DUP3 DIV SWAP1 POP PUSH1 0x1 DUP3 AND DUP1 PUSH2 0x2688 JUMPI PUSH1 0x7F DUP3 AND SWAP2 POP JUMPDEST PUSH1 0x20 DUP3 LT DUP2 EQ ISZERO PUSH2 0x269C JUMPI PUSH2 0x269B PUSH2 0x274B JUMP JUMPDEST JUMPDEST POP SWAP2 SWAP1 POP JUMP JUMPDEST PUSH2 0x26AB DUP3 PUSH2 0x27F6 JUMP JUMPDEST DUP2 ADD DUP2 DUP2 LT PUSH8 0xFFFFFFFFFFFFFFFF DUP3 GT OR ISZERO PUSH2 0x26CA JUMPI PUSH2 0x26C9 PUSH2 0x27A9 JUMP JUMPDEST JUMPDEST DUP1 PUSH1 0x40 MSTORE POP POP POP JUMP JUMPDEST PUSH1 0x0 PUSH2 0x26DE DUP3 PUSH2 0x2624 JUMP JUMPDEST SWAP2 POP PUSH32 0xFFFFFFFFFFFFFFFFFFFFFFFFFFFFFFFFFFFFFFFFFFFFFFFFFFFFFFFFFFFFFFFF DUP3 EQ ISZERO PUSH2 0x2711 JUMPI PUSH2 0x2710 PUSH2 0x271C JUMP JUMPDEST JUMPDEST PUSH1 0x1 DUP3 ADD SWAP1 POP SWAP2 SWAP1 POP JUMP JUMPDEST PUSH32 0x4E487B7100000000000000000000000000000000000000000000000000000000 PUSH1 0x0 MSTORE PUSH1 0x11 PUSH1 0x4 MSTORE PUSH1 0x24 PUSH1 0x0 REVERT JUMPDEST PUSH32 0x4E487B7100000000000000000000000000000000000000000000000000000000 PUSH1 0x0 MSTORE PUSH1 0x22 PUSH1 0x4 MSTORE PUSH1 0x24 PUSH1 0x0 REVERT JUMPDEST PUSH32 0x4E487B7100000000000000000000000000000000000000000000000000000000 PUSH1 0x0 MSTORE PUSH1 0x32 PUSH1 0x4 MSTORE PUSH1 0x24 PUSH1 0x0 REVERT JUMPDEST PUSH32 0x4E487B7100000000000000000000000000000000000000000000000000000000 PUSH1 0x0 MSTORE PUSH1 0x41 PUSH1 0x4 MSTORE PUSH1 0x24 PUSH1 0x0 REVERT JUMPDEST PUSH1 0x0 DUP1 REVERT JUMPDEST PUSH1 0x0 DUP1 REVERT JUMPDEST PUSH1 0x0 DUP1 REVERT JUMPDEST PUSH1 0x0 DUP1 REVERT JUMPDEST PUSH1 0x0 DUP1 REVERT JUMPDEST PUSH1 0x0 DUP1 REVERT JUMPDEST PUSH1 0x0 PUSH1 0x1F NOT PUSH1 0x1F DUP4 ADD AND SWAP1 POP SWAP2 SWAP1 POP JUMP JUMPDEST PUSH2 0x2810 DUP2 PUSH2 0x2624 JUMP JUMPDEST DUP2 EQ PUSH2 0x281B JUMPI PUSH1 0x0 DUP1 REVERT JUMPDEST POP JUMP INVALID LOG2 PUSH5 0x6970667358 0x22 SLT KECCAK256 PUSH3 0x9088CA SAR PUSH25 0xCD8841412C7EEDD43912EA5015E13CC73447DDE938AD8E01 GT PUSH5 0x736F6C6343 STOP ADDMOD MOD STOP CALLER "
		},
		"gasEstimates": {
			"creation": {
				"codeDepositCost": "2064800",
				"executionCost": "2192",
				"totalCost": "2066992"
			},
			"external": {
				"addCountry(string,string,string,uint256,uint256)": "infinite",
				"addLGA(string,string,string,string,uint256,string[])": "infinite",
				"addState(string,string,string,string,uint256[],uint256)": "infinite",
				"addVillage(string,string,string,string,string[],uint256[],string[])": "infinite",
				"seeAllCountries(string[])": "infinite",
				"seeAllStatesInCountry(string,string[])": "infinite",
				"seeCountry(string)": "infinite",
				"seeLGA(string,string,string)": "infinite",
				"seeState(string,string)": "infinite"
			}
		},
		"methodIdentifiers": {
			"addCountry(string,string,string,uint256,uint256)": "ae1f81e4",
			"addLGA(string,string,string,string,uint256,string[])": "e027eb51",
			"addState(string,string,string,string,uint256[],uint256)": "40d48950",
			"addVillage(string,string,string,string,string[],uint256[],string[])": "0e411dc2",
			"seeAllCountries(string[])": "d0e067ea",
			"seeAllStatesInCountry(string,string[])": "105e24ec",
			"seeCountry(string)": "30705565",
			"seeLGA(string,string,string)": "7d31f1ee",
			"seeState(string,string)": "b3fde2b1"
		}
	},
	"abi": [
		{
			"inputs": [
				{
					"internalType": "string",
					"name": "_cn",
					"type": "string"
				},
				{
					"internalType": "string",
					"name": "_p",
					"type": "string"
				},
				{
					"internalType": "string",
					"name": "_c",
					"type": "string"
				},
				{
					"internalType": "uint256",
					"name": "_gdp",
					"type": "uint256"
				},
				{
					"internalType": "uint256",
					"name": "_cR",
					"type": "uint256"
				}
			],
			"name": "addCountry",
			"outputs": [],
			"stateMutability": "nonpayable",
			"type": "function"
		},
		{
			"inputs": [
				{
					"internalType": "string",
					"name": "_cn",
					"type": "string"
				},
				{
					"internalType": "string",
					"name": "_st",
					"type": "string"
				},
				{
					"internalType": "string",
					"name": "_lg",
					"type": "string"
				},
				{
					"internalType": "string",
					"name": "_chairman",
					"type": "string"
				},
				{
					"internalType": "uint256",
					"name": "_Revenue",
					"type": "uint256"
				},
				{
					"internalType": "string[]",
					"name": "_markets",
					"type": "string[]"
				}
			],
			"name": "addLGA",
			"outputs": [],
			"stateMutability": "nonpayable",
			"type": "function"
		},
		{
			"inputs": [
				{
					"internalType": "string",
					"name": "_state",
					"type": "string"
				},
				{
					"internalType": "string",
					"name": "_cn",
					"type": "string"
				},
				{
					"internalType": "string",
					"name": "_governor",
					"type": "string"
				},
				{
					"internalType": "string",
					"name": "_capital",
					"type": "string"
				},
				{
					"internalType": "uint256[]",
					"name": "_zipCodes",
					"type": "uint256[]"
				},
				{
					"internalType": "uint256",
					"name": "_IGR",
					"type": "uint256"
				}
			],
			"name": "addState",
			"outputs": [],
			"stateMutability": "nonpayable",
			"type": "function"
		},
		{
			"inputs": [
				{
					"internalType": "string",
					"name": "_cn",
					"type": "string"
				},
				{
					"internalType": "string",
					"name": "_st",
					"type": "string"
				},
				{
					"internalType": "string",
					"name": "_lg",
					"type": "string"
				},
				{
					"internalType": "string",
					"name": "_v",
					"type": "string"
				},
				{
					"internalType": "string[]",
					"name": "_elders",
					"type": "string[]"
				},
				{
					"internalType": "uint256[]",
					"name": "_cmc",
					"type": "uint256[]"
				},
				{
					"internalType": "string[]",
					"name": "_ass",
					"type": "string[]"
				}
			],
			"name": "addVillage",
			"outputs": [],
			"stateMutability": "nonpayable",
			"type": "function"
		},
		{
			"inputs": [
				{
					"internalType": "string[]",
					"name": "_cn",
					"type": "string[]"
				}
			],
			"name": "seeAllCountries",
			"outputs": [
				{
					"components": [
						{
							"internalType": "string",
							"name": "countryName",
							"type": "string"
						},
						{
							"internalType": "string",
							"name": "president",
							"type": "string"
						},
						{
							"internalType": "string",
							"name": "capital",
							"type": "string"
						},
						{
							"internalType": "uint256",
							"name": "GDP",
							"type": "uint256"
						},
						{
							"internalType": "uint256",
							"name": "countryRevenue",
							"type": "uint256"
						}
					],
					"internalType": "struct CountryDB.CountryWithoutStates[]",
					"name": "c",
					"type": "tuple[]"
				}
			],
			"stateMutability": "view",
			"type": "function"
		},
		{
			"inputs": [
				{
					"internalType": "string",
					"name": "_cn",
					"type": "string"
				},
				{
					"internalType": "string[]",
					"name": "_st",
					"type": "string[]"
				}
			],
			"name": "seeAllStatesInCountry",
			"outputs": [
				{
					"components": [
						{
							"internalType": "string",
							"name": "stateName",
							"type": "string"
						},
						{
							"internalType": "string",
							"name": "governor",
							"type": "string"
						},
						{
							"internalType": "string",
							"name": "capital",
							"type": "string"
						},
						{
							"internalType": "uint256[]",
							"name": "zipCodes",
							"type": "uint256[]"
						},
						{
							"internalType": "uint256",
							"name": "IGR",
							"type": "uint256"
						}
					],
					"internalType": "struct CountryDB.StateWithoutmapping[]",
					"name": "st",
					"type": "tuple[]"
				}
			],
			"stateMutability": "view",
			"type": "function"
		},
		{
			"inputs": [
				{
					"internalType": "string",
					"name": "_cn",
					"type": "string"
				}
			],
			"name": "seeCountry",
			"outputs": [
				{
					"components": [
						{
							"internalType": "string",
							"name": "countryName",
							"type": "string"
						},
						{
							"internalType": "string",
							"name": "president",
							"type": "string"
						},
						{
							"internalType": "string",
							"name": "capital",
							"type": "string"
						},
						{
							"internalType": "uint256",
							"name": "GDP",
							"type": "uint256"
						},
						{
							"internalType": "uint256",
							"name": "countryRevenue",
							"type": "uint256"
						}
					],
					"internalType": "struct CountryDB.CountryWithoutStates",
					"name": "c",
					"type": "tuple"
				}
			],
			"stateMutability": "view",
			"type": "function"
		},
		{
			"inputs": [
				{
					"internalType": "string",
					"name": "_lg",
					"type": "string"
				},
				{
					"internalType": "string",
					"name": "_st",
					"type": "string"
				},
				{
					"internalType": "string",
					"name": "_cn",
					"type": "string"
				}
			],
			"name": "seeLGA",
			"outputs": [
				{
					"components": [
						{
							"internalType": "string",
							"name": "lgaName",
							"type": "string"
						},
						{
							"internalType": "string",
							"name": "Chairman",
							"type": "string"
						},
						{
							"internalType": "uint256",
							"name": "Revenue",
							"type": "uint256"
						},
						{
							"internalType": "string[]",
							"name": "markets",
							"type": "string[]"
						}
					],
					"internalType": "struct CountryDB.LGAWithoutMapping",
					"name": "lg",
					"type": "tuple"
				}
			],
			"stateMutability": "view",
			"type": "function"
		},
		{
			"inputs": [
				{
					"internalType": "string",
					"name": "_st",
					"type": "string"
				},
				{
					"internalType": "string",
					"name": "_c",
					"type": "string"
				}
			],
			"name": "seeState",
			"outputs": [
				{
					"components": [
						{
							"internalType": "string",
							"name": "stateName",
							"type": "string"
						},
						{
							"internalType": "string",
							"name": "governor",
							"type": "string"
						},
						{
							"internalType": "string",
							"name": "capital",
							"type": "string"
						},
						{
							"internalType": "uint256[]",
							"name": "zipCodes",
							"type": "uint256[]"
						},
						{
							"internalType": "uint256",
							"name": "IGR",
							"type": "uint256"
						}
					],
					"internalType": "struct CountryDB.StateWithoutmapping",
					"name": "s",
					"type": "tuple"
				}
			],
			"stateMutability": "view",
			"type": "function"
		}
	]
}