{
	"data": {
		"bytecode": {
			"linkReferences": {},
			"object": "608060405234801561001057600080fd5b50611a2e806100206000396000f3fe608060405234801561001057600080fd5b50600436106100625760003560e01c8063307055651461006757806340d48950146100975780637d31f1ee146100b3578063ae1f81e4146100e3578063b3fde2b1146100ff578063e027eb511461012f575b600080fd5b610081600480360381019061007c9190610f3d565b61014b565b60405161008e91906116f8565b60405180910390f35b6100b160048036038101906100ac91906110bf565b610358565b005b6100cd60048036038101906100c8919061100b565b610407565b6040516100da919061171a565b60405180910390f35b6100fd60048036038101906100f89190611317565b610693565b005b61011960048036038101906101149190610f8a565b61070f565b604051610126919061173c565b60405180910390f35b610149600480360381019061014491906111eb565b61098c565b005b610153610a48565b60008084846040516101669291906116df565b90815260200160405180910390209050806000018054610185906118f1565b80601f01602080910402602001604051908101604052809291908181526020018280546101b1906118f1565b80156101fe5780601f106101d3576101008083540402835291602001916101fe565b820191906000526020600020905b8154815290600101906020018083116101e157829003601f168201915b5050505050826000018190525080600101805461021a906118f1565b80601f0160208091040260200160405190810160405280929190818152602001828054610246906118f1565b80156102935780601f1061026857610100808354040283529160200191610293565b820191906000526020600020905b81548152906001019060200180831161027657829003601f168201915b505050505082602001819052508060020180546102af906118f1565b80601f01602080910402602001604051908101604052809291908181526020018280546102db906118f1565b80156103285780601f106102fd57610100808354040283529160200191610328565b820191906000526020600020905b81548152906001019060200180831161030b57829003601f168201915b50505050508260400181905250806003015482606001818152505080600401548260800181815250505092915050565b600080898960405161036b9291906116df565b90815260200160405180910390206005018b8b60405161038c9291906116df565b908152602001604051809103902090508a8a8260000191906103af929190610a77565b5086868260010191906103c3929190610a77565b5084848260020191906103d7929190610a77565b50828160030190805190602001906103f0929190610afd565b508181600401819055505050505050505050505050565b61040f610b4a565b60008084846040516104229291906116df565b908152602001604051809103902060050186866040516104439291906116df565b908152602001604051809103902060050188886040516104649291906116df565b90815260200160405180910390209050806000018054610483906118f1565b80601f01602080910402602001604051908101604052809291908181526020018280546104af906118f1565b80156104fc5780601f106104d1576101008083540402835291602001916104fc565b820191906000526020600020905b8154815290600101906020018083116104df57829003601f168201915b50505050508260000181905250806001018054610518906118f1565b80601f0160208091040260200160405190810160405280929190818152602001828054610544906118f1565b80156105915780601f1061056657610100808354040283529160200191610591565b820191906000526020600020905b81548152906001019060200180831161057457829003601f168201915b50505050508260200181905250806002015482604001818152505080600301805480602002602001604051908101604052809291908181526020016000905b8282101561067c5783829060005260206000200180546105ef906118f1565b80601f016020809104026020016040519081016040528092919081815260200182805461061b906118f1565b80156106685780601f1061063d57610100808354040283529160200191610668565b820191906000526020600020905b81548152906001019060200180831161064b57829003601f168201915b5050505050815260200190600101906105d0565b505050508260600181905250509695505050505050565b60008089896040516106a69291906116df565b9081526020016040518091039020905088888260000191906106c9929190610a77565b5086868260010191906106dd929190610a77565b5084848260020191906106f1929190610a77565b50828160030181905550818160040181905550505050505050505050565b610717610b72565b600080848460405161072a9291906116df565b9081526020016040518091039020600501868660405161074b9291906116df565b9081526020016040518091039020905080600001805461076a906118f1565b80601f0160208091040260200160405190810160405280929190818152602001828054610796906118f1565b80156107e35780601f106107b8576101008083540402835291602001916107e3565b820191906000526020600020905b8154815290600101906020018083116107c657829003601f168201915b505050505082600001819052508060010180546107ff906118f1565b80601f016020809104026020016040519081016040528092919081815260200182805461082b906118f1565b80156108785780601f1061084d57610100808354040283529160200191610878565b820191906000526020600020905b81548152906001019060200180831161085b57829003601f168201915b50505050508260200181905250806002018054610894906118f1565b80601f01602080910402602001604051908101604052809291908181526020018280546108c0906118f1565b801561090d5780601f106108e25761010080835404028352916020019161090d565b820191906000526020600020905b8154815290600101906020018083116108f057829003601f168201915b505050505082604001819052508060030180548060200260200160405190810160405280929190818152602001828054801561096857602002820191906000526020600020905b815481526020019060010190808311610954575b50505050508260600181905250806004015482608001818152505050949350505050565b6000808b8b60405161099f9291906116df565b908152602001604051809103902060050189896040516109c09291906116df565b908152602001604051809103902060050187876040516109e19291906116df565b908152602001604051809103902090508686826000019190610a04929190610a77565b508484826001019190610a18929190610a77565b5082816002018190555081816003019080519060200190610a3a929190610ba1565b505050505050505050505050565b6040518060a0016040528060608152602001606081526020016060815260200160008152602001600081525090565b828054610a83906118f1565b90600052602060002090601f016020900481019282610aa55760008555610aec565b82601f10610abe57803560ff1916838001178555610aec565b82800160010185558215610aec579182015b82811115610aeb578235825591602001919060010190610ad0565b5b509050610af99190610c01565b5090565b828054828255906000526020600020908101928215610b39579160200282015b82811115610b38578251825591602001919060010190610b1d565b5b509050610b469190610c01565b5090565b6040518060800160405280606081526020016060815260200160008152602001606081525090565b6040518060a0016040528060608152602001606081526020016060815260200160608152602001600081525090565b828054828255906000526020600020908101928215610bf0579160200282015b82811115610bef578251829080519060200190610bdf929190610c1e565b5091602001919060010190610bc1565b5b509050610bfd9190610ca4565b5090565b5b80821115610c1a576000816000905550600101610c02565b5090565b828054610c2a906118f1565b90600052602060002090601f016020900481019282610c4c5760008555610c93565b82601f10610c6557805160ff1916838001178555610c93565b82800160010185558215610c93579182015b82811115610c92578251825591602001919060010190610c77565b5b509050610ca09190610c01565b5090565b5b80821115610cc45760008181610cbb9190610cc8565b50600101610ca5565b5090565b508054610cd4906118f1565b6000825580601f10610ce65750610d05565b601f016020900490600052602060002090810190610d049190610c01565b5b50565b6000610d1b610d1684611783565b61175e565b90508083825260208201905082856020860282011115610d3e57610d3d6119bc565b5b60005b85811015610d8c57813567ffffffffffffffff811115610d6457610d636119b7565b5b808601610d718982610efa565b85526020850194506020840193505050600181019050610d41565b5050509392505050565b6000610da9610da4846117af565b61175e565b90508083825260208201905082856020860282011115610dcc57610dcb6119bc565b5b60005b85811015610dfc5781610de28882610f28565b845260208401935060208301925050600181019050610dcf565b5050509392505050565b6000610e19610e14846117db565b61175e565b905082815260208101848484011115610e3557610e346119c1565b5b610e408482856118af565b509392505050565b600082601f830112610e5d57610e5c6119b7565b5b8135610e6d848260208601610d08565b91505092915050565b600082601f830112610e8b57610e8a6119b7565b5b8135610e9b848260208601610d96565b91505092915050565b60008083601f840112610eba57610eb96119b7565b5b8235905067ffffffffffffffff811115610ed757610ed66119b2565b5b602083019150836001820283011115610ef357610ef26119bc565b5b9250929050565b600082601f830112610f0f57610f0e6119b7565b5b8135610f1f848260208601610e06565b91505092915050565b600081359050610f37816119e1565b92915050565b60008060208385031215610f5457610f536119cb565b5b600083013567ffffffffffffffff811115610f7257610f716119c6565b5b610f7e85828601610ea4565b92509250509250929050565b60008060008060408587031215610fa457610fa36119cb565b5b600085013567ffffffffffffffff811115610fc257610fc16119c6565b5b610fce87828801610ea4565b9450945050602085013567ffffffffffffffff811115610ff157610ff06119c6565b5b610ffd87828801610ea4565b925092505092959194509250565b60008060008060008060608789031215611028576110276119cb565b5b600087013567ffffffffffffffff811115611046576110456119c6565b5b61105289828a01610ea4565b9650965050602087013567ffffffffffffffff811115611075576110746119c6565b5b61108189828a01610ea4565b9450945050604087013567ffffffffffffffff8111156110a4576110a36119c6565b5b6110b089828a01610ea4565b92509250509295509295509295565b60008060008060008060008060008060c08b8d0312156110e2576110e16119cb565b5b60008b013567ffffffffffffffff811115611100576110ff6119c6565b5b61110c8d828e01610ea4565b9a509a505060208b013567ffffffffffffffff81111561112f5761112e6119c6565b5b61113b8d828e01610ea4565b985098505060408b013567ffffffffffffffff81111561115e5761115d6119c6565b5b61116a8d828e01610ea4565b965096505060608b013567ffffffffffffffff81111561118d5761118c6119c6565b5b6111998d828e01610ea4565b945094505060808b013567ffffffffffffffff8111156111bc576111bb6119c6565b5b6111c88d828e01610e76565b92505060a06111d98d828e01610f28565b9150509295989b9194979a5092959850565b60008060008060008060008060008060c08b8d03121561120e5761120d6119cb565b5b60008b013567ffffffffffffffff81111561122c5761122b6119c6565b5b6112388d828e01610ea4565b9a509a505060208b013567ffffffffffffffff81111561125b5761125a6119c6565b5b6112678d828e01610ea4565b985098505060408b013567ffffffffffffffff81111561128a576112896119c6565b5b6112968d828e01610ea4565b965096505060608b013567ffffffffffffffff8111156112b9576112b86119c6565b5b6112c58d828e01610ea4565b945094505060806112d88d828e01610f28565b92505060a08b013567ffffffffffffffff8111156112f9576112f86119c6565b5b6113058d828e01610e48565b9150509295989b9194979a5092959850565b60008060008060008060008060a0898b031215611337576113366119cb565b5b600089013567ffffffffffffffff811115611355576113546119c6565b5b6113618b828c01610ea4565b9850985050602089013567ffffffffffffffff811115611384576113836119c6565b5b6113908b828c01610ea4565b9650965050604089013567ffffffffffffffff8111156113b3576113b26119c6565b5b6113bf8b828c01610ea4565b945094505060606113d28b828c01610f28565b92505060806113e38b828c01610f28565b9150509295985092959890939650565b60006113ff8383611517565b905092915050565b600061141383836116d0565b60208301905092915050565b600061142a8261182c565b6114348185611867565b9350836020820285016114468561180c565b8060005b85811015611482578484038952815161146385826113f3565b945061146e8361184d565b925060208a0199505060018101905061144a565b50829750879550505050505092915050565b600061149f82611837565b6114a98185611878565b93506114b48361181c565b8060005b838110156114e55781516114cc8882611407565b97506114d78361185a565b9250506001810190506114b8565b5085935050505092915050565b60006114fe838561189a565b935061150b8385846118af565b82840190509392505050565b600061152282611842565b61152c8185611889565b935061153c8185602086016118be565b611545816119d0565b840191505092915050565b600060a083016000830151848203600086015261156d8282611517565b915050602083015184820360208601526115878282611517565b915050604083015184820360408601526115a18282611517565b91505060608301516115b660608601826116d0565b5060808301516115c960808601826116d0565b508091505092915050565b600060808301600083015184820360008601526115f18282611517565b9150506020830151848203602086015261160b8282611517565b915050604083015161162060408601826116d0565b5060608301518482036060860152611638828261141f565b9150508091505092915050565b600060a08301600083015184820360008601526116628282611517565b9150506020830151848203602086015261167c8282611517565b915050604083015184820360408601526116968282611517565b915050606083015184820360608601526116b08282611494565b91505060808301516116c560808601826116d0565b508091505092915050565b6116d9816118a5565b82525050565b60006116ec8284866114f2565b91508190509392505050565b600060208201905081810360008301526117128184611550565b905092915050565b6000602082019050818103600083015261173481846115d4565b905092915050565b600060208201905081810360008301526117568184611645565b905092915050565b6000611768611779565b90506117748282611923565b919050565b6000604051905090565b600067ffffffffffffffff82111561179e5761179d611983565b5b602082029050602081019050919050565b600067ffffffffffffffff8211156117ca576117c9611983565b5b602082029050602081019050919050565b600067ffffffffffffffff8211156117f6576117f5611983565b5b6117ff826119d0565b9050602081019050919050565b6000819050602082019050919050565b6000819050602082019050919050565b600081519050919050565b600081519050919050565b600081519050919050565b6000602082019050919050565b6000602082019050919050565b600082825260208201905092915050565b600082825260208201905092915050565b600082825260208201905092915050565b600081905092915050565b6000819050919050565b82818337600083830152505050565b60005b838110156118dc5780820151818401526020810190506118c1565b838111156118eb576000848401525b50505050565b6000600282049050600182168061190957607f821691505b6020821081141561191d5761191c611954565b5b50919050565b61192c826119d0565b810181811067ffffffffffffffff8211171561194b5761194a611983565b5b80604052505050565b7f4e487b7100000000000000000000000000000000000000000000000000000000600052602260045260246000fd5b7f4e487b7100000000000000000000000000000000000000000000000000000000600052604160045260246000fd5b600080fd5b600080fd5b600080fd5b600080fd5b600080fd5b600080fd5b6000601f19601f8301169050919050565b6119ea816118a5565b81146119f557600080fd5b5056fea264697066735822122092418b874853f0a6c0f61c7eddf516c8748e8f3f472edd6945f576d91e47f1eb64736f6c63430008060033",
			"opcodes": "PUSH1 0x80 PUSH1 0x40 MSTORE CALLVALUE DUP1 ISZERO PUSH2 0x10 JUMPI PUSH1 0x0 DUP1 REVERT JUMPDEST POP PUSH2 0x1A2E DUP1 PUSH2 0x20 PUSH1 0x0 CODECOPY PUSH1 0x0 RETURN INVALID PUSH1 0x80 PUSH1 0x40 MSTORE CALLVALUE DUP1 ISZERO PUSH2 0x10 JUMPI PUSH1 0x0 DUP1 REVERT JUMPDEST POP PUSH1 0x4 CALLDATASIZE LT PUSH2 0x62 JUMPI PUSH1 0x0 CALLDATALOAD PUSH1 0xE0 SHR DUP1 PUSH4 0x30705565 EQ PUSH2 0x67 JUMPI DUP1 PUSH4 0x40D48950 EQ PUSH2 0x97 JUMPI DUP1 PUSH4 0x7D31F1EE EQ PUSH2 0xB3 JUMPI DUP1 PUSH4 0xAE1F81E4 EQ PUSH2 0xE3 JUMPI DUP1 PUSH4 0xB3FDE2B1 EQ PUSH2 0xFF JUMPI DUP1 PUSH4 0xE027EB51 EQ PUSH2 0x12F JUMPI JUMPDEST PUSH1 0x0 DUP1 REVERT JUMPDEST PUSH2 0x81 PUSH1 0x4 DUP1 CALLDATASIZE SUB DUP2 ADD SWAP1 PUSH2 0x7C SWAP2 SWAP1 PUSH2 0xF3D JUMP JUMPDEST PUSH2 0x14B JUMP JUMPDEST PUSH1 0x40 MLOAD PUSH2 0x8E SWAP2 SWAP1 PUSH2 0x16F8 JUMP JUMPDEST PUSH1 0x40 MLOAD DUP1 SWAP2 SUB SWAP1 RETURN JUMPDEST PUSH2 0xB1 PUSH1 0x4 DUP1 CALLDATASIZE SUB DUP2 ADD SWAP1 PUSH2 0xAC SWAP2 SWAP1 PUSH2 0x10BF JUMP JUMPDEST PUSH2 0x358 JUMP JUMPDEST STOP JUMPDEST PUSH2 0xCD PUSH1 0x4 DUP1 CALLDATASIZE SUB DUP2 ADD SWAP1 PUSH2 0xC8 SWAP2 SWAP1 PUSH2 0x100B JUMP JUMPDEST PUSH2 0x407 JUMP JUMPDEST PUSH1 0x40 MLOAD PUSH2 0xDA SWAP2 SWAP1 PUSH2 0x171A JUMP JUMPDEST PUSH1 0x40 MLOAD DUP1 SWAP2 SUB SWAP1 RETURN JUMPDEST PUSH2 0xFD PUSH1 0x4 DUP1 CALLDATASIZE SUB DUP2 ADD SWAP1 PUSH2 0xF8 SWAP2 SWAP1 PUSH2 0x1317 JUMP JUMPDEST PUSH2 0x693 JUMP JUMPDEST STOP JUMPDEST PUSH2 0x119 PUSH1 0x4 DUP1 CALLDATASIZE SUB DUP2 ADD SWAP1 PUSH2 0x114 SWAP2 SWAP1 PUSH2 0xF8A JUMP JUMPDEST PUSH2 0x70F JUMP JUMPDEST PUSH1 0x40 MLOAD PUSH2 0x126 SWAP2 SWAP1 PUSH2 0x173C JUMP JUMPDEST PUSH1 0x40 MLOAD DUP1 SWAP2 SUB SWAP1 RETURN JUMPDEST PUSH2 0x149 PUSH1 0x4 DUP1 CALLDATASIZE SUB DUP2 ADD SWAP1 PUSH2 0x144 SWAP2 SWAP1 PUSH2 0x11EB JUMP JUMPDEST PUSH2 0x98C JUMP JUMPDEST STOP JUMPDEST PUSH2 0x153 PUSH2 0xA48 JUMP JUMPDEST PUSH1 0x0 DUP1 DUP5 DUP5 PUSH1 0x40 MLOAD PUSH2 0x166 SWAP3 SWAP2 SWAP1 PUSH2 0x16DF JUMP JUMPDEST SWAP1 DUP2 MSTORE PUSH1 0x20 ADD PUSH1 0x40 MLOAD DUP1 SWAP2 SUB SWAP1 KECCAK256 SWAP1 POP DUP1 PUSH1 0x0 ADD DUP1 SLOAD PUSH2 0x185 SWAP1 PUSH2 0x18F1 JUMP JUMPDEST DUP1 PUSH1 0x1F ADD PUSH1 0x20 DUP1 SWAP2 DIV MUL PUSH1 0x20 ADD PUSH1 0x40 MLOAD SWAP1 DUP2 ADD PUSH1 0x40 MSTORE DUP1 SWAP3 SWAP2 SWAP1 DUP2 DUP2 MSTORE PUSH1 0x20 ADD DUP3 DUP1 SLOAD PUSH2 0x1B1 SWAP1 PUSH2 0x18F1 JUMP JUMPDEST DUP1 ISZERO PUSH2 0x1FE JUMPI DUP1 PUSH1 0x1F LT PUSH2 0x1D3 JUMPI PUSH2 0x100 DUP1 DUP4 SLOAD DIV MUL DUP4 MSTORE SWAP2 PUSH1 0x20 ADD SWAP2 PUSH2 0x1FE JUMP JUMPDEST DUP3 ADD SWAP2 SWAP1 PUSH1 0x0 MSTORE PUSH1 0x20 PUSH1 0x0 KECCAK256 SWAP1 JUMPDEST DUP2 SLOAD DUP2 MSTORE SWAP1 PUSH1 0x1 ADD SWAP1 PUSH1 0x20 ADD DUP1 DUP4 GT PUSH2 0x1E1 JUMPI DUP3 SWAP1 SUB PUSH1 0x1F AND DUP3 ADD SWAP2 JUMPDEST POP POP POP POP POP DUP3 PUSH1 0x0 ADD DUP2 SWAP1 MSTORE POP DUP1 PUSH1 0x1 ADD DUP1 SLOAD PUSH2 0x21A SWAP1 PUSH2 0x18F1 JUMP JUMPDEST DUP1 PUSH1 0x1F ADD PUSH1 0x20 DUP1 SWAP2 DIV MUL PUSH1 0x20 ADD PUSH1 0x40 MLOAD SWAP1 DUP2 ADD PUSH1 0x40 MSTORE DUP1 SWAP3 SWAP2 SWAP1 DUP2 DUP2 MSTORE PUSH1 0x20 ADD DUP3 DUP1 SLOAD PUSH2 0x246 SWAP1 PUSH2 0x18F1 JUMP JUMPDEST DUP1 ISZERO PUSH2 0x293 JUMPI DUP1 PUSH1 0x1F LT PUSH2 0x268 JUMPI PUSH2 0x100 DUP1 DUP4 SLOAD DIV MUL DUP4 MSTORE SWAP2 PUSH1 0x20 ADD SWAP2 PUSH2 0x293 JUMP JUMPDEST DUP3 ADD SWAP2 SWAP1 PUSH1 0x0 MSTORE PUSH1 0x20 PUSH1 0x0 KECCAK256 SWAP1 JUMPDEST DUP2 SLOAD DUP2 MSTORE SWAP1 PUSH1 0x1 ADD SWAP1 PUSH1 0x20 ADD DUP1 DUP4 GT PUSH2 0x276 JUMPI DUP3 SWAP1 SUB PUSH1 0x1F AND DUP3 ADD SWAP2 JUMPDEST POP POP POP POP POP DUP3 PUSH1 0x20 ADD DUP2 SWAP1 MSTORE POP DUP1 PUSH1 0x2 ADD DUP1 SLOAD PUSH2 0x2AF SWAP1 PUSH2 0x18F1 JUMP JUMPDEST DUP1 PUSH1 0x1F ADD PUSH1 0x20 DUP1 SWAP2 DIV MUL PUSH1 0x20 ADD PUSH1 0x40 MLOAD SWAP1 DUP2 ADD PUSH1 0x40 MSTORE DUP1 SWAP3 SWAP2 SWAP1 DUP2 DUP2 MSTORE PUSH1 0x20 ADD DUP3 DUP1 SLOAD PUSH2 0x2DB SWAP1 PUSH2 0x18F1 JUMP JUMPDEST DUP1 ISZERO PUSH2 0x328 JUMPI DUP1 PUSH1 0x1F LT PUSH2 0x2FD JUMPI PUSH2 0x100 DUP1 DUP4 SLOAD DIV MUL DUP4 MSTORE SWAP2 PUSH1 0x20 ADD SWAP2 PUSH2 0x328 JUMP JUMPDEST DUP3 ADD SWAP2 SWAP1 PUSH1 0x0 MSTORE PUSH1 0x20 PUSH1 0x0 KECCAK256 SWAP1 JUMPDEST DUP2 SLOAD DUP2 MSTORE SWAP1 PUSH1 0x1 ADD SWAP1 PUSH1 0x20 ADD DUP1 DUP4 GT PUSH2 0x30B JUMPI DUP3 SWAP1 SUB PUSH1 0x1F AND DUP3 ADD SWAP2 JUMPDEST POP POP POP POP POP DUP3 PUSH1 0x40 ADD DUP2 SWAP1 MSTORE POP DUP1 PUSH1 0x3 ADD SLOAD DUP3 PUSH1 0x60 ADD DUP2 DUP2 MSTORE POP POP DUP1 PUSH1 0x4 ADD SLOAD DUP3 PUSH1 0x80 ADD DUP2 DUP2 MSTORE POP POP POP SWAP3 SWAP2 POP POP JUMP JUMPDEST PUSH1 0x0 DUP1 DUP10 DUP10 PUSH1 0x40 MLOAD PUSH2 0x36B SWAP3 SWAP2 SWAP1 PUSH2 0x16DF JUMP JUMPDEST SWAP1 DUP2 MSTORE PUSH1 0x20 ADD PUSH1 0x40 MLOAD DUP1 SWAP2 SUB SWAP1 KECCAK256 PUSH1 0x5 ADD DUP12 DUP12 PUSH1 0x40 MLOAD PUSH2 0x38C SWAP3 SWAP2 SWAP1 PUSH2 0x16DF JUMP JUMPDEST SWAP1 DUP2 MSTORE PUSH1 0x20 ADD PUSH1 0x40 MLOAD DUP1 SWAP2 SUB SWAP1 KECCAK256 SWAP1 POP DUP11 DUP11 DUP3 PUSH1 0x0 ADD SWAP2 SWAP1 PUSH2 0x3AF SWAP3 SWAP2 SWAP1 PUSH2 0xA77 JUMP JUMPDEST POP DUP7 DUP7 DUP3 PUSH1 0x1 ADD SWAP2 SWAP1 PUSH2 0x3C3 SWAP3 SWAP2 SWAP1 PUSH2 0xA77 JUMP JUMPDEST POP DUP5 DUP5 DUP3 PUSH1 0x2 ADD SWAP2 SWAP1 PUSH2 0x3D7 SWAP3 SWAP2 SWAP1 PUSH2 0xA77 JUMP JUMPDEST POP DUP3 DUP2 PUSH1 0x3 ADD SWAP1 DUP1 MLOAD SWAP1 PUSH1 0x20 ADD SWAP1 PUSH2 0x3F0 SWAP3 SWAP2 SWAP1 PUSH2 0xAFD JUMP JUMPDEST POP DUP2 DUP2 PUSH1 0x4 ADD DUP2 SWAP1 SSTORE POP POP POP POP POP POP POP POP POP POP POP POP JUMP JUMPDEST PUSH2 0x40F PUSH2 0xB4A JUMP JUMPDEST PUSH1 0x0 DUP1 DUP5 DUP5 PUSH1 0x40 MLOAD PUSH2 0x422 SWAP3 SWAP2 SWAP1 PUSH2 0x16DF JUMP JUMPDEST SWAP1 DUP2 MSTORE PUSH1 0x20 ADD PUSH1 0x40 MLOAD DUP1 SWAP2 SUB SWAP1 KECCAK256 PUSH1 0x5 ADD DUP7 DUP7 PUSH1 0x40 MLOAD PUSH2 0x443 SWAP3 SWAP2 SWAP1 PUSH2 0x16DF JUMP JUMPDEST SWAP1 DUP2 MSTORE PUSH1 0x20 ADD PUSH1 0x40 MLOAD DUP1 SWAP2 SUB SWAP1 KECCAK256 PUSH1 0x5 ADD DUP9 DUP9 PUSH1 0x40 MLOAD PUSH2 0x464 SWAP3 SWAP2 SWAP1 PUSH2 0x16DF JUMP JUMPDEST SWAP1 DUP2 MSTORE PUSH1 0x20 ADD PUSH1 0x40 MLOAD DUP1 SWAP2 SUB SWAP1 KECCAK256 SWAP1 POP DUP1 PUSH1 0x0 ADD DUP1 SLOAD PUSH2 0x483 SWAP1 PUSH2 0x18F1 JUMP JUMPDEST DUP1 PUSH1 0x1F ADD PUSH1 0x20 DUP1 SWAP2 DIV MUL PUSH1 0x20 ADD PUSH1 0x40 MLOAD SWAP1 DUP2 ADD PUSH1 0x40 MSTORE DUP1 SWAP3 SWAP2 SWAP1 DUP2 DUP2 MSTORE PUSH1 0x20 ADD DUP3 DUP1 SLOAD PUSH2 0x4AF SWAP1 PUSH2 0x18F1 JUMP JUMPDEST DUP1 ISZERO PUSH2 0x4FC JUMPI DUP1 PUSH1 0x1F LT PUSH2 0x4D1 JUMPI PUSH2 0x100 DUP1 DUP4 SLOAD DIV MUL DUP4 MSTORE SWAP2 PUSH1 0x20 ADD SWAP2 PUSH2 0x4FC JUMP JUMPDEST DUP3 ADD SWAP2 SWAP1 PUSH1 0x0 MSTORE PUSH1 0x20 PUSH1 0x0 KECCAK256 SWAP1 JUMPDEST DUP2 SLOAD DUP2 MSTORE SWAP1 PUSH1 0x1 ADD SWAP1 PUSH1 0x20 ADD DUP1 DUP4 GT PUSH2 0x4DF JUMPI DUP3 SWAP1 SUB PUSH1 0x1F AND DUP3 ADD SWAP2 JUMPDEST POP POP POP POP POP DUP3 PUSH1 0x0 ADD DUP2 SWAP1 MSTORE POP DUP1 PUSH1 0x1 ADD DUP1 SLOAD PUSH2 0x518 SWAP1 PUSH2 0x18F1 JUMP JUMPDEST DUP1 PUSH1 0x1F ADD PUSH1 0x20 DUP1 SWAP2 DIV MUL PUSH1 0x20 ADD PUSH1 0x40 MLOAD SWAP1 DUP2 ADD PUSH1 0x40 MSTORE DUP1 SWAP3 SWAP2 SWAP1 DUP2 DUP2 MSTORE PUSH1 0x20 ADD DUP3 DUP1 SLOAD PUSH2 0x544 SWAP1 PUSH2 0x18F1 JUMP JUMPDEST DUP1 ISZERO PUSH2 0x591 JUMPI DUP1 PUSH1 0x1F LT PUSH2 0x566 JUMPI PUSH2 0x100 DUP1 DUP4 SLOAD DIV MUL DUP4 MSTORE SWAP2 PUSH1 0x20 ADD SWAP2 PUSH2 0x591 JUMP JUMPDEST DUP3 ADD SWAP2 SWAP1 PUSH1 0x0 MSTORE PUSH1 0x20 PUSH1 0x0 KECCAK256 SWAP1 JUMPDEST DUP2 SLOAD DUP2 MSTORE SWAP1 PUSH1 0x1 ADD SWAP1 PUSH1 0x20 ADD DUP1 DUP4 GT PUSH2 0x574 JUMPI DUP3 SWAP1 SUB PUSH1 0x1F AND DUP3 ADD SWAP2 JUMPDEST POP POP POP POP POP DUP3 PUSH1 0x20 ADD DUP2 SWAP1 MSTORE POP DUP1 PUSH1 0x2 ADD SLOAD DUP3 PUSH1 0x40 ADD DUP2 DUP2 MSTORE POP POP DUP1 PUSH1 0x3 ADD DUP1 SLOAD DUP1 PUSH1 0x20 MUL PUSH1 0x20 ADD PUSH1 0x40 MLOAD SWAP1 DUP2 ADD PUSH1 0x40 MSTORE DUP1 SWAP3 SWAP2 SWAP1 DUP2 DUP2 MSTORE PUSH1 0x20 ADD PUSH1 0x0 SWAP1 JUMPDEST DUP3 DUP3 LT ISZERO PUSH2 0x67C JUMPI DUP4 DUP3 SWAP1 PUSH1 0x0 MSTORE PUSH1 0x20 PUSH1 0x0 KECCAK256 ADD DUP1 SLOAD PUSH2 0x5EF SWAP1 PUSH2 0x18F1 JUMP JUMPDEST DUP1 PUSH1 0x1F ADD PUSH1 0x20 DUP1 SWAP2 DIV MUL PUSH1 0x20 ADD PUSH1 0x40 MLOAD SWAP1 DUP2 ADD PUSH1 0x40 MSTORE DUP1 SWAP3 SWAP2 SWAP1 DUP2 DUP2 MSTORE PUSH1 0x20 ADD DUP3 DUP1 SLOAD PUSH2 0x61B SWAP1 PUSH2 0x18F1 JUMP JUMPDEST DUP1 ISZERO PUSH2 0x668 JUMPI DUP1 PUSH1 0x1F LT PUSH2 0x63D JUMPI PUSH2 0x100 DUP1 DUP4 SLOAD DIV MUL DUP4 MSTORE SWAP2 PUSH1 0x20 ADD SWAP2 PUSH2 0x668 JUMP JUMPDEST DUP3 ADD SWAP2 SWAP1 PUSH1 0x0 MSTORE PUSH1 0x20 PUSH1 0x0 KECCAK256 SWAP1 JUMPDEST DUP2 SLOAD DUP2 MSTORE SWAP1 PUSH1 0x1 ADD SWAP1 PUSH1 0x20 ADD DUP1 DUP4 GT PUSH2 0x64B JUMPI DUP3 SWAP1 SUB PUSH1 0x1F AND DUP3 ADD SWAP2 JUMPDEST POP POP POP POP POP DUP2 MSTORE PUSH1 0x20 ADD SWAP1 PUSH1 0x1 ADD SWAP1 PUSH2 0x5D0 JUMP JUMPDEST POP POP POP POP DUP3 PUSH1 0x60 ADD DUP2 SWAP1 MSTORE POP POP SWAP7 SWAP6 POP POP POP POP POP POP JUMP JUMPDEST PUSH1 0x0 DUP1 DUP10 DUP10 PUSH1 0x40 MLOAD PUSH2 0x6A6 SWAP3 SWAP2 SWAP1 PUSH2 0x16DF JUMP JUMPDEST SWAP1 DUP2 MSTORE PUSH1 0x20 ADD PUSH1 0x40 MLOAD DUP1 SWAP2 SUB SWAP1 KECCAK256 SWAP1 POP DUP9 DUP9 DUP3 PUSH1 0x0 ADD SWAP2 SWAP1 PUSH2 0x6C9 SWAP3 SWAP2 SWAP1 PUSH2 0xA77 JUMP JUMPDEST POP DUP7 DUP7 DUP3 PUSH1 0x1 ADD SWAP2 SWAP1 PUSH2 0x6DD SWAP3 SWAP2 SWAP1 PUSH2 0xA77 JUMP JUMPDEST POP DUP5 DUP5 DUP3 PUSH1 0x2 ADD SWAP2 SWAP1 PUSH2 0x6F1 SWAP3 SWAP2 SWAP1 PUSH2 0xA77 JUMP JUMPDEST POP DUP3 DUP2 PUSH1 0x3 ADD DUP2 SWAP1 SSTORE POP DUP2 DUP2 PUSH1 0x4 ADD DUP2 SWAP1 SSTORE POP POP POP POP POP POP POP POP POP POP JUMP JUMPDEST PUSH2 0x717 PUSH2 0xB72 JUMP JUMPDEST PUSH1 0x0 DUP1 DUP5 DUP5 PUSH1 0x40 MLOAD PUSH2 0x72A SWAP3 SWAP2 SWAP1 PUSH2 0x16DF JUMP JUMPDEST SWAP1 DUP2 MSTORE PUSH1 0x20 ADD PUSH1 0x40 MLOAD DUP1 SWAP2 SUB SWAP1 KECCAK256 PUSH1 0x5 ADD DUP7 DUP7 PUSH1 0x40 MLOAD PUSH2 0x74B SWAP3 SWAP2 SWAP1 PUSH2 0x16DF JUMP JUMPDEST SWAP1 DUP2 MSTORE PUSH1 0x20 ADD PUSH1 0x40 MLOAD DUP1 SWAP2 SUB SWAP1 KECCAK256 SWAP1 POP DUP1 PUSH1 0x0 ADD DUP1 SLOAD PUSH2 0x76A SWAP1 PUSH2 0x18F1 JUMP JUMPDEST DUP1 PUSH1 0x1F ADD PUSH1 0x20 DUP1 SWAP2 DIV MUL PUSH1 0x20 ADD PUSH1 0x40 MLOAD SWAP1 DUP2 ADD PUSH1 0x40 MSTORE DUP1 SWAP3 SWAP2 SWAP1 DUP2 DUP2 MSTORE PUSH1 0x20 ADD DUP3 DUP1 SLOAD PUSH2 0x796 SWAP1 PUSH2 0x18F1 JUMP JUMPDEST DUP1 ISZERO PUSH2 0x7E3 JUMPI DUP1 PUSH1 0x1F LT PUSH2 0x7B8 JUMPI PUSH2 0x100 DUP1 DUP4 SLOAD DIV MUL DUP4 MSTORE SWAP2 PUSH1 0x20 ADD SWAP2 PUSH2 0x7E3 JUMP JUMPDEST DUP3 ADD SWAP2 SWAP1 PUSH1 0x0 MSTORE PUSH1 0x20 PUSH1 0x0 KECCAK256 SWAP1 JUMPDEST DUP2 SLOAD DUP2 MSTORE SWAP1 PUSH1 0x1 ADD SWAP1 PUSH1 0x20 ADD DUP1 DUP4 GT PUSH2 0x7C6 JUMPI DUP3 SWAP1 SUB PUSH1 0x1F AND DUP3 ADD SWAP2 JUMPDEST POP POP POP POP POP DUP3 PUSH1 0x0 ADD DUP2 SWAP1 MSTORE POP DUP1 PUSH1 0x1 ADD DUP1 SLOAD PUSH2 0x7FF SWAP1 PUSH2 0x18F1 JUMP JUMPDEST DUP1 PUSH1 0x1F ADD PUSH1 0x20 DUP1 SWAP2 DIV MUL PUSH1 0x20 ADD PUSH1 0x40 MLOAD SWAP1 DUP2 ADD PUSH1 0x40 MSTORE DUP1 SWAP3 SWAP2 SWAP1 DUP2 DUP2 MSTORE PUSH1 0x20 ADD DUP3 DUP1 SLOAD PUSH2 0x82B SWAP1 PUSH2 0x18F1 JUMP JUMPDEST DUP1 ISZERO PUSH2 0x878 JUMPI DUP1 PUSH1 0x1F LT PUSH2 0x84D JUMPI PUSH2 0x100 DUP1 DUP4 SLOAD DIV MUL DUP4 MSTORE SWAP2 PUSH1 0x20 ADD SWAP2 PUSH2 0x878 JUMP JUMPDEST DUP3 ADD SWAP2 SWAP1 PUSH1 0x0 MSTORE PUSH1 0x20 PUSH1 0x0 KECCAK256 SWAP1 JUMPDEST DUP2 SLOAD DUP2 MSTORE SWAP1 PUSH1 0x1 ADD SWAP1 PUSH1 0x20 ADD DUP1 DUP4 GT PUSH2 0x85B JUMPI DUP3 SWAP1 SUB PUSH1 0x1F AND DUP3 ADD SWAP2 JUMPDEST POP POP POP POP POP DUP3 PUSH1 0x20 ADD DUP2 SWAP1 MSTORE POP DUP1 PUSH1 0x2 ADD DUP1 SLOAD PUSH2 0x894 SWAP1 PUSH2 0x18F1 JUMP JUMPDEST DUP1 PUSH1 0x1F ADD PUSH1 0x20 DUP1 SWAP2 DIV MUL PUSH1 0x20 ADD PUSH1 0x40 MLOAD SWAP1 DUP2 ADD PUSH1 0x40 MSTORE DUP1 SWAP3 SWAP2 SWAP1 DUP2 DUP2 MSTORE PUSH1 0x20 ADD DUP3 DUP1 SLOAD PUSH2 0x8C0 SWAP1 PUSH2 0x18F1 JUMP JUMPDEST DUP1 ISZERO PUSH2 0x90D JUMPI DUP1 PUSH1 0x1F LT PUSH2 0x8E2 JUMPI PUSH2 0x100 DUP1 DUP4 SLOAD DIV MUL DUP4 MSTORE SWAP2 PUSH1 0x20 ADD SWAP2 PUSH2 0x90D JUMP JUMPDEST DUP3 ADD SWAP2 SWAP1 PUSH1 0x0 MSTORE PUSH1 0x20 PUSH1 0x0 KECCAK256 SWAP1 JUMPDEST DUP2 SLOAD DUP2 MSTORE SWAP1 PUSH1 0x1 ADD SWAP1 PUSH1 0x20 ADD DUP1 DUP4 GT PUSH2 0x8F0 JUMPI DUP3 SWAP1 SUB PUSH1 0x1F AND DUP3 ADD SWAP2 JUMPDEST POP POP POP POP POP DUP3 PUSH1 0x40 ADD DUP2 SWAP1 MSTORE POP DUP1 PUSH1 0x3 ADD DUP1 SLOAD DUP1 PUSH1 0x20 MUL PUSH1 0x20 ADD PUSH1 0x40 MLOAD SWAP1 DUP2 ADD PUSH1 0x40 MSTORE DUP1 SWAP3 SWAP2 SWAP1 DUP2 DUP2 MSTORE PUSH1 0x20 ADD DUP3 DUP1 SLOAD DUP1 ISZERO PUSH2 0x968 JUMPI PUSH1 0x20 MUL DUP3 ADD SWAP2 SWAP1 PUSH1 0x0 MSTORE PUSH1 0x20 PUSH1 0x0 KECCAK256 SWAP1 JUMPDEST DUP2 SLOAD DUP2 MSTORE PUSH1 0x20 ADD SWAP1 PUSH1 0x1 ADD SWAP1 DUP1 DUP4 GT PUSH2 0x954 JUMPI JUMPDEST POP POP POP POP POP DUP3 PUSH1 0x60 ADD DUP2 SWAP1 MSTORE POP DUP1 PUSH1 0x4 ADD SLOAD DUP3 PUSH1 0x80 ADD DUP2 DUP2 MSTORE POP POP POP SWAP5 SWAP4 POP POP POP POP JUMP JUMPDEST PUSH1 0x0 DUP1 DUP12 DUP12 PUSH1 0x40 MLOAD PUSH2 0x99F SWAP3 SWAP2 SWAP1 PUSH2 0x16DF JUMP JUMPDEST SWAP1 DUP2 MSTORE PUSH1 0x20 ADD PUSH1 0x40 MLOAD DUP1 SWAP2 SUB SWAP1 KECCAK256 PUSH1 0x5 ADD DUP10 DUP10 PUSH1 0x40 MLOAD PUSH2 0x9C0 SWAP3 SWAP2 SWAP1 PUSH2 0x16DF JUMP JUMPDEST SWAP1 DUP2 MSTORE PUSH1 0x20 ADD PUSH1 0x40 MLOAD DUP1 SWAP2 SUB SWAP1 KECCAK256 PUSH1 0x5 ADD DUP8 DUP8 PUSH1 0x40 MLOAD PUSH2 0x9E1 SWAP3 SWAP2 SWAP1 PUSH2 0x16DF JUMP JUMPDEST SWAP1 DUP2 MSTORE PUSH1 0x20 ADD PUSH1 0x40 MLOAD DUP1 SWAP2 SUB SWAP1 KECCAK256 SWAP1 POP DUP7 DUP7 DUP3 PUSH1 0x0 ADD SWAP2 SWAP1 PUSH2 0xA04 SWAP3 SWAP2 SWAP1 PUSH2 0xA77 JUMP JUMPDEST POP DUP5 DUP5 DUP3 PUSH1 0x1 ADD SWAP2 SWAP1 PUSH2 0xA18 SWAP3 SWAP2 SWAP1 PUSH2 0xA77 JUMP JUMPDEST POP DUP3 DUP2 PUSH1 0x2 ADD DUP2 SWAP1 SSTORE POP DUP2 DUP2 PUSH1 0x3 ADD SWAP1 DUP1 MLOAD SWAP1 PUSH1 0x20 ADD SWAP1 PUSH2 0xA3A SWAP3 SWAP2 SWAP1 PUSH2 0xBA1 JUMP JUMPDEST POP POP POP POP POP POP POP POP POP POP POP POP JUMP JUMPDEST PUSH1 0x40 MLOAD DUP1 PUSH1 0xA0 ADD PUSH1 0x40 MSTORE DUP1 PUSH1 0x60 DUP2 MSTORE PUSH1 0x20 ADD PUSH1 0x60 DUP2 MSTORE PUSH1 0x20 ADD PUSH1 0x60 DUP2 MSTORE PUSH1 0x20 ADD PUSH1 0x0 DUP2 MSTORE PUSH1 0x20 ADD PUSH1 0x0 DUP2 MSTORE POP SWAP1 JUMP JUMPDEST DUP3 DUP1 SLOAD PUSH2 0xA83 SWAP1 PUSH2 0x18F1 JUMP JUMPDEST SWAP1 PUSH1 0x0 MSTORE PUSH1 0x20 PUSH1 0x0 KECCAK256 SWAP1 PUSH1 0x1F ADD PUSH1 0x20 SWAP1 DIV DUP2 ADD SWAP3 DUP3 PUSH2 0xAA5 JUMPI PUSH1 0x0 DUP6 SSTORE PUSH2 0xAEC JUMP JUMPDEST DUP3 PUSH1 0x1F LT PUSH2 0xABE JUMPI DUP1 CALLDATALOAD PUSH1 0xFF NOT AND DUP4 DUP1 ADD OR DUP6 SSTORE PUSH2 0xAEC JUMP JUMPDEST DUP3 DUP1 ADD PUSH1 0x1 ADD DUP6 SSTORE DUP3 ISZERO PUSH2 0xAEC JUMPI SWAP2 DUP3 ADD JUMPDEST DUP3 DUP2 GT ISZERO PUSH2 0xAEB JUMPI DUP3 CALLDATALOAD DUP3 SSTORE SWAP2 PUSH1 0x20 ADD SWAP2 SWAP1 PUSH1 0x1 ADD SWAP1 PUSH2 0xAD0 JUMP JUMPDEST JUMPDEST POP SWAP1 POP PUSH2 0xAF9 SWAP2 SWAP1 PUSH2 0xC01 JUMP JUMPDEST POP SWAP1 JUMP JUMPDEST DUP3 DUP1 SLOAD DUP3 DUP3 SSTORE SWAP1 PUSH1 0x0 MSTORE PUSH1 0x20 PUSH1 0x0 KECCAK256 SWAP1 DUP2 ADD SWAP3 DUP3 ISZERO PUSH2 0xB39 JUMPI SWAP2 PUSH1 0x20 MUL DUP3 ADD JUMPDEST DUP3 DUP2 GT ISZERO PUSH2 0xB38 JUMPI DUP3 MLOAD DUP3 SSTORE SWAP2 PUSH1 0x20 ADD SWAP2 SWAP1 PUSH1 0x1 ADD SWAP1 PUSH2 0xB1D JUMP JUMPDEST JUMPDEST POP SWAP1 POP PUSH2 0xB46 SWAP2 SWAP1 PUSH2 0xC01 JUMP JUMPDEST POP SWAP1 JUMP JUMPDEST PUSH1 0x40 MLOAD DUP1 PUSH1 0x80 ADD PUSH1 0x40 MSTORE DUP1 PUSH1 0x60 DUP2 MSTORE PUSH1 0x20 ADD PUSH1 0x60 DUP2 MSTORE PUSH1 0x20 ADD PUSH1 0x0 DUP2 MSTORE PUSH1 0x20 ADD PUSH1 0x60 DUP2 MSTORE POP SWAP1 JUMP JUMPDEST PUSH1 0x40 MLOAD DUP1 PUSH1 0xA0 ADD PUSH1 0x40 MSTORE DUP1 PUSH1 0x60 DUP2 MSTORE PUSH1 0x20 ADD PUSH1 0x60 DUP2 MSTORE PUSH1 0x20 ADD PUSH1 0x60 DUP2 MSTORE PUSH1 0x20 ADD PUSH1 0x60 DUP2 MSTORE PUSH1 0x20 ADD PUSH1 0x0 DUP2 MSTORE POP SWAP1 JUMP JUMPDEST DUP3 DUP1 SLOAD DUP3 DUP3 SSTORE SWAP1 PUSH1 0x0 MSTORE PUSH1 0x20 PUSH1 0x0 KECCAK256 SWAP1 DUP2 ADD SWAP3 DUP3 ISZERO PUSH2 0xBF0 JUMPI SWAP2 PUSH1 0x20 MUL DUP3 ADD JUMPDEST DUP3 DUP2 GT ISZERO PUSH2 0xBEF JUMPI DUP3 MLOAD DUP3 SWAP1 DUP1 MLOAD SWAP1 PUSH1 0x20 ADD SWAP1 PUSH2 0xBDF SWAP3 SWAP2 SWAP1 PUSH2 0xC1E JUMP JUMPDEST POP SWAP2 PUSH1 0x20 ADD SWAP2 SWAP1 PUSH1 0x1 ADD SWAP1 PUSH2 0xBC1 JUMP JUMPDEST JUMPDEST POP SWAP1 POP PUSH2 0xBFD SWAP2 SWAP1 PUSH2 0xCA4 JUMP JUMPDEST POP SWAP1 JUMP JUMPDEST JUMPDEST DUP1 DUP3 GT ISZERO PUSH2 0xC1A JUMPI PUSH1 0x0 DUP2 PUSH1 0x0 SWAP1 SSTORE POP PUSH1 0x1 ADD PUSH2 0xC02 JUMP JUMPDEST POP SWAP1 JUMP JUMPDEST DUP3 DUP1 SLOAD PUSH2 0xC2A SWAP1 PUSH2 0x18F1 JUMP JUMPDEST SWAP1 PUSH1 0x0 MSTORE PUSH1 0x20 PUSH1 0x0 KECCAK256 SWAP1 PUSH1 0x1F ADD PUSH1 0x20 SWAP1 DIV DUP2 ADD SWAP3 DUP3 PUSH2 0xC4C JUMPI PUSH1 0x0 DUP6 SSTORE PUSH2 0xC93 JUMP JUMPDEST DUP3 PUSH1 0x1F LT PUSH2 0xC65 JUMPI DUP1 MLOAD PUSH1 0xFF NOT AND DUP4 DUP1 ADD OR DUP6 SSTORE PUSH2 0xC93 JUMP JUMPDEST DUP3 DUP1 ADD PUSH1 0x1 ADD DUP6 SSTORE DUP3 ISZERO PUSH2 0xC93 JUMPI SWAP2 DUP3 ADD JUMPDEST DUP3 DUP2 GT ISZERO PUSH2 0xC92 JUMPI DUP3 MLOAD DUP3 SSTORE SWAP2 PUSH1 0x20 ADD SWAP2 SWAP1 PUSH1 0x1 ADD SWAP1 PUSH2 0xC77 JUMP JUMPDEST JUMPDEST POP SWAP1 POP PUSH2 0xCA0 SWAP2 SWAP1 PUSH2 0xC01 JUMP JUMPDEST POP SWAP1 JUMP JUMPDEST JUMPDEST DUP1 DUP3 GT ISZERO PUSH2 0xCC4 JUMPI PUSH1 0x0 DUP2 DUP2 PUSH2 0xCBB SWAP2 SWAP1 PUSH2 0xCC8 JUMP JUMPDEST POP PUSH1 0x1 ADD PUSH2 0xCA5 JUMP JUMPDEST POP SWAP1 JUMP JUMPDEST POP DUP1 SLOAD PUSH2 0xCD4 SWAP1 PUSH2 0x18F1 JUMP JUMPDEST PUSH1 0x0 DUP3 SSTORE DUP1 PUSH1 0x1F LT PUSH2 0xCE6 JUMPI POP PUSH2 0xD05 JUMP JUMPDEST PUSH1 0x1F ADD PUSH1 0x20 SWAP1 DIV SWAP1 PUSH1 0x0 MSTORE PUSH1 0x20 PUSH1 0x0 KECCAK256 SWAP1 DUP2 ADD SWAP1 PUSH2 0xD04 SWAP2 SWAP1 PUSH2 0xC01 JUMP JUMPDEST JUMPDEST POP JUMP JUMPDEST PUSH1 0x0 PUSH2 0xD1B PUSH2 0xD16 DUP5 PUSH2 0x1783 JUMP JUMPDEST PUSH2 0x175E JUMP JUMPDEST SWAP1 POP DUP1 DUP4 DUP3 MSTORE PUSH1 0x20 DUP3 ADD SWAP1 POP DUP3 DUP6 PUSH1 0x20 DUP7 MUL DUP3 ADD GT ISZERO PUSH2 0xD3E JUMPI PUSH2 0xD3D PUSH2 0x19BC JUMP JUMPDEST JUMPDEST PUSH1 0x0 JUMPDEST DUP6 DUP2 LT ISZERO PUSH2 0xD8C JUMPI DUP2 CALLDATALOAD PUSH8 0xFFFFFFFFFFFFFFFF DUP2 GT ISZERO PUSH2 0xD64 JUMPI PUSH2 0xD63 PUSH2 0x19B7 JUMP JUMPDEST JUMPDEST DUP1 DUP7 ADD PUSH2 0xD71 DUP10 DUP3 PUSH2 0xEFA JUMP JUMPDEST DUP6 MSTORE PUSH1 0x20 DUP6 ADD SWAP5 POP PUSH1 0x20 DUP5 ADD SWAP4 POP POP POP PUSH1 0x1 DUP2 ADD SWAP1 POP PUSH2 0xD41 JUMP JUMPDEST POP POP POP SWAP4 SWAP3 POP POP POP JUMP JUMPDEST PUSH1 0x0 PUSH2 0xDA9 PUSH2 0xDA4 DUP5 PUSH2 0x17AF JUMP JUMPDEST PUSH2 0x175E JUMP JUMPDEST SWAP1 POP DUP1 DUP4 DUP3 MSTORE PUSH1 0x20 DUP3 ADD SWAP1 POP DUP3 DUP6 PUSH1 0x20 DUP7 MUL DUP3 ADD GT ISZERO PUSH2 0xDCC JUMPI PUSH2 0xDCB PUSH2 0x19BC JUMP JUMPDEST JUMPDEST PUSH1 0x0 JUMPDEST DUP6 DUP2 LT ISZERO PUSH2 0xDFC JUMPI DUP2 PUSH2 0xDE2 DUP9 DUP3 PUSH2 0xF28 JUMP JUMPDEST DUP5 MSTORE PUSH1 0x20 DUP5 ADD SWAP4 POP PUSH1 0x20 DUP4 ADD SWAP3 POP POP PUSH1 0x1 DUP2 ADD SWAP1 POP PUSH2 0xDCF JUMP JUMPDEST POP POP POP SWAP4 SWAP3 POP POP POP JUMP JUMPDEST PUSH1 0x0 PUSH2 0xE19 PUSH2 0xE14 DUP5 PUSH2 0x17DB JUMP JUMPDEST PUSH2 0x175E JUMP JUMPDEST SWAP1 POP DUP3 DUP2 MSTORE PUSH1 0x20 DUP2 ADD DUP5 DUP5 DUP5 ADD GT ISZERO PUSH2 0xE35 JUMPI PUSH2 0xE34 PUSH2 0x19C1 JUMP JUMPDEST JUMPDEST PUSH2 0xE40 DUP5 DUP3 DUP6 PUSH2 0x18AF JUMP JUMPDEST POP SWAP4 SWAP3 POP POP POP JUMP JUMPDEST PUSH1 0x0 DUP3 PUSH1 0x1F DUP4 ADD SLT PUSH2 0xE5D JUMPI PUSH2 0xE5C PUSH2 0x19B7 JUMP JUMPDEST JUMPDEST DUP2 CALLDATALOAD PUSH2 0xE6D DUP5 DUP3 PUSH1 0x20 DUP7 ADD PUSH2 0xD08 JUMP JUMPDEST SWAP2 POP POP SWAP3 SWAP2 POP POP JUMP JUMPDEST PUSH1 0x0 DUP3 PUSH1 0x1F DUP4 ADD SLT PUSH2 0xE8B JUMPI PUSH2 0xE8A PUSH2 0x19B7 JUMP JUMPDEST JUMPDEST DUP2 CALLDATALOAD PUSH2 0xE9B DUP5 DUP3 PUSH1 0x20 DUP7 ADD PUSH2 0xD96 JUMP JUMPDEST SWAP2 POP POP SWAP3 SWAP2 POP POP JUMP JUMPDEST PUSH1 0x0 DUP1 DUP4 PUSH1 0x1F DUP5 ADD SLT PUSH2 0xEBA JUMPI PUSH2 0xEB9 PUSH2 0x19B7 JUMP JUMPDEST JUMPDEST DUP3 CALLDATALOAD SWAP1 POP PUSH8 0xFFFFFFFFFFFFFFFF DUP2 GT ISZERO PUSH2 0xED7 JUMPI PUSH2 0xED6 PUSH2 0x19B2 JUMP JUMPDEST JUMPDEST PUSH1 0x20 DUP4 ADD SWAP2 POP DUP4 PUSH1 0x1 DUP3 MUL DUP4 ADD GT ISZERO PUSH2 0xEF3 JUMPI PUSH2 0xEF2 PUSH2 0x19BC JUMP JUMPDEST JUMPDEST SWAP3 POP SWAP3 SWAP1 POP JUMP JUMPDEST PUSH1 0x0 DUP3 PUSH1 0x1F DUP4 ADD SLT PUSH2 0xF0F JUMPI PUSH2 0xF0E PUSH2 0x19B7 JUMP JUMPDEST JUMPDEST DUP2 CALLDATALOAD PUSH2 0xF1F DUP5 DUP3 PUSH1 0x20 DUP7 ADD PUSH2 0xE06 JUMP JUMPDEST SWAP2 POP POP SWAP3 SWAP2 POP POP JUMP JUMPDEST PUSH1 0x0 DUP2 CALLDATALOAD SWAP1 POP PUSH2 0xF37 DUP2 PUSH2 0x19E1 JUMP JUMPDEST SWAP3 SWAP2 POP POP JUMP JUMPDEST PUSH1 0x0 DUP1 PUSH1 0x20 DUP4 DUP6 SUB SLT ISZERO PUSH2 0xF54 JUMPI PUSH2 0xF53 PUSH2 0x19CB JUMP JUMPDEST JUMPDEST PUSH1 0x0 DUP4 ADD CALLDATALOAD PUSH8 0xFFFFFFFFFFFFFFFF DUP2 GT ISZERO PUSH2 0xF72 JUMPI PUSH2 0xF71 PUSH2 0x19C6 JUMP JUMPDEST JUMPDEST PUSH2 0xF7E DUP6 DUP3 DUP7 ADD PUSH2 0xEA4 JUMP JUMPDEST SWAP3 POP SWAP3 POP POP SWAP3 POP SWAP3 SWAP1 POP JUMP JUMPDEST PUSH1 0x0 DUP1 PUSH1 0x0 DUP1 PUSH1 0x40 DUP6 DUP8 SUB SLT ISZERO PUSH2 0xFA4 JUMPI PUSH2 0xFA3 PUSH2 0x19CB JUMP JUMPDEST JUMPDEST PUSH1 0x0 DUP6 ADD CALLDATALOAD PUSH8 0xFFFFFFFFFFFFFFFF DUP2 GT ISZERO PUSH2 0xFC2 JUMPI PUSH2 0xFC1 PUSH2 0x19C6 JUMP JUMPDEST JUMPDEST PUSH2 0xFCE DUP8 DUP3 DUP9 ADD PUSH2 0xEA4 JUMP JUMPDEST SWAP5 POP SWAP5 POP POP PUSH1 0x20 DUP6 ADD CALLDATALOAD PUSH8 0xFFFFFFFFFFFFFFFF DUP2 GT ISZERO PUSH2 0xFF1 JUMPI PUSH2 0xFF0 PUSH2 0x19C6 JUMP JUMPDEST JUMPDEST PUSH2 0xFFD DUP8 DUP3 DUP9 ADD PUSH2 0xEA4 JUMP JUMPDEST SWAP3 POP SWAP3 POP POP SWAP3 SWAP6 SWAP2 SWAP5 POP SWAP3 POP JUMP JUMPDEST PUSH1 0x0 DUP1 PUSH1 0x0 DUP1 PUSH1 0x0 DUP1 PUSH1 0x60 DUP8 DUP10 SUB SLT ISZERO PUSH2 0x1028 JUMPI PUSH2 0x1027 PUSH2 0x19CB JUMP JUMPDEST JUMPDEST PUSH1 0x0 DUP8 ADD CALLDATALOAD PUSH8 0xFFFFFFFFFFFFFFFF DUP2 GT ISZERO PUSH2 0x1046 JUMPI PUSH2 0x1045 PUSH2 0x19C6 JUMP JUMPDEST JUMPDEST PUSH2 0x1052 DUP10 DUP3 DUP11 ADD PUSH2 0xEA4 JUMP JUMPDEST SWAP7 POP SWAP7 POP POP PUSH1 0x20 DUP8 ADD CALLDATALOAD PUSH8 0xFFFFFFFFFFFFFFFF DUP2 GT ISZERO PUSH2 0x1075 JUMPI PUSH2 0x1074 PUSH2 0x19C6 JUMP JUMPDEST JUMPDEST PUSH2 0x1081 DUP10 DUP3 DUP11 ADD PUSH2 0xEA4 JUMP JUMPDEST SWAP5 POP SWAP5 POP POP PUSH1 0x40 DUP8 ADD CALLDATALOAD PUSH8 0xFFFFFFFFFFFFFFFF DUP2 GT ISZERO PUSH2 0x10A4 JUMPI PUSH2 0x10A3 PUSH2 0x19C6 JUMP JUMPDEST JUMPDEST PUSH2 0x10B0 DUP10 DUP3 DUP11 ADD PUSH2 0xEA4 JUMP JUMPDEST SWAP3 POP SWAP3 POP POP SWAP3 SWAP6 POP SWAP3 SWAP6 POP SWAP3 SWAP6 JUMP JUMPDEST PUSH1 0x0 DUP1 PUSH1 0x0 DUP1 PUSH1 0x0 DUP1 PUSH1 0x0 DUP1 PUSH1 0x0 DUP1 PUSH1 0xC0 DUP12 DUP14 SUB SLT ISZERO PUSH2 0x10E2 JUMPI PUSH2 0x10E1 PUSH2 0x19CB JUMP JUMPDEST JUMPDEST PUSH1 0x0 DUP12 ADD CALLDATALOAD PUSH8 0xFFFFFFFFFFFFFFFF DUP2 GT ISZERO PUSH2 0x1100 JUMPI PUSH2 0x10FF PUSH2 0x19C6 JUMP JUMPDEST JUMPDEST PUSH2 0x110C DUP14 DUP3 DUP15 ADD PUSH2 0xEA4 JUMP JUMPDEST SWAP11 POP SWAP11 POP POP PUSH1 0x20 DUP12 ADD CALLDATALOAD PUSH8 0xFFFFFFFFFFFFFFFF DUP2 GT ISZERO PUSH2 0x112F JUMPI PUSH2 0x112E PUSH2 0x19C6 JUMP JUMPDEST JUMPDEST PUSH2 0x113B DUP14 DUP3 DUP15 ADD PUSH2 0xEA4 JUMP JUMPDEST SWAP9 POP SWAP9 POP POP PUSH1 0x40 DUP12 ADD CALLDATALOAD PUSH8 0xFFFFFFFFFFFFFFFF DUP2 GT ISZERO PUSH2 0x115E JUMPI PUSH2 0x115D PUSH2 0x19C6 JUMP JUMPDEST JUMPDEST PUSH2 0x116A DUP14 DUP3 DUP15 ADD PUSH2 0xEA4 JUMP JUMPDEST SWAP7 POP SWAP7 POP POP PUSH1 0x60 DUP12 ADD CALLDATALOAD PUSH8 0xFFFFFFFFFFFFFFFF DUP2 GT ISZERO PUSH2 0x118D JUMPI PUSH2 0x118C PUSH2 0x19C6 JUMP JUMPDEST JUMPDEST PUSH2 0x1199 DUP14 DUP3 DUP15 ADD PUSH2 0xEA4 JUMP JUMPDEST SWAP5 POP SWAP5 POP POP PUSH1 0x80 DUP12 ADD CALLDATALOAD PUSH8 0xFFFFFFFFFFFFFFFF DUP2 GT ISZERO PUSH2 0x11BC JUMPI PUSH2 0x11BB PUSH2 0x19C6 JUMP JUMPDEST JUMPDEST PUSH2 0x11C8 DUP14 DUP3 DUP15 ADD PUSH2 0xE76 JUMP JUMPDEST SWAP3 POP POP PUSH1 0xA0 PUSH2 0x11D9 DUP14 DUP3 DUP15 ADD PUSH2 0xF28 JUMP JUMPDEST SWAP2 POP POP SWAP3 SWAP6 SWAP9 SWAP12 SWAP2 SWAP5 SWAP8 SWAP11 POP SWAP3 SWAP6 SWAP9 POP JUMP JUMPDEST PUSH1 0x0 DUP1 PUSH1 0x0 DUP1 PUSH1 0x0 DUP1 PUSH1 0x0 DUP1 PUSH1 0x0 DUP1 PUSH1 0xC0 DUP12 DUP14 SUB SLT ISZERO PUSH2 0x120E JUMPI PUSH2 0x120D PUSH2 0x19CB JUMP JUMPDEST JUMPDEST PUSH1 0x0 DUP12 ADD CALLDATALOAD PUSH8 0xFFFFFFFFFFFFFFFF DUP2 GT ISZERO PUSH2 0x122C JUMPI PUSH2 0x122B PUSH2 0x19C6 JUMP JUMPDEST JUMPDEST PUSH2 0x1238 DUP14 DUP3 DUP15 ADD PUSH2 0xEA4 JUMP JUMPDEST SWAP11 POP SWAP11 POP POP PUSH1 0x20 DUP12 ADD CALLDATALOAD PUSH8 0xFFFFFFFFFFFFFFFF DUP2 GT ISZERO PUSH2 0x125B JUMPI PUSH2 0x125A PUSH2 0x19C6 JUMP JUMPDEST JUMPDEST PUSH2 0x1267 DUP14 DUP3 DUP15 ADD PUSH2 0xEA4 JUMP JUMPDEST SWAP9 POP SWAP9 POP POP PUSH1 0x40 DUP12 ADD CALLDATALOAD PUSH8 0xFFFFFFFFFFFFFFFF DUP2 GT ISZERO PUSH2 0x128A JUMPI PUSH2 0x1289 PUSH2 0x19C6 JUMP JUMPDEST JUMPDEST PUSH2 0x1296 DUP14 DUP3 DUP15 ADD PUSH2 0xEA4 JUMP JUMPDEST SWAP7 POP SWAP7 POP POP PUSH1 0x60 DUP12 ADD CALLDATALOAD PUSH8 0xFFFFFFFFFFFFFFFF DUP2 GT ISZERO PUSH2 0x12B9 JUMPI PUSH2 0x12B8 PUSH2 0x19C6 JUMP JUMPDEST JUMPDEST PUSH2 0x12C5 DUP14 DUP3 DUP15 ADD PUSH2 0xEA4 JUMP JUMPDEST SWAP5 POP SWAP5 POP POP PUSH1 0x80 PUSH2 0x12D8 DUP14 DUP3 DUP15 ADD PUSH2 0xF28 JUMP JUMPDEST SWAP3 POP POP PUSH1 0xA0 DUP12 ADD CALLDATALOAD PUSH8 0xFFFFFFFFFFFFFFFF DUP2 GT ISZERO PUSH2 0x12F9 JUMPI PUSH2 0x12F8 PUSH2 0x19C6 JUMP JUMPDEST JUMPDEST PUSH2 0x1305 DUP14 DUP3 DUP15 ADD PUSH2 0xE48 JUMP JUMPDEST SWAP2 POP POP SWAP3 SWAP6 SWAP9 SWAP12 SWAP2 SWAP5 SWAP8 SWAP11 POP SWAP3 SWAP6 SWAP9 POP JUMP JUMPDEST PUSH1 0x0 DUP1 PUSH1 0x0 DUP1 PUSH1 0x0 DUP1 PUSH1 0x0 DUP1 PUSH1 0xA0 DUP10 DUP12 SUB SLT ISZERO PUSH2 0x1337 JUMPI PUSH2 0x1336 PUSH2 0x19CB JUMP JUMPDEST JUMPDEST PUSH1 0x0 DUP10 ADD CALLDATALOAD PUSH8 0xFFFFFFFFFFFFFFFF DUP2 GT ISZERO PUSH2 0x1355 JUMPI PUSH2 0x1354 PUSH2 0x19C6 JUMP JUMPDEST JUMPDEST PUSH2 0x1361 DUP12 DUP3 DUP13 ADD PUSH2 0xEA4 JUMP JUMPDEST SWAP9 POP SWAP9 POP POP PUSH1 0x20 DUP10 ADD CALLDATALOAD PUSH8 0xFFFFFFFFFFFFFFFF DUP2 GT ISZERO PUSH2 0x1384 JUMPI PUSH2 0x1383 PUSH2 0x19C6 JUMP JUMPDEST JUMPDEST PUSH2 0x1390 DUP12 DUP3 DUP13 ADD PUSH2 0xEA4 JUMP JUMPDEST SWAP7 POP SWAP7 POP POP PUSH1 0x40 DUP10 ADD CALLDATALOAD PUSH8 0xFFFFFFFFFFFFFFFF DUP2 GT ISZERO PUSH2 0x13B3 JUMPI PUSH2 0x13B2 PUSH2 0x19C6 JUMP JUMPDEST JUMPDEST PUSH2 0x13BF DUP12 DUP3 DUP13 ADD PUSH2 0xEA4 JUMP JUMPDEST SWAP5 POP SWAP5 POP POP PUSH1 0x60 PUSH2 0x13D2 DUP12 DUP3 DUP13 ADD PUSH2 0xF28 JUMP JUMPDEST SWAP3 POP POP PUSH1 0x80 PUSH2 0x13E3 DUP12 DUP3 DUP13 ADD PUSH2 0xF28 JUMP JUMPDEST SWAP2 POP POP SWAP3 SWAP6 SWAP9 POP SWAP3 SWAP6 SWAP9 SWAP1 SWAP4 SWAP7 POP JUMP JUMPDEST PUSH1 0x0 PUSH2 0x13FF DUP4 DUP4 PUSH2 0x1517 JUMP JUMPDEST SWAP1 POP SWAP3 SWAP2 POP POP JUMP JUMPDEST PUSH1 0x0 PUSH2 0x1413 DUP4 DUP4 PUSH2 0x16D0 JUMP JUMPDEST PUSH1 0x20 DUP4 ADD SWAP1 POP SWAP3 SWAP2 POP POP JUMP JUMPDEST PUSH1 0x0 PUSH2 0x142A DUP3 PUSH2 0x182C JUMP JUMPDEST PUSH2 0x1434 DUP2 DUP6 PUSH2 0x1867 JUMP JUMPDEST SWAP4 POP DUP4 PUSH1 0x20 DUP3 MUL DUP6 ADD PUSH2 0x1446 DUP6 PUSH2 0x180C JUMP JUMPDEST DUP1 PUSH1 0x0 JUMPDEST DUP6 DUP2 LT ISZERO PUSH2 0x1482 JUMPI DUP5 DUP5 SUB DUP10 MSTORE DUP2 MLOAD PUSH2 0x1463 DUP6 DUP3 PUSH2 0x13F3 JUMP JUMPDEST SWAP5 POP PUSH2 0x146E DUP4 PUSH2 0x184D JUMP JUMPDEST SWAP3 POP PUSH1 0x20 DUP11 ADD SWAP10 POP POP PUSH1 0x1 DUP2 ADD SWAP1 POP PUSH2 0x144A JUMP JUMPDEST POP DUP3 SWAP8 POP DUP8 SWAP6 POP POP POP POP POP POP SWAP3 SWAP2 POP POP JUMP JUMPDEST PUSH1 0x0 PUSH2 0x149F DUP3 PUSH2 0x1837 JUMP JUMPDEST PUSH2 0x14A9 DUP2 DUP6 PUSH2 0x1878 JUMP JUMPDEST SWAP4 POP PUSH2 0x14B4 DUP4 PUSH2 0x181C JUMP JUMPDEST DUP1 PUSH1 0x0 JUMPDEST DUP4 DUP2 LT ISZERO PUSH2 0x14E5 JUMPI DUP2 MLOAD PUSH2 0x14CC DUP9 DUP3 PUSH2 0x1407 JUMP JUMPDEST SWAP8 POP PUSH2 0x14D7 DUP4 PUSH2 0x185A JUMP JUMPDEST SWAP3 POP POP PUSH1 0x1 DUP2 ADD SWAP1 POP PUSH2 0x14B8 JUMP JUMPDEST POP DUP6 SWAP4 POP POP POP POP SWAP3 SWAP2 POP POP JUMP JUMPDEST PUSH1 0x0 PUSH2 0x14FE DUP4 DUP6 PUSH2 0x189A JUMP JUMPDEST SWAP4 POP PUSH2 0x150B DUP4 DUP6 DUP5 PUSH2 0x18AF JUMP JUMPDEST DUP3 DUP5 ADD SWAP1 POP SWAP4 SWAP3 POP POP POP JUMP JUMPDEST PUSH1 0x0 PUSH2 0x1522 DUP3 PUSH2 0x1842 JUMP JUMPDEST PUSH2 0x152C DUP2 DUP6 PUSH2 0x1889 JUMP JUMPDEST SWAP4 POP PUSH2 0x153C DUP2 DUP6 PUSH1 0x20 DUP7 ADD PUSH2 0x18BE JUMP JUMPDEST PUSH2 0x1545 DUP2 PUSH2 0x19D0 JUMP JUMPDEST DUP5 ADD SWAP2 POP POP SWAP3 SWAP2 POP POP JUMP JUMPDEST PUSH1 0x0 PUSH1 0xA0 DUP4 ADD PUSH1 0x0 DUP4 ADD MLOAD DUP5 DUP3 SUB PUSH1 0x0 DUP7 ADD MSTORE PUSH2 0x156D DUP3 DUP3 PUSH2 0x1517 JUMP JUMPDEST SWAP2 POP POP PUSH1 0x20 DUP4 ADD MLOAD DUP5 DUP3 SUB PUSH1 0x20 DUP7 ADD MSTORE PUSH2 0x1587 DUP3 DUP3 PUSH2 0x1517 JUMP JUMPDEST SWAP2 POP POP PUSH1 0x40 DUP4 ADD MLOAD DUP5 DUP3 SUB PUSH1 0x40 DUP7 ADD MSTORE PUSH2 0x15A1 DUP3 DUP3 PUSH2 0x1517 JUMP JUMPDEST SWAP2 POP POP PUSH1 0x60 DUP4 ADD MLOAD PUSH2 0x15B6 PUSH1 0x60 DUP7 ADD DUP3 PUSH2 0x16D0 JUMP JUMPDEST POP PUSH1 0x80 DUP4 ADD MLOAD PUSH2 0x15C9 PUSH1 0x80 DUP7 ADD DUP3 PUSH2 0x16D0 JUMP JUMPDEST POP DUP1 SWAP2 POP POP SWAP3 SWAP2 POP POP JUMP JUMPDEST PUSH1 0x0 PUSH1 0x80 DUP4 ADD PUSH1 0x0 DUP4 ADD MLOAD DUP5 DUP3 SUB PUSH1 0x0 DUP7 ADD MSTORE PUSH2 0x15F1 DUP3 DUP3 PUSH2 0x1517 JUMP JUMPDEST SWAP2 POP POP PUSH1 0x20 DUP4 ADD MLOAD DUP5 DUP3 SUB PUSH1 0x20 DUP7 ADD MSTORE PUSH2 0x160B DUP3 DUP3 PUSH2 0x1517 JUMP JUMPDEST SWAP2 POP POP PUSH1 0x40 DUP4 ADD MLOAD PUSH2 0x1620 PUSH1 0x40 DUP7 ADD DUP3 PUSH2 0x16D0 JUMP JUMPDEST POP PUSH1 0x60 DUP4 ADD MLOAD DUP5 DUP3 SUB PUSH1 0x60 DUP7 ADD MSTORE PUSH2 0x1638 DUP3 DUP3 PUSH2 0x141F JUMP JUMPDEST SWAP2 POP POP DUP1 SWAP2 POP POP SWAP3 SWAP2 POP POP JUMP JUMPDEST PUSH1 0x0 PUSH1 0xA0 DUP4 ADD PUSH1 0x0 DUP4 ADD MLOAD DUP5 DUP3 SUB PUSH1 0x0 DUP7 ADD MSTORE PUSH2 0x1662 DUP3 DUP3 PUSH2 0x1517 JUMP JUMPDEST SWAP2 POP POP PUSH1 0x20 DUP4 ADD MLOAD DUP5 DUP3 SUB PUSH1 0x20 DUP7 ADD MSTORE PUSH2 0x167C DUP3 DUP3 PUSH2 0x1517 JUMP JUMPDEST SWAP2 POP POP PUSH1 0x40 DUP4 ADD MLOAD DUP5 DUP3 SUB PUSH1 0x40 DUP7 ADD MSTORE PUSH2 0x1696 DUP3 DUP3 PUSH2 0x1517 JUMP JUMPDEST SWAP2 POP POP PUSH1 0x60 DUP4 ADD MLOAD DUP5 DUP3 SUB PUSH1 0x60 DUP7 ADD MSTORE PUSH2 0x16B0 DUP3 DUP3 PUSH2 0x1494 JUMP JUMPDEST SWAP2 POP POP PUSH1 0x80 DUP4 ADD MLOAD PUSH2 0x16C5 PUSH1 0x80 DUP7 ADD DUP3 PUSH2 0x16D0 JUMP JUMPDEST POP DUP1 SWAP2 POP POP SWAP3 SWAP2 POP POP JUMP JUMPDEST PUSH2 0x16D9 DUP2 PUSH2 0x18A5 JUMP JUMPDEST DUP3 MSTORE POP POP JUMP JUMPDEST PUSH1 0x0 PUSH2 0x16EC DUP3 DUP5 DUP7 PUSH2 0x14F2 JUMP JUMPDEST SWAP2 POP DUP2 SWAP1 POP SWAP4 SWAP3 POP POP POP JUMP JUMPDEST PUSH1 0x0 PUSH1 0x20 DUP3 ADD SWAP1 POP DUP2 DUP2 SUB PUSH1 0x0 DUP4 ADD MSTORE PUSH2 0x1712 DUP2 DUP5 PUSH2 0x1550 JUMP JUMPDEST SWAP1 POP SWAP3 SWAP2 POP POP JUMP JUMPDEST PUSH1 0x0 PUSH1 0x20 DUP3 ADD SWAP1 POP DUP2 DUP2 SUB PUSH1 0x0 DUP4 ADD MSTORE PUSH2 0x1734 DUP2 DUP5 PUSH2 0x15D4 JUMP JUMPDEST SWAP1 POP SWAP3 SWAP2 POP POP JUMP JUMPDEST PUSH1 0x0 PUSH1 0x20 DUP3 ADD SWAP1 POP DUP2 DUP2 SUB PUSH1 0x0 DUP4 ADD MSTORE PUSH2 0x1756 DUP2 DUP5 PUSH2 0x1645 JUMP JUMPDEST SWAP1 POP SWAP3 SWAP2 POP POP JUMP JUMPDEST PUSH1 0x0 PUSH2 0x1768 PUSH2 0x1779 JUMP JUMPDEST SWAP1 POP PUSH2 0x1774 DUP3 DUP3 PUSH2 0x1923 JUMP JUMPDEST SWAP2 SWAP1 POP JUMP JUMPDEST PUSH1 0x0 PUSH1 0x40 MLOAD SWAP1 POP SWAP1 JUMP JUMPDEST PUSH1 0x0 PUSH8 0xFFFFFFFFFFFFFFFF DUP3 GT ISZERO PUSH2 0x179E JUMPI PUSH2 0x179D PUSH2 0x1983 JUMP JUMPDEST JUMPDEST PUSH1 0x20 DUP3 MUL SWAP1 POP PUSH1 0x20 DUP2 ADD SWAP1 POP SWAP2 SWAP1 POP JUMP JUMPDEST PUSH1 0x0 PUSH8 0xFFFFFFFFFFFFFFFF DUP3 GT ISZERO PUSH2 0x17CA JUMPI PUSH2 0x17C9 PUSH2 0x1983 JUMP JUMPDEST JUMPDEST PUSH1 0x20 DUP3 MUL SWAP1 POP PUSH1 0x20 DUP2 ADD SWAP1 POP SWAP2 SWAP1 POP JUMP JUMPDEST PUSH1 0x0 PUSH8 0xFFFFFFFFFFFFFFFF DUP3 GT ISZERO PUSH2 0x17F6 JUMPI PUSH2 0x17F5 PUSH2 0x1983 JUMP JUMPDEST JUMPDEST PUSH2 0x17FF DUP3 PUSH2 0x19D0 JUMP JUMPDEST SWAP1 POP PUSH1 0x20 DUP2 ADD SWAP1 POP SWAP2 SWAP1 POP JUMP JUMPDEST PUSH1 0x0 DUP2 SWAP1 POP PUSH1 0x20 DUP3 ADD SWAP1 POP SWAP2 SWAP1 POP JUMP JUMPDEST PUSH1 0x0 DUP2 SWAP1 POP PUSH1 0x20 DUP3 ADD SWAP1 POP SWAP2 SWAP1 POP JUMP JUMPDEST PUSH1 0x0 DUP2 MLOAD SWAP1 POP SWAP2 SWAP1 POP JUMP JUMPDEST PUSH1 0x0 DUP2 MLOAD SWAP1 POP SWAP2 SWAP1 POP JUMP JUMPDEST PUSH1 0x0 DUP2 MLOAD SWAP1 POP SWAP2 SWAP1 POP JUMP JUMPDEST PUSH1 0x0 PUSH1 0x20 DUP3 ADD SWAP1 POP SWAP2 SWAP1 POP JUMP JUMPDEST PUSH1 0x0 PUSH1 0x20 DUP3 ADD SWAP1 POP SWAP2 SWAP1 POP JUMP JUMPDEST PUSH1 0x0 DUP3 DUP3 MSTORE PUSH1 0x20 DUP3 ADD SWAP1 POP SWAP3 SWAP2 POP POP JUMP JUMPDEST PUSH1 0x0 DUP3 DUP3 MSTORE PUSH1 0x20 DUP3 ADD SWAP1 POP SWAP3 SWAP2 POP POP JUMP JUMPDEST PUSH1 0x0 DUP3 DUP3 MSTORE PUSH1 0x20 DUP3 ADD SWAP1 POP SWAP3 SWAP2 POP POP JUMP JUMPDEST PUSH1 0x0 DUP2 SWAP1 POP SWAP3 SWAP2 POP POP JUMP JUMPDEST PUSH1 0x0 DUP2 SWAP1 POP SWAP2 SWAP1 POP JUMP JUMPDEST DUP3 DUP2 DUP4 CALLDATACOPY PUSH1 0x0 DUP4 DUP4 ADD MSTORE POP POP POP JUMP JUMPDEST PUSH1 0x0 JUMPDEST DUP4 DUP2 LT ISZERO PUSH2 0x18DC JUMPI DUP1 DUP3 ADD MLOAD DUP2 DUP5 ADD MSTORE PUSH1 0x20 DUP2 ADD SWAP1 POP PUSH2 0x18C1 JUMP JUMPDEST DUP4 DUP2 GT ISZERO PUSH2 0x18EB JUMPI PUSH1 0x0 DUP5 DUP5 ADD MSTORE JUMPDEST POP POP POP POP JUMP JUMPDEST PUSH1 0x0 PUSH1 0x2 DUP3 DIV SWAP1 POP PUSH1 0x1 DUP3 AND DUP1 PUSH2 0x1909 JUMPI PUSH1 0x7F DUP3 AND SWAP2 POP JUMPDEST PUSH1 0x20 DUP3 LT DUP2 EQ ISZERO PUSH2 0x191D JUMPI PUSH2 0x191C PUSH2 0x1954 JUMP JUMPDEST JUMPDEST POP SWAP2 SWAP1 POP JUMP JUMPDEST PUSH2 0x192C DUP3 PUSH2 0x19D0 JUMP JUMPDEST DUP2 ADD DUP2 DUP2 LT PUSH8 0xFFFFFFFFFFFFFFFF DUP3 GT OR ISZERO PUSH2 0x194B JUMPI PUSH2 0x194A PUSH2 0x1983 JUMP JUMPDEST JUMPDEST DUP1 PUSH1 0x40 MSTORE POP POP POP JUMP JUMPDEST PUSH32 0x4E487B7100000000000000000000000000000000000000000000000000000000 PUSH1 0x0 MSTORE PUSH1 0x22 PUSH1 0x4 MSTORE PUSH1 0x24 PUSH1 0x0 REVERT JUMPDEST PUSH32 0x4E487B7100000000000000000000000000000000000000000000000000000000 PUSH1 0x0 MSTORE PUSH1 0x41 PUSH1 0x4 MSTORE PUSH1 0x24 PUSH1 0x0 REVERT JUMPDEST PUSH1 0x0 DUP1 REVERT JUMPDEST PUSH1 0x0 DUP1 REVERT JUMPDEST PUSH1 0x0 DUP1 REVERT JUMPDEST PUSH1 0x0 DUP1 REVERT JUMPDEST PUSH1 0x0 DUP1 REVERT JUMPDEST PUSH1 0x0 DUP1 REVERT JUMPDEST PUSH1 0x0 PUSH1 0x1F NOT PUSH1 0x1F DUP4 ADD AND SWAP1 POP SWAP2 SWAP1 POP JUMP JUMPDEST PUSH2 0x19EA DUP2 PUSH2 0x18A5 JUMP JUMPDEST DUP2 EQ PUSH2 0x19F5 JUMPI PUSH1 0x0 DUP1 REVERT JUMPDEST POP JUMP INVALID LOG2 PUSH5 0x6970667358 0x22 SLT KECCAK256 SWAP3 COINBASE DUP12 DUP8 0x48 MSTORE8 CREATE 0xA6 0xC0 0xF6 SHR PUSH31 0xDDF516C8748E8F3F472EDD6945F576D91E47F1EB64736F6C63430008060033 "
		},
		"gasEstimates": {
			"creation": {
				"codeDepositCost": "1340400",
				"executionCost": "1397",
				"totalCost": "1341797"
			},
			"external": {
				"addCountry(string,string,string,uint256,uint256)": "infinite",
				"addLGA(string,string,string,string,uint256,string[])": "infinite",
				"addState(string,string,string,string,uint256[],uint256)": "infinite",
				"seeCountry(string)": "infinite",
				"seeLGA(string,string,string)": "infinite",
				"seeState(string,string)": "infinite"
			}
		},
		"methodIdentifiers": {
			"addCountry(string,string,string,uint256,uint256)": "ae1f81e4",
			"addLGA(string,string,string,string,uint256,string[])": "e027eb51",
			"addState(string,string,string,string,uint256[],uint256)": "40d48950",
			"seeCountry(string)": "30705565",
			"seeLGA(string,string,string)": "7d31f1ee",
			"seeState(string,string)": "b3fde2b1"
		}
	},
	"abi": [
		{
			"inputs": [
				{
					"internalType": "string",
					"name": "_cn",
					"type": "string"
				},
				{
					"internalType": "string",
					"name": "_p",
					"type": "string"
				},
				{
					"internalType": "string",
					"name": "_c",
					"type": "string"
				},
				{
					"internalType": "uint256",
					"name": "_gdp",
					"type": "uint256"
				},
				{
					"internalType": "uint256",
					"name": "_cR",
					"type": "uint256"
				}
			],
			"name": "addCountry",
			"outputs": [],
			"stateMutability": "nonpayable",
			"type": "function"
		},
		{
			"inputs": [
				{
					"internalType": "string",
					"name": "_cn",
					"type": "string"
				},
				{
					"internalType": "string",
					"name": "_st",
					"type": "string"
				},
				{
					"internalType": "string",
					"name": "_lg",
					"type": "string"
				},
				{
					"internalType": "string",
					"name": "_chairman",
					"type": "string"
				},
				{
					"internalType": "uint256",
					"name": "_Revenue",
					"type": "uint256"
				},
				{
					"internalType": "string[]",
					"name": "_markets",
					"type": "string[]"
				}
			],
			"name": "addLGA",
			"outputs": [],
			"stateMutability": "nonpayable",
			"type": "function"
		},
		{
			"inputs": [
				{
					"internalType": "string",
					"name": "_state",
					"type": "string"
				},
				{
					"internalType": "string",
					"name": "_cn",
					"type": "string"
				},
				{
					"internalType": "string",
					"name": "_governor",
					"type": "string"
				},
				{
					"internalType": "string",
					"name": "_capital",
					"type": "string"
				},
				{
					"internalType": "uint256[]",
					"name": "_zipCodes",
					"type": "uint256[]"
				},
				{
					"internalType": "uint256",
					"name": "_IGR",
					"type": "uint256"
				}
			],
			"name": "addState",
			"outputs": [],
			"stateMutability": "nonpayable",
			"type": "function"
		},
		{
			"inputs": [
				{
					"internalType": "string",
					"name": "_cn",
					"type": "string"
				}
			],
			"name": "seeCountry",
			"outputs": [
				{
					"components": [
						{
							"internalType": "string",
							"name": "countryName",
							"type": "string"
						},
						{
							"internalType": "string",
							"name": "president",
							"type": "string"
						},
						{
							"internalType": "string",
							"name": "capital",
							"type": "string"
						},
						{
							"internalType": "uint256",
							"name": "GDP",
							"type": "uint256"
						},
						{
							"internalType": "uint256",
							"name": "countryRevenue",
							"type": "uint256"
						}
					],
					"internalType": "struct CountryDB.CountryWithoutStates",
					"name": "c",
					"type": "tuple"
				}
			],
			"stateMutability": "view",
			"type": "function"
		},
		{
			"inputs": [
				{
					"internalType": "string",
					"name": "_lg",
					"type": "string"
				},
				{
					"internalType": "string",
					"name": "_st",
					"type": "string"
				},
				{
					"internalType": "string",
					"name": "_cn",
					"type": "string"
				}
			],
			"name": "seeLGA",
			"outputs": [
				{
					"components": [
						{
							"internalType": "string",
							"name": "lgaName",
							"type": "string"
						},
						{
							"internalType": "string",
							"name": "Chairman",
							"type": "string"
						},
						{
							"internalType": "uint256",
							"name": "Revenue",
							"type": "uint256"
						},
						{
							"internalType": "string[]",
							"name": "markets",
							"type": "string[]"
						}
					],
					"internalType": "struct CountryDB.LGAWithoutMapping",
					"name": "lg",
					"type": "tuple"
				}
			],
			"stateMutability": "view",
			"type": "function"
		},
		{
			"inputs": [
				{
					"internalType": "string",
					"name": "_st",
					"type": "string"
				},
				{
					"internalType": "string",
					"name": "_c",
					"type": "string"
				}
			],
			"name": "seeState",
			"outputs": [
				{
					"components": [
						{
							"internalType": "string",
							"name": "stateName",
							"type": "string"
						},
						{
							"internalType": "string",
							"name": "governor",
							"type": "string"
						},
						{
							"internalType": "string",
							"name": "capital",
							"type": "string"
						},
						{
							"internalType": "uint256[]",
							"name": "zipCodes",
							"type": "uint256[]"
						},
						{
							"internalType": "uint256",
							"name": "IGR",
							"type": "uint256"
						}
					],
					"internalType": "struct CountryDB.StateWithoutmapping",
					"name": "s",
					"type": "tuple"
				}
			],
			"stateMutability": "view",
			"type": "function"
		}
	]
}