{
	"data": {
		"bytecode": {
			"linkReferences": {},
			"object": "608060405234801561001057600080fd5b50612030806100206000396000f3fe608060405234801561001057600080fd5b506004361061007d5760003560e01c8063ae1f81e41161005b578063ae1f81e4146100fe578063b3fde2b11461011a578063d0e067ea1461014a578063e027eb511461017a5761007d565b8063307055651461008257806340d48950146100b25780637d31f1ee146100ce575b600080fd5b61009c600480360381019061009791906112e8565b610196565b6040516100a99190611c1a565b60405180910390f35b6100cc60048036038101906100c7919061146a565b6103a3565b005b6100e860048036038101906100e391906113b6565b610452565b6040516100f59190611c3c565b60405180910390f35b610118600480360381019061011391906116c2565b6106de565b005b610134600480360381019061012f9190611335565b61075a565b6040516101419190611c5e565b60405180910390f35b610164600480360381019061015f919061129f565b6109d7565b6040516101719190611bf8565b60405180910390f35b610194600480360381019061018f9190611596565b610cee565b005b61019e610daa565b60008084846040516101b1929190611bc8565b908152602001604051809103902090508060000180546101d090611e4c565b80601f01602080910402602001604051908101604052809291908181526020018280546101fc90611e4c565b80156102495780601f1061021e57610100808354040283529160200191610249565b820191906000526020600020905b81548152906001019060200180831161022c57829003601f168201915b5050505050826000018190525080600101805461026590611e4c565b80601f016020809104026020016040519081016040528092919081815260200182805461029190611e4c565b80156102de5780601f106102b3576101008083540402835291602001916102de565b820191906000526020600020905b8154815290600101906020018083116102c157829003601f168201915b505050505082602001819052508060020180546102fa90611e4c565b80601f016020809104026020016040519081016040528092919081815260200182805461032690611e4c565b80156103735780601f1061034857610100808354040283529160200191610373565b820191906000526020600020905b81548152906001019060200180831161035657829003601f168201915b50505050508260400181905250806003015482606001818152505080600401548260800181815250505092915050565b60008089896040516103b6929190611bc8565b90815260200160405180910390206005018b8b6040516103d7929190611bc8565b908152602001604051809103902090508a8a8260000191906103fa929190610dd9565b50868682600101919061040e929190610dd9565b508484826002019190610422929190610dd9565b508281600301908051906020019061043b929190610e5f565b508181600401819055505050505050505050505050565b61045a610eac565b600080848460405161046d929190611bc8565b9081526020016040518091039020600501868660405161048e929190611bc8565b908152602001604051809103902060050188886040516104af929190611bc8565b908152602001604051809103902090508060000180546104ce90611e4c565b80601f01602080910402602001604051908101604052809291908181526020018280546104fa90611e4c565b80156105475780601f1061051c57610100808354040283529160200191610547565b820191906000526020600020905b81548152906001019060200180831161052a57829003601f168201915b5050505050826000018190525080600101805461056390611e4c565b80601f016020809104026020016040519081016040528092919081815260200182805461058f90611e4c565b80156105dc5780601f106105b1576101008083540402835291602001916105dc565b820191906000526020600020905b8154815290600101906020018083116105bf57829003601f168201915b50505050508260200181905250806002015482604001818152505080600301805480602002602001604051908101604052809291908181526020016000905b828210156106c757838290600052602060002001805461063a90611e4c565b80601f016020809104026020016040519081016040528092919081815260200182805461066690611e4c565b80156106b35780601f10610688576101008083540402835291602001916106b3565b820191906000526020600020905b81548152906001019060200180831161069657829003601f168201915b50505050508152602001906001019061061b565b505050508260600181905250509695505050505050565b60008089896040516106f1929190611bc8565b908152602001604051809103902090508888826000019190610714929190610dd9565b508686826001019190610728929190610dd9565b50848482600201919061073c929190610dd9565b50828160030181905550818160040181905550505050505050505050565b610762610ed4565b6000808484604051610775929190611bc8565b90815260200160405180910390206005018686604051610796929190611bc8565b908152602001604051809103902090508060000180546107b590611e4c565b80601f01602080910402602001604051908101604052809291908181526020018280546107e190611e4c565b801561082e5780601f106108035761010080835404028352916020019161082e565b820191906000526020600020905b81548152906001019060200180831161081157829003601f168201915b5050505050826000018190525080600101805461084a90611e4c565b80601f016020809104026020016040519081016040528092919081815260200182805461087690611e4c565b80156108c35780601f10610898576101008083540402835291602001916108c3565b820191906000526020600020905b8154815290600101906020018083116108a657829003601f168201915b505050505082602001819052508060020180546108df90611e4c565b80601f016020809104026020016040519081016040528092919081815260200182805461090b90611e4c565b80156109585780601f1061092d57610100808354040283529160200191610958565b820191906000526020600020905b81548152906001019060200180831161093b57829003601f168201915b50505050508260400181905250806003018054806020026020016040519081016040528092919081815260200182805480156109b357602002820191906000526020600020905b81548152602001906001019080831161099f575b50505050508260600181905250806004015482608001818152505050949350505050565b6060815167ffffffffffffffff8111156109f4576109f3611f85565b5b604051908082528060200260200182016040528015610a2d57816020015b610a1a610daa565b815260200190600190039081610a125790505b50905060005b8251811015610ce857600080848381518110610a5257610a51611f56565b5b6020026020010151604051610a679190611be1565b90815260200160405180910390209050806000018054610a8690611e4c565b80601f0160208091040260200160405190810160405280929190818152602001828054610ab290611e4c565b8015610aff5780601f10610ad457610100808354040283529160200191610aff565b820191906000526020600020905b815481529060010190602001808311610ae257829003601f168201915b5050505050838381518110610b1757610b16611f56565b5b602002602001015160000181905250806001018054610b3590611e4c565b80601f0160208091040260200160405190810160405280929190818152602001828054610b6190611e4c565b8015610bae5780601f10610b8357610100808354040283529160200191610bae565b820191906000526020600020905b815481529060010190602001808311610b9157829003601f168201915b5050505050838381518110610bc657610bc5611f56565b5b602002602001015160200181905250806002018054610be490611e4c565b80601f0160208091040260200160405190810160405280929190818152602001828054610c1090611e4c565b8015610c5d5780601f10610c3257610100808354040283529160200191610c5d565b820191906000526020600020905b815481529060010190602001808311610c4057829003601f168201915b5050505050838381518110610c7557610c74611f56565b5b6020026020010151604001819052508060030154838381518110610c9c57610c9b611f56565b5b602002602001015160600181815250508060040154838381518110610cc457610cc3611f56565b5b60200260200101516080018181525050508080610ce090611eaf565b915050610a33565b50919050565b6000808b8b604051610d01929190611bc8565b90815260200160405180910390206005018989604051610d22929190611bc8565b90815260200160405180910390206005018787604051610d43929190611bc8565b908152602001604051809103902090508686826000019190610d66929190610dd9565b508484826001019190610d7a929190610dd9565b5082816002018190555081816003019080519060200190610d9c929190610f03565b505050505050505050505050565b6040518060a0016040528060608152602001606081526020016060815260200160008152602001600081525090565b828054610de590611e4c565b90600052602060002090601f016020900481019282610e075760008555610e4e565b82601f10610e2057803560ff1916838001178555610e4e565b82800160010185558215610e4e579182015b82811115610e4d578235825591602001919060010190610e32565b5b509050610e5b9190610f63565b5090565b828054828255906000526020600020908101928215610e9b579160200282015b82811115610e9a578251825591602001919060010190610e7f565b5b509050610ea89190610f63565b5090565b6040518060800160405280606081526020016060815260200160008152602001606081525090565b6040518060a0016040528060608152602001606081526020016060815260200160608152602001600081525090565b828054828255906000526020600020908101928215610f52579160200282015b82811115610f51578251829080519060200190610f41929190610f80565b5091602001919060010190610f23565b5b509050610f5f9190611006565b5090565b5b80821115610f7c576000816000905550600101610f64565b5090565b828054610f8c90611e4c565b90600052602060002090601f016020900481019282610fae5760008555610ff5565b82601f10610fc757805160ff1916838001178555610ff5565b82800160010185558215610ff5579182015b82811115610ff4578251825591602001919060010190610fd9565b5b5090506110029190610f63565b5090565b5b80821115611026576000818161101d919061102a565b50600101611007565b5090565b50805461103690611e4c565b6000825580601f106110485750611067565b601f0160209004906000526020600020908101906110669190610f63565b5b50565b600061107d61107884611ca5565b611c80565b905080838252602082019050828560208602820111156110a05761109f611fbe565b5b60005b858110156110ee57813567ffffffffffffffff8111156110c6576110c5611fb9565b5b8086016110d3898261125c565b855260208501945060208401935050506001810190506110a3565b5050509392505050565b600061110b61110684611cd1565b611c80565b9050808382526020820190508285602086028201111561112e5761112d611fbe565b5b60005b8581101561115e5781611144888261128a565b845260208401935060208301925050600181019050611131565b5050509392505050565b600061117b61117684611cfd565b611c80565b90508281526020810184848401111561119757611196611fc3565b5b6111a2848285611e0a565b509392505050565b600082601f8301126111bf576111be611fb9565b5b81356111cf84826020860161106a565b91505092915050565b600082601f8301126111ed576111ec611fb9565b5b81356111fd8482602086016110f8565b91505092915050565b60008083601f84011261121c5761121b611fb9565b5b8235905067ffffffffffffffff81111561123957611238611fb4565b5b60208301915083600182028301111561125557611254611fbe565b5b9250929050565b600082601f83011261127157611270611fb9565b5b8135611281848260208601611168565b91505092915050565b60008135905061129981611fe3565b92915050565b6000602082840312156112b5576112b4611fcd565b5b600082013567ffffffffffffffff8111156112d3576112d2611fc8565b5b6112df848285016111aa565b91505092915050565b600080602083850312156112ff576112fe611fcd565b5b600083013567ffffffffffffffff81111561131d5761131c611fc8565b5b61132985828601611206565b92509250509250929050565b6000806000806040858703121561134f5761134e611fcd565b5b600085013567ffffffffffffffff81111561136d5761136c611fc8565b5b61137987828801611206565b9450945050602085013567ffffffffffffffff81111561139c5761139b611fc8565b5b6113a887828801611206565b925092505092959194509250565b600080600080600080606087890312156113d3576113d2611fcd565b5b600087013567ffffffffffffffff8111156113f1576113f0611fc8565b5b6113fd89828a01611206565b9650965050602087013567ffffffffffffffff8111156114205761141f611fc8565b5b61142c89828a01611206565b9450945050604087013567ffffffffffffffff81111561144f5761144e611fc8565b5b61145b89828a01611206565b92509250509295509295509295565b60008060008060008060008060008060c08b8d03121561148d5761148c611fcd565b5b60008b013567ffffffffffffffff8111156114ab576114aa611fc8565b5b6114b78d828e01611206565b9a509a505060208b013567ffffffffffffffff8111156114da576114d9611fc8565b5b6114e68d828e01611206565b985098505060408b013567ffffffffffffffff81111561150957611508611fc8565b5b6115158d828e01611206565b965096505060608b013567ffffffffffffffff81111561153857611537611fc8565b5b6115448d828e01611206565b945094505060808b013567ffffffffffffffff81111561156757611566611fc8565b5b6115738d828e016111d8565b92505060a06115848d828e0161128a565b9150509295989b9194979a5092959850565b60008060008060008060008060008060c08b8d0312156115b9576115b8611fcd565b5b60008b013567ffffffffffffffff8111156115d7576115d6611fc8565b5b6115e38d828e01611206565b9a509a505060208b013567ffffffffffffffff81111561160657611605611fc8565b5b6116128d828e01611206565b985098505060408b013567ffffffffffffffff81111561163557611634611fc8565b5b6116418d828e01611206565b965096505060608b013567ffffffffffffffff81111561166457611663611fc8565b5b6116708d828e01611206565b945094505060806116838d828e0161128a565b92505060a08b013567ffffffffffffffff8111156116a4576116a3611fc8565b5b6116b08d828e016111aa565b9150509295989b9194979a5092959850565b60008060008060008060008060a0898b0312156116e2576116e1611fcd565b5b600089013567ffffffffffffffff811115611700576116ff611fc8565b5b61170c8b828c01611206565b9850985050602089013567ffffffffffffffff81111561172f5761172e611fc8565b5b61173b8b828c01611206565b9650965050604089013567ffffffffffffffff81111561175e5761175d611fc8565b5b61176a8b828c01611206565b9450945050606061177d8b828c0161128a565b925050608061178e8b828c0161128a565b9150509295985092959890939650565b60006117aa838361194b565b905092915050565b60006117be83836119b5565b905092915050565b60006117d28383611bb9565b60208301905092915050565b60006117e982611d5e565b6117f38185611db1565b93508360208202850161180585611d2e565b8060005b858110156118415784840389528151611822858261179e565b945061182d83611d8a565b925060208a01995050600181019050611809565b50829750879550505050505092915050565b600061185e82611d69565b6118688185611dc2565b93508360208202850161187a85611d3e565b8060005b858110156118b6578484038952815161189785826117b2565b94506118a283611d97565b925060208a0199505060018101905061187e565b50829750879550505050505092915050565b60006118d382611d74565b6118dd8185611dd3565b93506118e883611d4e565b8060005b8381101561191957815161190088826117c6565b975061190b83611da4565b9250506001810190506118ec565b5085935050505092915050565b60006119328385611df5565b935061193f838584611e0a565b82840190509392505050565b600061195682611d7f565b6119608185611de4565b9350611970818560208601611e19565b61197981611fd2565b840191505092915050565b600061198f82611d7f565b6119998185611df5565b93506119a9818560208601611e19565b80840191505092915050565b600060a08301600083015184820360008601526119d2828261194b565b915050602083015184820360208601526119ec828261194b565b91505060408301518482036040860152611a06828261194b565b9150506060830151611a1b6060860182611bb9565b506080830151611a2e6080860182611bb9565b508091505092915050565b600060a0830160008301518482036000860152611a56828261194b565b91505060208301518482036020860152611a70828261194b565b91505060408301518482036040860152611a8a828261194b565b9150506060830151611a9f6060860182611bb9565b506080830151611ab26080860182611bb9565b508091505092915050565b60006080830160008301518482036000860152611ada828261194b565b91505060208301518482036020860152611af4828261194b565b9150506040830151611b096040860182611bb9565b5060608301518482036060860152611b2182826117de565b9150508091505092915050565b600060a0830160008301518482036000860152611b4b828261194b565b91505060208301518482036020860152611b65828261194b565b91505060408301518482036040860152611b7f828261194b565b91505060608301518482036060860152611b9982826118c8565b9150506080830151611bae6080860182611bb9565b508091505092915050565b611bc281611e00565b82525050565b6000611bd5828486611926565b91508190509392505050565b6000611bed8284611984565b915081905092915050565b60006020820190508181036000830152611c128184611853565b905092915050565b60006020820190508181036000830152611c348184611a39565b905092915050565b60006020820190508181036000830152611c568184611abd565b905092915050565b60006020820190508181036000830152611c788184611b2e565b905092915050565b6000611c8a611c9b565b9050611c968282611e7e565b919050565b6000604051905090565b600067ffffffffffffffff821115611cc057611cbf611f85565b5b602082029050602081019050919050565b600067ffffffffffffffff821115611cec57611ceb611f85565b5b602082029050602081019050919050565b600067ffffffffffffffff821115611d1857611d17611f85565b5b611d2182611fd2565b9050602081019050919050565b6000819050602082019050919050565b6000819050602082019050919050565b6000819050602082019050919050565b600081519050919050565b600081519050919050565b600081519050919050565b600081519050919050565b6000602082019050919050565b6000602082019050919050565b6000602082019050919050565b600082825260208201905092915050565b600082825260208201905092915050565b600082825260208201905092915050565b600082825260208201905092915050565b600081905092915050565b6000819050919050565b82818337600083830152505050565b60005b83811015611e37578082015181840152602081019050611e1c565b83811115611e46576000848401525b50505050565b60006002820490506001821680611e6457607f821691505b60208210811415611e7857611e77611f27565b5b50919050565b611e8782611fd2565b810181811067ffffffffffffffff82111715611ea657611ea5611f85565b5b80604052505050565b6000611eba82611e00565b91507fffffffffffffffffffffffffffffffffffffffffffffffffffffffffffffffff821415611eed57611eec611ef8565b5b600182019050919050565b7f4e487b7100000000000000000000000000000000000000000000000000000000600052601160045260246000fd5b7f4e487b7100000000000000000000000000000000000000000000000000000000600052602260045260246000fd5b7f4e487b7100000000000000000000000000000000000000000000000000000000600052603260045260246000fd5b7f4e487b7100000000000000000000000000000000000000000000000000000000600052604160045260246000fd5b600080fd5b600080fd5b600080fd5b600080fd5b600080fd5b600080fd5b6000601f19601f8301169050919050565b611fec81611e00565b8114611ff757600080fd5b5056fea2646970667358221220ccd63eca6ab0eb33c278fad047d3b81a6b080fea5add95e7fd8ca5d3bd08e4af64736f6c63430008060033",
			"opcodes": "PUSH1 0x80 PUSH1 0x40 MSTORE CALLVALUE DUP1 ISZERO PUSH2 0x10 JUMPI PUSH1 0x0 DUP1 REVERT JUMPDEST POP PUSH2 0x2030 DUP1 PUSH2 0x20 PUSH1 0x0 CODECOPY PUSH1 0x0 RETURN INVALID PUSH1 0x80 PUSH1 0x40 MSTORE CALLVALUE DUP1 ISZERO PUSH2 0x10 JUMPI PUSH1 0x0 DUP1 REVERT JUMPDEST POP PUSH1 0x4 CALLDATASIZE LT PUSH2 0x7D JUMPI PUSH1 0x0 CALLDATALOAD PUSH1 0xE0 SHR DUP1 PUSH4 0xAE1F81E4 GT PUSH2 0x5B JUMPI DUP1 PUSH4 0xAE1F81E4 EQ PUSH2 0xFE JUMPI DUP1 PUSH4 0xB3FDE2B1 EQ PUSH2 0x11A JUMPI DUP1 PUSH4 0xD0E067EA EQ PUSH2 0x14A JUMPI DUP1 PUSH4 0xE027EB51 EQ PUSH2 0x17A JUMPI PUSH2 0x7D JUMP JUMPDEST DUP1 PUSH4 0x30705565 EQ PUSH2 0x82 JUMPI DUP1 PUSH4 0x40D48950 EQ PUSH2 0xB2 JUMPI DUP1 PUSH4 0x7D31F1EE EQ PUSH2 0xCE JUMPI JUMPDEST PUSH1 0x0 DUP1 REVERT JUMPDEST PUSH2 0x9C PUSH1 0x4 DUP1 CALLDATASIZE SUB DUP2 ADD SWAP1 PUSH2 0x97 SWAP2 SWAP1 PUSH2 0x12E8 JUMP JUMPDEST PUSH2 0x196 JUMP JUMPDEST PUSH1 0x40 MLOAD PUSH2 0xA9 SWAP2 SWAP1 PUSH2 0x1C1A JUMP JUMPDEST PUSH1 0x40 MLOAD DUP1 SWAP2 SUB SWAP1 RETURN JUMPDEST PUSH2 0xCC PUSH1 0x4 DUP1 CALLDATASIZE SUB DUP2 ADD SWAP1 PUSH2 0xC7 SWAP2 SWAP1 PUSH2 0x146A JUMP JUMPDEST PUSH2 0x3A3 JUMP JUMPDEST STOP JUMPDEST PUSH2 0xE8 PUSH1 0x4 DUP1 CALLDATASIZE SUB DUP2 ADD SWAP1 PUSH2 0xE3 SWAP2 SWAP1 PUSH2 0x13B6 JUMP JUMPDEST PUSH2 0x452 JUMP JUMPDEST PUSH1 0x40 MLOAD PUSH2 0xF5 SWAP2 SWAP1 PUSH2 0x1C3C JUMP JUMPDEST PUSH1 0x40 MLOAD DUP1 SWAP2 SUB SWAP1 RETURN JUMPDEST PUSH2 0x118 PUSH1 0x4 DUP1 CALLDATASIZE SUB DUP2 ADD SWAP1 PUSH2 0x113 SWAP2 SWAP1 PUSH2 0x16C2 JUMP JUMPDEST PUSH2 0x6DE JUMP JUMPDEST STOP JUMPDEST PUSH2 0x134 PUSH1 0x4 DUP1 CALLDATASIZE SUB DUP2 ADD SWAP1 PUSH2 0x12F SWAP2 SWAP1 PUSH2 0x1335 JUMP JUMPDEST PUSH2 0x75A JUMP JUMPDEST PUSH1 0x40 MLOAD PUSH2 0x141 SWAP2 SWAP1 PUSH2 0x1C5E JUMP JUMPDEST PUSH1 0x40 MLOAD DUP1 SWAP2 SUB SWAP1 RETURN JUMPDEST PUSH2 0x164 PUSH1 0x4 DUP1 CALLDATASIZE SUB DUP2 ADD SWAP1 PUSH2 0x15F SWAP2 SWAP1 PUSH2 0x129F JUMP JUMPDEST PUSH2 0x9D7 JUMP JUMPDEST PUSH1 0x40 MLOAD PUSH2 0x171 SWAP2 SWAP1 PUSH2 0x1BF8 JUMP JUMPDEST PUSH1 0x40 MLOAD DUP1 SWAP2 SUB SWAP1 RETURN JUMPDEST PUSH2 0x194 PUSH1 0x4 DUP1 CALLDATASIZE SUB DUP2 ADD SWAP1 PUSH2 0x18F SWAP2 SWAP1 PUSH2 0x1596 JUMP JUMPDEST PUSH2 0xCEE JUMP JUMPDEST STOP JUMPDEST PUSH2 0x19E PUSH2 0xDAA JUMP JUMPDEST PUSH1 0x0 DUP1 DUP5 DUP5 PUSH1 0x40 MLOAD PUSH2 0x1B1 SWAP3 SWAP2 SWAP1 PUSH2 0x1BC8 JUMP JUMPDEST SWAP1 DUP2 MSTORE PUSH1 0x20 ADD PUSH1 0x40 MLOAD DUP1 SWAP2 SUB SWAP1 KECCAK256 SWAP1 POP DUP1 PUSH1 0x0 ADD DUP1 SLOAD PUSH2 0x1D0 SWAP1 PUSH2 0x1E4C JUMP JUMPDEST DUP1 PUSH1 0x1F ADD PUSH1 0x20 DUP1 SWAP2 DIV MUL PUSH1 0x20 ADD PUSH1 0x40 MLOAD SWAP1 DUP2 ADD PUSH1 0x40 MSTORE DUP1 SWAP3 SWAP2 SWAP1 DUP2 DUP2 MSTORE PUSH1 0x20 ADD DUP3 DUP1 SLOAD PUSH2 0x1FC SWAP1 PUSH2 0x1E4C JUMP JUMPDEST DUP1 ISZERO PUSH2 0x249 JUMPI DUP1 PUSH1 0x1F LT PUSH2 0x21E JUMPI PUSH2 0x100 DUP1 DUP4 SLOAD DIV MUL DUP4 MSTORE SWAP2 PUSH1 0x20 ADD SWAP2 PUSH2 0x249 JUMP JUMPDEST DUP3 ADD SWAP2 SWAP1 PUSH1 0x0 MSTORE PUSH1 0x20 PUSH1 0x0 KECCAK256 SWAP1 JUMPDEST DUP2 SLOAD DUP2 MSTORE SWAP1 PUSH1 0x1 ADD SWAP1 PUSH1 0x20 ADD DUP1 DUP4 GT PUSH2 0x22C JUMPI DUP3 SWAP1 SUB PUSH1 0x1F AND DUP3 ADD SWAP2 JUMPDEST POP POP POP POP POP DUP3 PUSH1 0x0 ADD DUP2 SWAP1 MSTORE POP DUP1 PUSH1 0x1 ADD DUP1 SLOAD PUSH2 0x265 SWAP1 PUSH2 0x1E4C JUMP JUMPDEST DUP1 PUSH1 0x1F ADD PUSH1 0x20 DUP1 SWAP2 DIV MUL PUSH1 0x20 ADD PUSH1 0x40 MLOAD SWAP1 DUP2 ADD PUSH1 0x40 MSTORE DUP1 SWAP3 SWAP2 SWAP1 DUP2 DUP2 MSTORE PUSH1 0x20 ADD DUP3 DUP1 SLOAD PUSH2 0x291 SWAP1 PUSH2 0x1E4C JUMP JUMPDEST DUP1 ISZERO PUSH2 0x2DE JUMPI DUP1 PUSH1 0x1F LT PUSH2 0x2B3 JUMPI PUSH2 0x100 DUP1 DUP4 SLOAD DIV MUL DUP4 MSTORE SWAP2 PUSH1 0x20 ADD SWAP2 PUSH2 0x2DE JUMP JUMPDEST DUP3 ADD SWAP2 SWAP1 PUSH1 0x0 MSTORE PUSH1 0x20 PUSH1 0x0 KECCAK256 SWAP1 JUMPDEST DUP2 SLOAD DUP2 MSTORE SWAP1 PUSH1 0x1 ADD SWAP1 PUSH1 0x20 ADD DUP1 DUP4 GT PUSH2 0x2C1 JUMPI DUP3 SWAP1 SUB PUSH1 0x1F AND DUP3 ADD SWAP2 JUMPDEST POP POP POP POP POP DUP3 PUSH1 0x20 ADD DUP2 SWAP1 MSTORE POP DUP1 PUSH1 0x2 ADD DUP1 SLOAD PUSH2 0x2FA SWAP1 PUSH2 0x1E4C JUMP JUMPDEST DUP1 PUSH1 0x1F ADD PUSH1 0x20 DUP1 SWAP2 DIV MUL PUSH1 0x20 ADD PUSH1 0x40 MLOAD SWAP1 DUP2 ADD PUSH1 0x40 MSTORE DUP1 SWAP3 SWAP2 SWAP1 DUP2 DUP2 MSTORE PUSH1 0x20 ADD DUP3 DUP1 SLOAD PUSH2 0x326 SWAP1 PUSH2 0x1E4C JUMP JUMPDEST DUP1 ISZERO PUSH2 0x373 JUMPI DUP1 PUSH1 0x1F LT PUSH2 0x348 JUMPI PUSH2 0x100 DUP1 DUP4 SLOAD DIV MUL DUP4 MSTORE SWAP2 PUSH1 0x20 ADD SWAP2 PUSH2 0x373 JUMP JUMPDEST DUP3 ADD SWAP2 SWAP1 PUSH1 0x0 MSTORE PUSH1 0x20 PUSH1 0x0 KECCAK256 SWAP1 JUMPDEST DUP2 SLOAD DUP2 MSTORE SWAP1 PUSH1 0x1 ADD SWAP1 PUSH1 0x20 ADD DUP1 DUP4 GT PUSH2 0x356 JUMPI DUP3 SWAP1 SUB PUSH1 0x1F AND DUP3 ADD SWAP2 JUMPDEST POP POP POP POP POP DUP3 PUSH1 0x40 ADD DUP2 SWAP1 MSTORE POP DUP1 PUSH1 0x3 ADD SLOAD DUP3 PUSH1 0x60 ADD DUP2 DUP2 MSTORE POP POP DUP1 PUSH1 0x4 ADD SLOAD DUP3 PUSH1 0x80 ADD DUP2 DUP2 MSTORE POP POP POP SWAP3 SWAP2 POP POP JUMP JUMPDEST PUSH1 0x0 DUP1 DUP10 DUP10 PUSH1 0x40 MLOAD PUSH2 0x3B6 SWAP3 SWAP2 SWAP1 PUSH2 0x1BC8 JUMP JUMPDEST SWAP1 DUP2 MSTORE PUSH1 0x20 ADD PUSH1 0x40 MLOAD DUP1 SWAP2 SUB SWAP1 KECCAK256 PUSH1 0x5 ADD DUP12 DUP12 PUSH1 0x40 MLOAD PUSH2 0x3D7 SWAP3 SWAP2 SWAP1 PUSH2 0x1BC8 JUMP JUMPDEST SWAP1 DUP2 MSTORE PUSH1 0x20 ADD PUSH1 0x40 MLOAD DUP1 SWAP2 SUB SWAP1 KECCAK256 SWAP1 POP DUP11 DUP11 DUP3 PUSH1 0x0 ADD SWAP2 SWAP1 PUSH2 0x3FA SWAP3 SWAP2 SWAP1 PUSH2 0xDD9 JUMP JUMPDEST POP DUP7 DUP7 DUP3 PUSH1 0x1 ADD SWAP2 SWAP1 PUSH2 0x40E SWAP3 SWAP2 SWAP1 PUSH2 0xDD9 JUMP JUMPDEST POP DUP5 DUP5 DUP3 PUSH1 0x2 ADD SWAP2 SWAP1 PUSH2 0x422 SWAP3 SWAP2 SWAP1 PUSH2 0xDD9 JUMP JUMPDEST POP DUP3 DUP2 PUSH1 0x3 ADD SWAP1 DUP1 MLOAD SWAP1 PUSH1 0x20 ADD SWAP1 PUSH2 0x43B SWAP3 SWAP2 SWAP1 PUSH2 0xE5F JUMP JUMPDEST POP DUP2 DUP2 PUSH1 0x4 ADD DUP2 SWAP1 SSTORE POP POP POP POP POP POP POP POP POP POP POP POP JUMP JUMPDEST PUSH2 0x45A PUSH2 0xEAC JUMP JUMPDEST PUSH1 0x0 DUP1 DUP5 DUP5 PUSH1 0x40 MLOAD PUSH2 0x46D SWAP3 SWAP2 SWAP1 PUSH2 0x1BC8 JUMP JUMPDEST SWAP1 DUP2 MSTORE PUSH1 0x20 ADD PUSH1 0x40 MLOAD DUP1 SWAP2 SUB SWAP1 KECCAK256 PUSH1 0x5 ADD DUP7 DUP7 PUSH1 0x40 MLOAD PUSH2 0x48E SWAP3 SWAP2 SWAP1 PUSH2 0x1BC8 JUMP JUMPDEST SWAP1 DUP2 MSTORE PUSH1 0x20 ADD PUSH1 0x40 MLOAD DUP1 SWAP2 SUB SWAP1 KECCAK256 PUSH1 0x5 ADD DUP9 DUP9 PUSH1 0x40 MLOAD PUSH2 0x4AF SWAP3 SWAP2 SWAP1 PUSH2 0x1BC8 JUMP JUMPDEST SWAP1 DUP2 MSTORE PUSH1 0x20 ADD PUSH1 0x40 MLOAD DUP1 SWAP2 SUB SWAP1 KECCAK256 SWAP1 POP DUP1 PUSH1 0x0 ADD DUP1 SLOAD PUSH2 0x4CE SWAP1 PUSH2 0x1E4C JUMP JUMPDEST DUP1 PUSH1 0x1F ADD PUSH1 0x20 DUP1 SWAP2 DIV MUL PUSH1 0x20 ADD PUSH1 0x40 MLOAD SWAP1 DUP2 ADD PUSH1 0x40 MSTORE DUP1 SWAP3 SWAP2 SWAP1 DUP2 DUP2 MSTORE PUSH1 0x20 ADD DUP3 DUP1 SLOAD PUSH2 0x4FA SWAP1 PUSH2 0x1E4C JUMP JUMPDEST DUP1 ISZERO PUSH2 0x547 JUMPI DUP1 PUSH1 0x1F LT PUSH2 0x51C JUMPI PUSH2 0x100 DUP1 DUP4 SLOAD DIV MUL DUP4 MSTORE SWAP2 PUSH1 0x20 ADD SWAP2 PUSH2 0x547 JUMP JUMPDEST DUP3 ADD SWAP2 SWAP1 PUSH1 0x0 MSTORE PUSH1 0x20 PUSH1 0x0 KECCAK256 SWAP1 JUMPDEST DUP2 SLOAD DUP2 MSTORE SWAP1 PUSH1 0x1 ADD SWAP1 PUSH1 0x20 ADD DUP1 DUP4 GT PUSH2 0x52A JUMPI DUP3 SWAP1 SUB PUSH1 0x1F AND DUP3 ADD SWAP2 JUMPDEST POP POP POP POP POP DUP3 PUSH1 0x0 ADD DUP2 SWAP1 MSTORE POP DUP1 PUSH1 0x1 ADD DUP1 SLOAD PUSH2 0x563 SWAP1 PUSH2 0x1E4C JUMP JUMPDEST DUP1 PUSH1 0x1F ADD PUSH1 0x20 DUP1 SWAP2 DIV MUL PUSH1 0x20 ADD PUSH1 0x40 MLOAD SWAP1 DUP2 ADD PUSH1 0x40 MSTORE DUP1 SWAP3 SWAP2 SWAP1 DUP2 DUP2 MSTORE PUSH1 0x20 ADD DUP3 DUP1 SLOAD PUSH2 0x58F SWAP1 PUSH2 0x1E4C JUMP JUMPDEST DUP1 ISZERO PUSH2 0x5DC JUMPI DUP1 PUSH1 0x1F LT PUSH2 0x5B1 JUMPI PUSH2 0x100 DUP1 DUP4 SLOAD DIV MUL DUP4 MSTORE SWAP2 PUSH1 0x20 ADD SWAP2 PUSH2 0x5DC JUMP JUMPDEST DUP3 ADD SWAP2 SWAP1 PUSH1 0x0 MSTORE PUSH1 0x20 PUSH1 0x0 KECCAK256 SWAP1 JUMPDEST DUP2 SLOAD DUP2 MSTORE SWAP1 PUSH1 0x1 ADD SWAP1 PUSH1 0x20 ADD DUP1 DUP4 GT PUSH2 0x5BF JUMPI DUP3 SWAP1 SUB PUSH1 0x1F AND DUP3 ADD SWAP2 JUMPDEST POP POP POP POP POP DUP3 PUSH1 0x20 ADD DUP2 SWAP1 MSTORE POP DUP1 PUSH1 0x2 ADD SLOAD DUP3 PUSH1 0x40 ADD DUP2 DUP2 MSTORE POP POP DUP1 PUSH1 0x3 ADD DUP1 SLOAD DUP1 PUSH1 0x20 MUL PUSH1 0x20 ADD PUSH1 0x40 MLOAD SWAP1 DUP2 ADD PUSH1 0x40 MSTORE DUP1 SWAP3 SWAP2 SWAP1 DUP2 DUP2 MSTORE PUSH1 0x20 ADD PUSH1 0x0 SWAP1 JUMPDEST DUP3 DUP3 LT ISZERO PUSH2 0x6C7 JUMPI DUP4 DUP3 SWAP1 PUSH1 0x0 MSTORE PUSH1 0x20 PUSH1 0x0 KECCAK256 ADD DUP1 SLOAD PUSH2 0x63A SWAP1 PUSH2 0x1E4C JUMP JUMPDEST DUP1 PUSH1 0x1F ADD PUSH1 0x20 DUP1 SWAP2 DIV MUL PUSH1 0x20 ADD PUSH1 0x40 MLOAD SWAP1 DUP2 ADD PUSH1 0x40 MSTORE DUP1 SWAP3 SWAP2 SWAP1 DUP2 DUP2 MSTORE PUSH1 0x20 ADD DUP3 DUP1 SLOAD PUSH2 0x666 SWAP1 PUSH2 0x1E4C JUMP JUMPDEST DUP1 ISZERO PUSH2 0x6B3 JUMPI DUP1 PUSH1 0x1F LT PUSH2 0x688 JUMPI PUSH2 0x100 DUP1 DUP4 SLOAD DIV MUL DUP4 MSTORE SWAP2 PUSH1 0x20 ADD SWAP2 PUSH2 0x6B3 JUMP JUMPDEST DUP3 ADD SWAP2 SWAP1 PUSH1 0x0 MSTORE PUSH1 0x20 PUSH1 0x0 KECCAK256 SWAP1 JUMPDEST DUP2 SLOAD DUP2 MSTORE SWAP1 PUSH1 0x1 ADD SWAP1 PUSH1 0x20 ADD DUP1 DUP4 GT PUSH2 0x696 JUMPI DUP3 SWAP1 SUB PUSH1 0x1F AND DUP3 ADD SWAP2 JUMPDEST POP POP POP POP POP DUP2 MSTORE PUSH1 0x20 ADD SWAP1 PUSH1 0x1 ADD SWAP1 PUSH2 0x61B JUMP JUMPDEST POP POP POP POP DUP3 PUSH1 0x60 ADD DUP2 SWAP1 MSTORE POP POP SWAP7 SWAP6 POP POP POP POP POP POP JUMP JUMPDEST PUSH1 0x0 DUP1 DUP10 DUP10 PUSH1 0x40 MLOAD PUSH2 0x6F1 SWAP3 SWAP2 SWAP1 PUSH2 0x1BC8 JUMP JUMPDEST SWAP1 DUP2 MSTORE PUSH1 0x20 ADD PUSH1 0x40 MLOAD DUP1 SWAP2 SUB SWAP1 KECCAK256 SWAP1 POP DUP9 DUP9 DUP3 PUSH1 0x0 ADD SWAP2 SWAP1 PUSH2 0x714 SWAP3 SWAP2 SWAP1 PUSH2 0xDD9 JUMP JUMPDEST POP DUP7 DUP7 DUP3 PUSH1 0x1 ADD SWAP2 SWAP1 PUSH2 0x728 SWAP3 SWAP2 SWAP1 PUSH2 0xDD9 JUMP JUMPDEST POP DUP5 DUP5 DUP3 PUSH1 0x2 ADD SWAP2 SWAP1 PUSH2 0x73C SWAP3 SWAP2 SWAP1 PUSH2 0xDD9 JUMP JUMPDEST POP DUP3 DUP2 PUSH1 0x3 ADD DUP2 SWAP1 SSTORE POP DUP2 DUP2 PUSH1 0x4 ADD DUP2 SWAP1 SSTORE POP POP POP POP POP POP POP POP POP POP JUMP JUMPDEST PUSH2 0x762 PUSH2 0xED4 JUMP JUMPDEST PUSH1 0x0 DUP1 DUP5 DUP5 PUSH1 0x40 MLOAD PUSH2 0x775 SWAP3 SWAP2 SWAP1 PUSH2 0x1BC8 JUMP JUMPDEST SWAP1 DUP2 MSTORE PUSH1 0x20 ADD PUSH1 0x40 MLOAD DUP1 SWAP2 SUB SWAP1 KECCAK256 PUSH1 0x5 ADD DUP7 DUP7 PUSH1 0x40 MLOAD PUSH2 0x796 SWAP3 SWAP2 SWAP1 PUSH2 0x1BC8 JUMP JUMPDEST SWAP1 DUP2 MSTORE PUSH1 0x20 ADD PUSH1 0x40 MLOAD DUP1 SWAP2 SUB SWAP1 KECCAK256 SWAP1 POP DUP1 PUSH1 0x0 ADD DUP1 SLOAD PUSH2 0x7B5 SWAP1 PUSH2 0x1E4C JUMP JUMPDEST DUP1 PUSH1 0x1F ADD PUSH1 0x20 DUP1 SWAP2 DIV MUL PUSH1 0x20 ADD PUSH1 0x40 MLOAD SWAP1 DUP2 ADD PUSH1 0x40 MSTORE DUP1 SWAP3 SWAP2 SWAP1 DUP2 DUP2 MSTORE PUSH1 0x20 ADD DUP3 DUP1 SLOAD PUSH2 0x7E1 SWAP1 PUSH2 0x1E4C JUMP JUMPDEST DUP1 ISZERO PUSH2 0x82E JUMPI DUP1 PUSH1 0x1F LT PUSH2 0x803 JUMPI PUSH2 0x100 DUP1 DUP4 SLOAD DIV MUL DUP4 MSTORE SWAP2 PUSH1 0x20 ADD SWAP2 PUSH2 0x82E JUMP JUMPDEST DUP3 ADD SWAP2 SWAP1 PUSH1 0x0 MSTORE PUSH1 0x20 PUSH1 0x0 KECCAK256 SWAP1 JUMPDEST DUP2 SLOAD DUP2 MSTORE SWAP1 PUSH1 0x1 ADD SWAP1 PUSH1 0x20 ADD DUP1 DUP4 GT PUSH2 0x811 JUMPI DUP3 SWAP1 SUB PUSH1 0x1F AND DUP3 ADD SWAP2 JUMPDEST POP POP POP POP POP DUP3 PUSH1 0x0 ADD DUP2 SWAP1 MSTORE POP DUP1 PUSH1 0x1 ADD DUP1 SLOAD PUSH2 0x84A SWAP1 PUSH2 0x1E4C JUMP JUMPDEST DUP1 PUSH1 0x1F ADD PUSH1 0x20 DUP1 SWAP2 DIV MUL PUSH1 0x20 ADD PUSH1 0x40 MLOAD SWAP1 DUP2 ADD PUSH1 0x40 MSTORE DUP1 SWAP3 SWAP2 SWAP1 DUP2 DUP2 MSTORE PUSH1 0x20 ADD DUP3 DUP1 SLOAD PUSH2 0x876 SWAP1 PUSH2 0x1E4C JUMP JUMPDEST DUP1 ISZERO PUSH2 0x8C3 JUMPI DUP1 PUSH1 0x1F LT PUSH2 0x898 JUMPI PUSH2 0x100 DUP1 DUP4 SLOAD DIV MUL DUP4 MSTORE SWAP2 PUSH1 0x20 ADD SWAP2 PUSH2 0x8C3 JUMP JUMPDEST DUP3 ADD SWAP2 SWAP1 PUSH1 0x0 MSTORE PUSH1 0x20 PUSH1 0x0 KECCAK256 SWAP1 JUMPDEST DUP2 SLOAD DUP2 MSTORE SWAP1 PUSH1 0x1 ADD SWAP1 PUSH1 0x20 ADD DUP1 DUP4 GT PUSH2 0x8A6 JUMPI DUP3 SWAP1 SUB PUSH1 0x1F AND DUP3 ADD SWAP2 JUMPDEST POP POP POP POP POP DUP3 PUSH1 0x20 ADD DUP2 SWAP1 MSTORE POP DUP1 PUSH1 0x2 ADD DUP1 SLOAD PUSH2 0x8DF SWAP1 PUSH2 0x1E4C JUMP JUMPDEST DUP1 PUSH1 0x1F ADD PUSH1 0x20 DUP1 SWAP2 DIV MUL PUSH1 0x20 ADD PUSH1 0x40 MLOAD SWAP1 DUP2 ADD PUSH1 0x40 MSTORE DUP1 SWAP3 SWAP2 SWAP1 DUP2 DUP2 MSTORE PUSH1 0x20 ADD DUP3 DUP1 SLOAD PUSH2 0x90B SWAP1 PUSH2 0x1E4C JUMP JUMPDEST DUP1 ISZERO PUSH2 0x958 JUMPI DUP1 PUSH1 0x1F LT PUSH2 0x92D JUMPI PUSH2 0x100 DUP1 DUP4 SLOAD DIV MUL DUP4 MSTORE SWAP2 PUSH1 0x20 ADD SWAP2 PUSH2 0x958 JUMP JUMPDEST DUP3 ADD SWAP2 SWAP1 PUSH1 0x0 MSTORE PUSH1 0x20 PUSH1 0x0 KECCAK256 SWAP1 JUMPDEST DUP2 SLOAD DUP2 MSTORE SWAP1 PUSH1 0x1 ADD SWAP1 PUSH1 0x20 ADD DUP1 DUP4 GT PUSH2 0x93B JUMPI DUP3 SWAP1 SUB PUSH1 0x1F AND DUP3 ADD SWAP2 JUMPDEST POP POP POP POP POP DUP3 PUSH1 0x40 ADD DUP2 SWAP1 MSTORE POP DUP1 PUSH1 0x3 ADD DUP1 SLOAD DUP1 PUSH1 0x20 MUL PUSH1 0x20 ADD PUSH1 0x40 MLOAD SWAP1 DUP2 ADD PUSH1 0x40 MSTORE DUP1 SWAP3 SWAP2 SWAP1 DUP2 DUP2 MSTORE PUSH1 0x20 ADD DUP3 DUP1 SLOAD DUP1 ISZERO PUSH2 0x9B3 JUMPI PUSH1 0x20 MUL DUP3 ADD SWAP2 SWAP1 PUSH1 0x0 MSTORE PUSH1 0x20 PUSH1 0x0 KECCAK256 SWAP1 JUMPDEST DUP2 SLOAD DUP2 MSTORE PUSH1 0x20 ADD SWAP1 PUSH1 0x1 ADD SWAP1 DUP1 DUP4 GT PUSH2 0x99F JUMPI JUMPDEST POP POP POP POP POP DUP3 PUSH1 0x60 ADD DUP2 SWAP1 MSTORE POP DUP1 PUSH1 0x4 ADD SLOAD DUP3 PUSH1 0x80 ADD DUP2 DUP2 MSTORE POP POP POP SWAP5 SWAP4 POP POP POP POP JUMP JUMPDEST PUSH1 0x60 DUP2 MLOAD PUSH8 0xFFFFFFFFFFFFFFFF DUP2 GT ISZERO PUSH2 0x9F4 JUMPI PUSH2 0x9F3 PUSH2 0x1F85 JUMP JUMPDEST JUMPDEST PUSH1 0x40 MLOAD SWAP1 DUP1 DUP3 MSTORE DUP1 PUSH1 0x20 MUL PUSH1 0x20 ADD DUP3 ADD PUSH1 0x40 MSTORE DUP1 ISZERO PUSH2 0xA2D JUMPI DUP2 PUSH1 0x20 ADD JUMPDEST PUSH2 0xA1A PUSH2 0xDAA JUMP JUMPDEST DUP2 MSTORE PUSH1 0x20 ADD SWAP1 PUSH1 0x1 SWAP1 SUB SWAP1 DUP2 PUSH2 0xA12 JUMPI SWAP1 POP JUMPDEST POP SWAP1 POP PUSH1 0x0 JUMPDEST DUP3 MLOAD DUP2 LT ISZERO PUSH2 0xCE8 JUMPI PUSH1 0x0 DUP1 DUP5 DUP4 DUP2 MLOAD DUP2 LT PUSH2 0xA52 JUMPI PUSH2 0xA51 PUSH2 0x1F56 JUMP JUMPDEST JUMPDEST PUSH1 0x20 MUL PUSH1 0x20 ADD ADD MLOAD PUSH1 0x40 MLOAD PUSH2 0xA67 SWAP2 SWAP1 PUSH2 0x1BE1 JUMP JUMPDEST SWAP1 DUP2 MSTORE PUSH1 0x20 ADD PUSH1 0x40 MLOAD DUP1 SWAP2 SUB SWAP1 KECCAK256 SWAP1 POP DUP1 PUSH1 0x0 ADD DUP1 SLOAD PUSH2 0xA86 SWAP1 PUSH2 0x1E4C JUMP JUMPDEST DUP1 PUSH1 0x1F ADD PUSH1 0x20 DUP1 SWAP2 DIV MUL PUSH1 0x20 ADD PUSH1 0x40 MLOAD SWAP1 DUP2 ADD PUSH1 0x40 MSTORE DUP1 SWAP3 SWAP2 SWAP1 DUP2 DUP2 MSTORE PUSH1 0x20 ADD DUP3 DUP1 SLOAD PUSH2 0xAB2 SWAP1 PUSH2 0x1E4C JUMP JUMPDEST DUP1 ISZERO PUSH2 0xAFF JUMPI DUP1 PUSH1 0x1F LT PUSH2 0xAD4 JUMPI PUSH2 0x100 DUP1 DUP4 SLOAD DIV MUL DUP4 MSTORE SWAP2 PUSH1 0x20 ADD SWAP2 PUSH2 0xAFF JUMP JUMPDEST DUP3 ADD SWAP2 SWAP1 PUSH1 0x0 MSTORE PUSH1 0x20 PUSH1 0x0 KECCAK256 SWAP1 JUMPDEST DUP2 SLOAD DUP2 MSTORE SWAP1 PUSH1 0x1 ADD SWAP1 PUSH1 0x20 ADD DUP1 DUP4 GT PUSH2 0xAE2 JUMPI DUP3 SWAP1 SUB PUSH1 0x1F AND DUP3 ADD SWAP2 JUMPDEST POP POP POP POP POP DUP4 DUP4 DUP2 MLOAD DUP2 LT PUSH2 0xB17 JUMPI PUSH2 0xB16 PUSH2 0x1F56 JUMP JUMPDEST JUMPDEST PUSH1 0x20 MUL PUSH1 0x20 ADD ADD MLOAD PUSH1 0x0 ADD DUP2 SWAP1 MSTORE POP DUP1 PUSH1 0x1 ADD DUP1 SLOAD PUSH2 0xB35 SWAP1 PUSH2 0x1E4C JUMP JUMPDEST DUP1 PUSH1 0x1F ADD PUSH1 0x20 DUP1 SWAP2 DIV MUL PUSH1 0x20 ADD PUSH1 0x40 MLOAD SWAP1 DUP2 ADD PUSH1 0x40 MSTORE DUP1 SWAP3 SWAP2 SWAP1 DUP2 DUP2 MSTORE PUSH1 0x20 ADD DUP3 DUP1 SLOAD PUSH2 0xB61 SWAP1 PUSH2 0x1E4C JUMP JUMPDEST DUP1 ISZERO PUSH2 0xBAE JUMPI DUP1 PUSH1 0x1F LT PUSH2 0xB83 JUMPI PUSH2 0x100 DUP1 DUP4 SLOAD DIV MUL DUP4 MSTORE SWAP2 PUSH1 0x20 ADD SWAP2 PUSH2 0xBAE JUMP JUMPDEST DUP3 ADD SWAP2 SWAP1 PUSH1 0x0 MSTORE PUSH1 0x20 PUSH1 0x0 KECCAK256 SWAP1 JUMPDEST DUP2 SLOAD DUP2 MSTORE SWAP1 PUSH1 0x1 ADD SWAP1 PUSH1 0x20 ADD DUP1 DUP4 GT PUSH2 0xB91 JUMPI DUP3 SWAP1 SUB PUSH1 0x1F AND DUP3 ADD SWAP2 JUMPDEST POP POP POP POP POP DUP4 DUP4 DUP2 MLOAD DUP2 LT PUSH2 0xBC6 JUMPI PUSH2 0xBC5 PUSH2 0x1F56 JUMP JUMPDEST JUMPDEST PUSH1 0x20 MUL PUSH1 0x20 ADD ADD MLOAD PUSH1 0x20 ADD DUP2 SWAP1 MSTORE POP DUP1 PUSH1 0x2 ADD DUP1 SLOAD PUSH2 0xBE4 SWAP1 PUSH2 0x1E4C JUMP JUMPDEST DUP1 PUSH1 0x1F ADD PUSH1 0x20 DUP1 SWAP2 DIV MUL PUSH1 0x20 ADD PUSH1 0x40 MLOAD SWAP1 DUP2 ADD PUSH1 0x40 MSTORE DUP1 SWAP3 SWAP2 SWAP1 DUP2 DUP2 MSTORE PUSH1 0x20 ADD DUP3 DUP1 SLOAD PUSH2 0xC10 SWAP1 PUSH2 0x1E4C JUMP JUMPDEST DUP1 ISZERO PUSH2 0xC5D JUMPI DUP1 PUSH1 0x1F LT PUSH2 0xC32 JUMPI PUSH2 0x100 DUP1 DUP4 SLOAD DIV MUL DUP4 MSTORE SWAP2 PUSH1 0x20 ADD SWAP2 PUSH2 0xC5D JUMP JUMPDEST DUP3 ADD SWAP2 SWAP1 PUSH1 0x0 MSTORE PUSH1 0x20 PUSH1 0x0 KECCAK256 SWAP1 JUMPDEST DUP2 SLOAD DUP2 MSTORE SWAP1 PUSH1 0x1 ADD SWAP1 PUSH1 0x20 ADD DUP1 DUP4 GT PUSH2 0xC40 JUMPI DUP3 SWAP1 SUB PUSH1 0x1F AND DUP3 ADD SWAP2 JUMPDEST POP POP POP POP POP DUP4 DUP4 DUP2 MLOAD DUP2 LT PUSH2 0xC75 JUMPI PUSH2 0xC74 PUSH2 0x1F56 JUMP JUMPDEST JUMPDEST PUSH1 0x20 MUL PUSH1 0x20 ADD ADD MLOAD PUSH1 0x40 ADD DUP2 SWAP1 MSTORE POP DUP1 PUSH1 0x3 ADD SLOAD DUP4 DUP4 DUP2 MLOAD DUP2 LT PUSH2 0xC9C JUMPI PUSH2 0xC9B PUSH2 0x1F56 JUMP JUMPDEST JUMPDEST PUSH1 0x20 MUL PUSH1 0x20 ADD ADD MLOAD PUSH1 0x60 ADD DUP2 DUP2 MSTORE POP POP DUP1 PUSH1 0x4 ADD SLOAD DUP4 DUP4 DUP2 MLOAD DUP2 LT PUSH2 0xCC4 JUMPI PUSH2 0xCC3 PUSH2 0x1F56 JUMP JUMPDEST JUMPDEST PUSH1 0x20 MUL PUSH1 0x20 ADD ADD MLOAD PUSH1 0x80 ADD DUP2 DUP2 MSTORE POP POP POP DUP1 DUP1 PUSH2 0xCE0 SWAP1 PUSH2 0x1EAF JUMP JUMPDEST SWAP2 POP POP PUSH2 0xA33 JUMP JUMPDEST POP SWAP2 SWAP1 POP JUMP JUMPDEST PUSH1 0x0 DUP1 DUP12 DUP12 PUSH1 0x40 MLOAD PUSH2 0xD01 SWAP3 SWAP2 SWAP1 PUSH2 0x1BC8 JUMP JUMPDEST SWAP1 DUP2 MSTORE PUSH1 0x20 ADD PUSH1 0x40 MLOAD DUP1 SWAP2 SUB SWAP1 KECCAK256 PUSH1 0x5 ADD DUP10 DUP10 PUSH1 0x40 MLOAD PUSH2 0xD22 SWAP3 SWAP2 SWAP1 PUSH2 0x1BC8 JUMP JUMPDEST SWAP1 DUP2 MSTORE PUSH1 0x20 ADD PUSH1 0x40 MLOAD DUP1 SWAP2 SUB SWAP1 KECCAK256 PUSH1 0x5 ADD DUP8 DUP8 PUSH1 0x40 MLOAD PUSH2 0xD43 SWAP3 SWAP2 SWAP1 PUSH2 0x1BC8 JUMP JUMPDEST SWAP1 DUP2 MSTORE PUSH1 0x20 ADD PUSH1 0x40 MLOAD DUP1 SWAP2 SUB SWAP1 KECCAK256 SWAP1 POP DUP7 DUP7 DUP3 PUSH1 0x0 ADD SWAP2 SWAP1 PUSH2 0xD66 SWAP3 SWAP2 SWAP1 PUSH2 0xDD9 JUMP JUMPDEST POP DUP5 DUP5 DUP3 PUSH1 0x1 ADD SWAP2 SWAP1 PUSH2 0xD7A SWAP3 SWAP2 SWAP1 PUSH2 0xDD9 JUMP JUMPDEST POP DUP3 DUP2 PUSH1 0x2 ADD DUP2 SWAP1 SSTORE POP DUP2 DUP2 PUSH1 0x3 ADD SWAP1 DUP1 MLOAD SWAP1 PUSH1 0x20 ADD SWAP1 PUSH2 0xD9C SWAP3 SWAP2 SWAP1 PUSH2 0xF03 JUMP JUMPDEST POP POP POP POP POP POP POP POP POP POP POP POP JUMP JUMPDEST PUSH1 0x40 MLOAD DUP1 PUSH1 0xA0 ADD PUSH1 0x40 MSTORE DUP1 PUSH1 0x60 DUP2 MSTORE PUSH1 0x20 ADD PUSH1 0x60 DUP2 MSTORE PUSH1 0x20 ADD PUSH1 0x60 DUP2 MSTORE PUSH1 0x20 ADD PUSH1 0x0 DUP2 MSTORE PUSH1 0x20 ADD PUSH1 0x0 DUP2 MSTORE POP SWAP1 JUMP JUMPDEST DUP3 DUP1 SLOAD PUSH2 0xDE5 SWAP1 PUSH2 0x1E4C JUMP JUMPDEST SWAP1 PUSH1 0x0 MSTORE PUSH1 0x20 PUSH1 0x0 KECCAK256 SWAP1 PUSH1 0x1F ADD PUSH1 0x20 SWAP1 DIV DUP2 ADD SWAP3 DUP3 PUSH2 0xE07 JUMPI PUSH1 0x0 DUP6 SSTORE PUSH2 0xE4E JUMP JUMPDEST DUP3 PUSH1 0x1F LT PUSH2 0xE20 JUMPI DUP1 CALLDATALOAD PUSH1 0xFF NOT AND DUP4 DUP1 ADD OR DUP6 SSTORE PUSH2 0xE4E JUMP JUMPDEST DUP3 DUP1 ADD PUSH1 0x1 ADD DUP6 SSTORE DUP3 ISZERO PUSH2 0xE4E JUMPI SWAP2 DUP3 ADD JUMPDEST DUP3 DUP2 GT ISZERO PUSH2 0xE4D JUMPI DUP3 CALLDATALOAD DUP3 SSTORE SWAP2 PUSH1 0x20 ADD SWAP2 SWAP1 PUSH1 0x1 ADD SWAP1 PUSH2 0xE32 JUMP JUMPDEST JUMPDEST POP SWAP1 POP PUSH2 0xE5B SWAP2 SWAP1 PUSH2 0xF63 JUMP JUMPDEST POP SWAP1 JUMP JUMPDEST DUP3 DUP1 SLOAD DUP3 DUP3 SSTORE SWAP1 PUSH1 0x0 MSTORE PUSH1 0x20 PUSH1 0x0 KECCAK256 SWAP1 DUP2 ADD SWAP3 DUP3 ISZERO PUSH2 0xE9B JUMPI SWAP2 PUSH1 0x20 MUL DUP3 ADD JUMPDEST DUP3 DUP2 GT ISZERO PUSH2 0xE9A JUMPI DUP3 MLOAD DUP3 SSTORE SWAP2 PUSH1 0x20 ADD SWAP2 SWAP1 PUSH1 0x1 ADD SWAP1 PUSH2 0xE7F JUMP JUMPDEST JUMPDEST POP SWAP1 POP PUSH2 0xEA8 SWAP2 SWAP1 PUSH2 0xF63 JUMP JUMPDEST POP SWAP1 JUMP JUMPDEST PUSH1 0x40 MLOAD DUP1 PUSH1 0x80 ADD PUSH1 0x40 MSTORE DUP1 PUSH1 0x60 DUP2 MSTORE PUSH1 0x20 ADD PUSH1 0x60 DUP2 MSTORE PUSH1 0x20 ADD PUSH1 0x0 DUP2 MSTORE PUSH1 0x20 ADD PUSH1 0x60 DUP2 MSTORE POP SWAP1 JUMP JUMPDEST PUSH1 0x40 MLOAD DUP1 PUSH1 0xA0 ADD PUSH1 0x40 MSTORE DUP1 PUSH1 0x60 DUP2 MSTORE PUSH1 0x20 ADD PUSH1 0x60 DUP2 MSTORE PUSH1 0x20 ADD PUSH1 0x60 DUP2 MSTORE PUSH1 0x20 ADD PUSH1 0x60 DUP2 MSTORE PUSH1 0x20 ADD PUSH1 0x0 DUP2 MSTORE POP SWAP1 JUMP JUMPDEST DUP3 DUP1 SLOAD DUP3 DUP3 SSTORE SWAP1 PUSH1 0x0 MSTORE PUSH1 0x20 PUSH1 0x0 KECCAK256 SWAP1 DUP2 ADD SWAP3 DUP3 ISZERO PUSH2 0xF52 JUMPI SWAP2 PUSH1 0x20 MUL DUP3 ADD JUMPDEST DUP3 DUP2 GT ISZERO PUSH2 0xF51 JUMPI DUP3 MLOAD DUP3 SWAP1 DUP1 MLOAD SWAP1 PUSH1 0x20 ADD SWAP1 PUSH2 0xF41 SWAP3 SWAP2 SWAP1 PUSH2 0xF80 JUMP JUMPDEST POP SWAP2 PUSH1 0x20 ADD SWAP2 SWAP1 PUSH1 0x1 ADD SWAP1 PUSH2 0xF23 JUMP JUMPDEST JUMPDEST POP SWAP1 POP PUSH2 0xF5F SWAP2 SWAP1 PUSH2 0x1006 JUMP JUMPDEST POP SWAP1 JUMP JUMPDEST JUMPDEST DUP1 DUP3 GT ISZERO PUSH2 0xF7C JUMPI PUSH1 0x0 DUP2 PUSH1 0x0 SWAP1 SSTORE POP PUSH1 0x1 ADD PUSH2 0xF64 JUMP JUMPDEST POP SWAP1 JUMP JUMPDEST DUP3 DUP1 SLOAD PUSH2 0xF8C SWAP1 PUSH2 0x1E4C JUMP JUMPDEST SWAP1 PUSH1 0x0 MSTORE PUSH1 0x20 PUSH1 0x0 KECCAK256 SWAP1 PUSH1 0x1F ADD PUSH1 0x20 SWAP1 DIV DUP2 ADD SWAP3 DUP3 PUSH2 0xFAE JUMPI PUSH1 0x0 DUP6 SSTORE PUSH2 0xFF5 JUMP JUMPDEST DUP3 PUSH1 0x1F LT PUSH2 0xFC7 JUMPI DUP1 MLOAD PUSH1 0xFF NOT AND DUP4 DUP1 ADD OR DUP6 SSTORE PUSH2 0xFF5 JUMP JUMPDEST DUP3 DUP1 ADD PUSH1 0x1 ADD DUP6 SSTORE DUP3 ISZERO PUSH2 0xFF5 JUMPI SWAP2 DUP3 ADD JUMPDEST DUP3 DUP2 GT ISZERO PUSH2 0xFF4 JUMPI DUP3 MLOAD DUP3 SSTORE SWAP2 PUSH1 0x20 ADD SWAP2 SWAP1 PUSH1 0x1 ADD SWAP1 PUSH2 0xFD9 JUMP JUMPDEST JUMPDEST POP SWAP1 POP PUSH2 0x1002 SWAP2 SWAP1 PUSH2 0xF63 JUMP JUMPDEST POP SWAP1 JUMP JUMPDEST JUMPDEST DUP1 DUP3 GT ISZERO PUSH2 0x1026 JUMPI PUSH1 0x0 DUP2 DUP2 PUSH2 0x101D SWAP2 SWAP1 PUSH2 0x102A JUMP JUMPDEST POP PUSH1 0x1 ADD PUSH2 0x1007 JUMP JUMPDEST POP SWAP1 JUMP JUMPDEST POP DUP1 SLOAD PUSH2 0x1036 SWAP1 PUSH2 0x1E4C JUMP JUMPDEST PUSH1 0x0 DUP3 SSTORE DUP1 PUSH1 0x1F LT PUSH2 0x1048 JUMPI POP PUSH2 0x1067 JUMP JUMPDEST PUSH1 0x1F ADD PUSH1 0x20 SWAP1 DIV SWAP1 PUSH1 0x0 MSTORE PUSH1 0x20 PUSH1 0x0 KECCAK256 SWAP1 DUP2 ADD SWAP1 PUSH2 0x1066 SWAP2 SWAP1 PUSH2 0xF63 JUMP JUMPDEST JUMPDEST POP JUMP JUMPDEST PUSH1 0x0 PUSH2 0x107D PUSH2 0x1078 DUP5 PUSH2 0x1CA5 JUMP JUMPDEST PUSH2 0x1C80 JUMP JUMPDEST SWAP1 POP DUP1 DUP4 DUP3 MSTORE PUSH1 0x20 DUP3 ADD SWAP1 POP DUP3 DUP6 PUSH1 0x20 DUP7 MUL DUP3 ADD GT ISZERO PUSH2 0x10A0 JUMPI PUSH2 0x109F PUSH2 0x1FBE JUMP JUMPDEST JUMPDEST PUSH1 0x0 JUMPDEST DUP6 DUP2 LT ISZERO PUSH2 0x10EE JUMPI DUP2 CALLDATALOAD PUSH8 0xFFFFFFFFFFFFFFFF DUP2 GT ISZERO PUSH2 0x10C6 JUMPI PUSH2 0x10C5 PUSH2 0x1FB9 JUMP JUMPDEST JUMPDEST DUP1 DUP7 ADD PUSH2 0x10D3 DUP10 DUP3 PUSH2 0x125C JUMP JUMPDEST DUP6 MSTORE PUSH1 0x20 DUP6 ADD SWAP5 POP PUSH1 0x20 DUP5 ADD SWAP4 POP POP POP PUSH1 0x1 DUP2 ADD SWAP1 POP PUSH2 0x10A3 JUMP JUMPDEST POP POP POP SWAP4 SWAP3 POP POP POP JUMP JUMPDEST PUSH1 0x0 PUSH2 0x110B PUSH2 0x1106 DUP5 PUSH2 0x1CD1 JUMP JUMPDEST PUSH2 0x1C80 JUMP JUMPDEST SWAP1 POP DUP1 DUP4 DUP3 MSTORE PUSH1 0x20 DUP3 ADD SWAP1 POP DUP3 DUP6 PUSH1 0x20 DUP7 MUL DUP3 ADD GT ISZERO PUSH2 0x112E JUMPI PUSH2 0x112D PUSH2 0x1FBE JUMP JUMPDEST JUMPDEST PUSH1 0x0 JUMPDEST DUP6 DUP2 LT ISZERO PUSH2 0x115E JUMPI DUP2 PUSH2 0x1144 DUP9 DUP3 PUSH2 0x128A JUMP JUMPDEST DUP5 MSTORE PUSH1 0x20 DUP5 ADD SWAP4 POP PUSH1 0x20 DUP4 ADD SWAP3 POP POP PUSH1 0x1 DUP2 ADD SWAP1 POP PUSH2 0x1131 JUMP JUMPDEST POP POP POP SWAP4 SWAP3 POP POP POP JUMP JUMPDEST PUSH1 0x0 PUSH2 0x117B PUSH2 0x1176 DUP5 PUSH2 0x1CFD JUMP JUMPDEST PUSH2 0x1C80 JUMP JUMPDEST SWAP1 POP DUP3 DUP2 MSTORE PUSH1 0x20 DUP2 ADD DUP5 DUP5 DUP5 ADD GT ISZERO PUSH2 0x1197 JUMPI PUSH2 0x1196 PUSH2 0x1FC3 JUMP JUMPDEST JUMPDEST PUSH2 0x11A2 DUP5 DUP3 DUP6 PUSH2 0x1E0A JUMP JUMPDEST POP SWAP4 SWAP3 POP POP POP JUMP JUMPDEST PUSH1 0x0 DUP3 PUSH1 0x1F DUP4 ADD SLT PUSH2 0x11BF JUMPI PUSH2 0x11BE PUSH2 0x1FB9 JUMP JUMPDEST JUMPDEST DUP2 CALLDATALOAD PUSH2 0x11CF DUP5 DUP3 PUSH1 0x20 DUP7 ADD PUSH2 0x106A JUMP JUMPDEST SWAP2 POP POP SWAP3 SWAP2 POP POP JUMP JUMPDEST PUSH1 0x0 DUP3 PUSH1 0x1F DUP4 ADD SLT PUSH2 0x11ED JUMPI PUSH2 0x11EC PUSH2 0x1FB9 JUMP JUMPDEST JUMPDEST DUP2 CALLDATALOAD PUSH2 0x11FD DUP5 DUP3 PUSH1 0x20 DUP7 ADD PUSH2 0x10F8 JUMP JUMPDEST SWAP2 POP POP SWAP3 SWAP2 POP POP JUMP JUMPDEST PUSH1 0x0 DUP1 DUP4 PUSH1 0x1F DUP5 ADD SLT PUSH2 0x121C JUMPI PUSH2 0x121B PUSH2 0x1FB9 JUMP JUMPDEST JUMPDEST DUP3 CALLDATALOAD SWAP1 POP PUSH8 0xFFFFFFFFFFFFFFFF DUP2 GT ISZERO PUSH2 0x1239 JUMPI PUSH2 0x1238 PUSH2 0x1FB4 JUMP JUMPDEST JUMPDEST PUSH1 0x20 DUP4 ADD SWAP2 POP DUP4 PUSH1 0x1 DUP3 MUL DUP4 ADD GT ISZERO PUSH2 0x1255 JUMPI PUSH2 0x1254 PUSH2 0x1FBE JUMP JUMPDEST JUMPDEST SWAP3 POP SWAP3 SWAP1 POP JUMP JUMPDEST PUSH1 0x0 DUP3 PUSH1 0x1F DUP4 ADD SLT PUSH2 0x1271 JUMPI PUSH2 0x1270 PUSH2 0x1FB9 JUMP JUMPDEST JUMPDEST DUP2 CALLDATALOAD PUSH2 0x1281 DUP5 DUP3 PUSH1 0x20 DUP7 ADD PUSH2 0x1168 JUMP JUMPDEST SWAP2 POP POP SWAP3 SWAP2 POP POP JUMP JUMPDEST PUSH1 0x0 DUP2 CALLDATALOAD SWAP1 POP PUSH2 0x1299 DUP2 PUSH2 0x1FE3 JUMP JUMPDEST SWAP3 SWAP2 POP POP JUMP JUMPDEST PUSH1 0x0 PUSH1 0x20 DUP3 DUP5 SUB SLT ISZERO PUSH2 0x12B5 JUMPI PUSH2 0x12B4 PUSH2 0x1FCD JUMP JUMPDEST JUMPDEST PUSH1 0x0 DUP3 ADD CALLDATALOAD PUSH8 0xFFFFFFFFFFFFFFFF DUP2 GT ISZERO PUSH2 0x12D3 JUMPI PUSH2 0x12D2 PUSH2 0x1FC8 JUMP JUMPDEST JUMPDEST PUSH2 0x12DF DUP5 DUP3 DUP6 ADD PUSH2 0x11AA JUMP JUMPDEST SWAP2 POP POP SWAP3 SWAP2 POP POP JUMP JUMPDEST PUSH1 0x0 DUP1 PUSH1 0x20 DUP4 DUP6 SUB SLT ISZERO PUSH2 0x12FF JUMPI PUSH2 0x12FE PUSH2 0x1FCD JUMP JUMPDEST JUMPDEST PUSH1 0x0 DUP4 ADD CALLDATALOAD PUSH8 0xFFFFFFFFFFFFFFFF DUP2 GT ISZERO PUSH2 0x131D JUMPI PUSH2 0x131C PUSH2 0x1FC8 JUMP JUMPDEST JUMPDEST PUSH2 0x1329 DUP6 DUP3 DUP7 ADD PUSH2 0x1206 JUMP JUMPDEST SWAP3 POP SWAP3 POP POP SWAP3 POP SWAP3 SWAP1 POP JUMP JUMPDEST PUSH1 0x0 DUP1 PUSH1 0x0 DUP1 PUSH1 0x40 DUP6 DUP8 SUB SLT ISZERO PUSH2 0x134F JUMPI PUSH2 0x134E PUSH2 0x1FCD JUMP JUMPDEST JUMPDEST PUSH1 0x0 DUP6 ADD CALLDATALOAD PUSH8 0xFFFFFFFFFFFFFFFF DUP2 GT ISZERO PUSH2 0x136D JUMPI PUSH2 0x136C PUSH2 0x1FC8 JUMP JUMPDEST JUMPDEST PUSH2 0x1379 DUP8 DUP3 DUP9 ADD PUSH2 0x1206 JUMP JUMPDEST SWAP5 POP SWAP5 POP POP PUSH1 0x20 DUP6 ADD CALLDATALOAD PUSH8 0xFFFFFFFFFFFFFFFF DUP2 GT ISZERO PUSH2 0x139C JUMPI PUSH2 0x139B PUSH2 0x1FC8 JUMP JUMPDEST JUMPDEST PUSH2 0x13A8 DUP8 DUP3 DUP9 ADD PUSH2 0x1206 JUMP JUMPDEST SWAP3 POP SWAP3 POP POP SWAP3 SWAP6 SWAP2 SWAP5 POP SWAP3 POP JUMP JUMPDEST PUSH1 0x0 DUP1 PUSH1 0x0 DUP1 PUSH1 0x0 DUP1 PUSH1 0x60 DUP8 DUP10 SUB SLT ISZERO PUSH2 0x13D3 JUMPI PUSH2 0x13D2 PUSH2 0x1FCD JUMP JUMPDEST JUMPDEST PUSH1 0x0 DUP8 ADD CALLDATALOAD PUSH8 0xFFFFFFFFFFFFFFFF DUP2 GT ISZERO PUSH2 0x13F1 JUMPI PUSH2 0x13F0 PUSH2 0x1FC8 JUMP JUMPDEST JUMPDEST PUSH2 0x13FD DUP10 DUP3 DUP11 ADD PUSH2 0x1206 JUMP JUMPDEST SWAP7 POP SWAP7 POP POP PUSH1 0x20 DUP8 ADD CALLDATALOAD PUSH8 0xFFFFFFFFFFFFFFFF DUP2 GT ISZERO PUSH2 0x1420 JUMPI PUSH2 0x141F PUSH2 0x1FC8 JUMP JUMPDEST JUMPDEST PUSH2 0x142C DUP10 DUP3 DUP11 ADD PUSH2 0x1206 JUMP JUMPDEST SWAP5 POP SWAP5 POP POP PUSH1 0x40 DUP8 ADD CALLDATALOAD PUSH8 0xFFFFFFFFFFFFFFFF DUP2 GT ISZERO PUSH2 0x144F JUMPI PUSH2 0x144E PUSH2 0x1FC8 JUMP JUMPDEST JUMPDEST PUSH2 0x145B DUP10 DUP3 DUP11 ADD PUSH2 0x1206 JUMP JUMPDEST SWAP3 POP SWAP3 POP POP SWAP3 SWAP6 POP SWAP3 SWAP6 POP SWAP3 SWAP6 JUMP JUMPDEST PUSH1 0x0 DUP1 PUSH1 0x0 DUP1 PUSH1 0x0 DUP1 PUSH1 0x0 DUP1 PUSH1 0x0 DUP1 PUSH1 0xC0 DUP12 DUP14 SUB SLT ISZERO PUSH2 0x148D JUMPI PUSH2 0x148C PUSH2 0x1FCD JUMP JUMPDEST JUMPDEST PUSH1 0x0 DUP12 ADD CALLDATALOAD PUSH8 0xFFFFFFFFFFFFFFFF DUP2 GT ISZERO PUSH2 0x14AB JUMPI PUSH2 0x14AA PUSH2 0x1FC8 JUMP JUMPDEST JUMPDEST PUSH2 0x14B7 DUP14 DUP3 DUP15 ADD PUSH2 0x1206 JUMP JUMPDEST SWAP11 POP SWAP11 POP POP PUSH1 0x20 DUP12 ADD CALLDATALOAD PUSH8 0xFFFFFFFFFFFFFFFF DUP2 GT ISZERO PUSH2 0x14DA JUMPI PUSH2 0x14D9 PUSH2 0x1FC8 JUMP JUMPDEST JUMPDEST PUSH2 0x14E6 DUP14 DUP3 DUP15 ADD PUSH2 0x1206 JUMP JUMPDEST SWAP9 POP SWAP9 POP POP PUSH1 0x40 DUP12 ADD CALLDATALOAD PUSH8 0xFFFFFFFFFFFFFFFF DUP2 GT ISZERO PUSH2 0x1509 JUMPI PUSH2 0x1508 PUSH2 0x1FC8 JUMP JUMPDEST JUMPDEST PUSH2 0x1515 DUP14 DUP3 DUP15 ADD PUSH2 0x1206 JUMP JUMPDEST SWAP7 POP SWAP7 POP POP PUSH1 0x60 DUP12 ADD CALLDATALOAD PUSH8 0xFFFFFFFFFFFFFFFF DUP2 GT ISZERO PUSH2 0x1538 JUMPI PUSH2 0x1537 PUSH2 0x1FC8 JUMP JUMPDEST JUMPDEST PUSH2 0x1544 DUP14 DUP3 DUP15 ADD PUSH2 0x1206 JUMP JUMPDEST SWAP5 POP SWAP5 POP POP PUSH1 0x80 DUP12 ADD CALLDATALOAD PUSH8 0xFFFFFFFFFFFFFFFF DUP2 GT ISZERO PUSH2 0x1567 JUMPI PUSH2 0x1566 PUSH2 0x1FC8 JUMP JUMPDEST JUMPDEST PUSH2 0x1573 DUP14 DUP3 DUP15 ADD PUSH2 0x11D8 JUMP JUMPDEST SWAP3 POP POP PUSH1 0xA0 PUSH2 0x1584 DUP14 DUP3 DUP15 ADD PUSH2 0x128A JUMP JUMPDEST SWAP2 POP POP SWAP3 SWAP6 SWAP9 SWAP12 SWAP2 SWAP5 SWAP8 SWAP11 POP SWAP3 SWAP6 SWAP9 POP JUMP JUMPDEST PUSH1 0x0 DUP1 PUSH1 0x0 DUP1 PUSH1 0x0 DUP1 PUSH1 0x0 DUP1 PUSH1 0x0 DUP1 PUSH1 0xC0 DUP12 DUP14 SUB SLT ISZERO PUSH2 0x15B9 JUMPI PUSH2 0x15B8 PUSH2 0x1FCD JUMP JUMPDEST JUMPDEST PUSH1 0x0 DUP12 ADD CALLDATALOAD PUSH8 0xFFFFFFFFFFFFFFFF DUP2 GT ISZERO PUSH2 0x15D7 JUMPI PUSH2 0x15D6 PUSH2 0x1FC8 JUMP JUMPDEST JUMPDEST PUSH2 0x15E3 DUP14 DUP3 DUP15 ADD PUSH2 0x1206 JUMP JUMPDEST SWAP11 POP SWAP11 POP POP PUSH1 0x20 DUP12 ADD CALLDATALOAD PUSH8 0xFFFFFFFFFFFFFFFF DUP2 GT ISZERO PUSH2 0x1606 JUMPI PUSH2 0x1605 PUSH2 0x1FC8 JUMP JUMPDEST JUMPDEST PUSH2 0x1612 DUP14 DUP3 DUP15 ADD PUSH2 0x1206 JUMP JUMPDEST SWAP9 POP SWAP9 POP POP PUSH1 0x40 DUP12 ADD CALLDATALOAD PUSH8 0xFFFFFFFFFFFFFFFF DUP2 GT ISZERO PUSH2 0x1635 JUMPI PUSH2 0x1634 PUSH2 0x1FC8 JUMP JUMPDEST JUMPDEST PUSH2 0x1641 DUP14 DUP3 DUP15 ADD PUSH2 0x1206 JUMP JUMPDEST SWAP7 POP SWAP7 POP POP PUSH1 0x60 DUP12 ADD CALLDATALOAD PUSH8 0xFFFFFFFFFFFFFFFF DUP2 GT ISZERO PUSH2 0x1664 JUMPI PUSH2 0x1663 PUSH2 0x1FC8 JUMP JUMPDEST JUMPDEST PUSH2 0x1670 DUP14 DUP3 DUP15 ADD PUSH2 0x1206 JUMP JUMPDEST SWAP5 POP SWAP5 POP POP PUSH1 0x80 PUSH2 0x1683 DUP14 DUP3 DUP15 ADD PUSH2 0x128A JUMP JUMPDEST SWAP3 POP POP PUSH1 0xA0 DUP12 ADD CALLDATALOAD PUSH8 0xFFFFFFFFFFFFFFFF DUP2 GT ISZERO PUSH2 0x16A4 JUMPI PUSH2 0x16A3 PUSH2 0x1FC8 JUMP JUMPDEST JUMPDEST PUSH2 0x16B0 DUP14 DUP3 DUP15 ADD PUSH2 0x11AA JUMP JUMPDEST SWAP2 POP POP SWAP3 SWAP6 SWAP9 SWAP12 SWAP2 SWAP5 SWAP8 SWAP11 POP SWAP3 SWAP6 SWAP9 POP JUMP JUMPDEST PUSH1 0x0 DUP1 PUSH1 0x0 DUP1 PUSH1 0x0 DUP1 PUSH1 0x0 DUP1 PUSH1 0xA0 DUP10 DUP12 SUB SLT ISZERO PUSH2 0x16E2 JUMPI PUSH2 0x16E1 PUSH2 0x1FCD JUMP JUMPDEST JUMPDEST PUSH1 0x0 DUP10 ADD CALLDATALOAD PUSH8 0xFFFFFFFFFFFFFFFF DUP2 GT ISZERO PUSH2 0x1700 JUMPI PUSH2 0x16FF PUSH2 0x1FC8 JUMP JUMPDEST JUMPDEST PUSH2 0x170C DUP12 DUP3 DUP13 ADD PUSH2 0x1206 JUMP JUMPDEST SWAP9 POP SWAP9 POP POP PUSH1 0x20 DUP10 ADD CALLDATALOAD PUSH8 0xFFFFFFFFFFFFFFFF DUP2 GT ISZERO PUSH2 0x172F JUMPI PUSH2 0x172E PUSH2 0x1FC8 JUMP JUMPDEST JUMPDEST PUSH2 0x173B DUP12 DUP3 DUP13 ADD PUSH2 0x1206 JUMP JUMPDEST SWAP7 POP SWAP7 POP POP PUSH1 0x40 DUP10 ADD CALLDATALOAD PUSH8 0xFFFFFFFFFFFFFFFF DUP2 GT ISZERO PUSH2 0x175E JUMPI PUSH2 0x175D PUSH2 0x1FC8 JUMP JUMPDEST JUMPDEST PUSH2 0x176A DUP12 DUP3 DUP13 ADD PUSH2 0x1206 JUMP JUMPDEST SWAP5 POP SWAP5 POP POP PUSH1 0x60 PUSH2 0x177D DUP12 DUP3 DUP13 ADD PUSH2 0x128A JUMP JUMPDEST SWAP3 POP POP PUSH1 0x80 PUSH2 0x178E DUP12 DUP3 DUP13 ADD PUSH2 0x128A JUMP JUMPDEST SWAP2 POP POP SWAP3 SWAP6 SWAP9 POP SWAP3 SWAP6 SWAP9 SWAP1 SWAP4 SWAP7 POP JUMP JUMPDEST PUSH1 0x0 PUSH2 0x17AA DUP4 DUP4 PUSH2 0x194B JUMP JUMPDEST SWAP1 POP SWAP3 SWAP2 POP POP JUMP JUMPDEST PUSH1 0x0 PUSH2 0x17BE DUP4 DUP4 PUSH2 0x19B5 JUMP JUMPDEST SWAP1 POP SWAP3 SWAP2 POP POP JUMP JUMPDEST PUSH1 0x0 PUSH2 0x17D2 DUP4 DUP4 PUSH2 0x1BB9 JUMP JUMPDEST PUSH1 0x20 DUP4 ADD SWAP1 POP SWAP3 SWAP2 POP POP JUMP JUMPDEST PUSH1 0x0 PUSH2 0x17E9 DUP3 PUSH2 0x1D5E JUMP JUMPDEST PUSH2 0x17F3 DUP2 DUP6 PUSH2 0x1DB1 JUMP JUMPDEST SWAP4 POP DUP4 PUSH1 0x20 DUP3 MUL DUP6 ADD PUSH2 0x1805 DUP6 PUSH2 0x1D2E JUMP JUMPDEST DUP1 PUSH1 0x0 JUMPDEST DUP6 DUP2 LT ISZERO PUSH2 0x1841 JUMPI DUP5 DUP5 SUB DUP10 MSTORE DUP2 MLOAD PUSH2 0x1822 DUP6 DUP3 PUSH2 0x179E JUMP JUMPDEST SWAP5 POP PUSH2 0x182D DUP4 PUSH2 0x1D8A JUMP JUMPDEST SWAP3 POP PUSH1 0x20 DUP11 ADD SWAP10 POP POP PUSH1 0x1 DUP2 ADD SWAP1 POP PUSH2 0x1809 JUMP JUMPDEST POP DUP3 SWAP8 POP DUP8 SWAP6 POP POP POP POP POP POP SWAP3 SWAP2 POP POP JUMP JUMPDEST PUSH1 0x0 PUSH2 0x185E DUP3 PUSH2 0x1D69 JUMP JUMPDEST PUSH2 0x1868 DUP2 DUP6 PUSH2 0x1DC2 JUMP JUMPDEST SWAP4 POP DUP4 PUSH1 0x20 DUP3 MUL DUP6 ADD PUSH2 0x187A DUP6 PUSH2 0x1D3E JUMP JUMPDEST DUP1 PUSH1 0x0 JUMPDEST DUP6 DUP2 LT ISZERO PUSH2 0x18B6 JUMPI DUP5 DUP5 SUB DUP10 MSTORE DUP2 MLOAD PUSH2 0x1897 DUP6 DUP3 PUSH2 0x17B2 JUMP JUMPDEST SWAP5 POP PUSH2 0x18A2 DUP4 PUSH2 0x1D97 JUMP JUMPDEST SWAP3 POP PUSH1 0x20 DUP11 ADD SWAP10 POP POP PUSH1 0x1 DUP2 ADD SWAP1 POP PUSH2 0x187E JUMP JUMPDEST POP DUP3 SWAP8 POP DUP8 SWAP6 POP POP POP POP POP POP SWAP3 SWAP2 POP POP JUMP JUMPDEST PUSH1 0x0 PUSH2 0x18D3 DUP3 PUSH2 0x1D74 JUMP JUMPDEST PUSH2 0x18DD DUP2 DUP6 PUSH2 0x1DD3 JUMP JUMPDEST SWAP4 POP PUSH2 0x18E8 DUP4 PUSH2 0x1D4E JUMP JUMPDEST DUP1 PUSH1 0x0 JUMPDEST DUP4 DUP2 LT ISZERO PUSH2 0x1919 JUMPI DUP2 MLOAD PUSH2 0x1900 DUP9 DUP3 PUSH2 0x17C6 JUMP JUMPDEST SWAP8 POP PUSH2 0x190B DUP4 PUSH2 0x1DA4 JUMP JUMPDEST SWAP3 POP POP PUSH1 0x1 DUP2 ADD SWAP1 POP PUSH2 0x18EC JUMP JUMPDEST POP DUP6 SWAP4 POP POP POP POP SWAP3 SWAP2 POP POP JUMP JUMPDEST PUSH1 0x0 PUSH2 0x1932 DUP4 DUP6 PUSH2 0x1DF5 JUMP JUMPDEST SWAP4 POP PUSH2 0x193F DUP4 DUP6 DUP5 PUSH2 0x1E0A JUMP JUMPDEST DUP3 DUP5 ADD SWAP1 POP SWAP4 SWAP3 POP POP POP JUMP JUMPDEST PUSH1 0x0 PUSH2 0x1956 DUP3 PUSH2 0x1D7F JUMP JUMPDEST PUSH2 0x1960 DUP2 DUP6 PUSH2 0x1DE4 JUMP JUMPDEST SWAP4 POP PUSH2 0x1970 DUP2 DUP6 PUSH1 0x20 DUP7 ADD PUSH2 0x1E19 JUMP JUMPDEST PUSH2 0x1979 DUP2 PUSH2 0x1FD2 JUMP JUMPDEST DUP5 ADD SWAP2 POP POP SWAP3 SWAP2 POP POP JUMP JUMPDEST PUSH1 0x0 PUSH2 0x198F DUP3 PUSH2 0x1D7F JUMP JUMPDEST PUSH2 0x1999 DUP2 DUP6 PUSH2 0x1DF5 JUMP JUMPDEST SWAP4 POP PUSH2 0x19A9 DUP2 DUP6 PUSH1 0x20 DUP7 ADD PUSH2 0x1E19 JUMP JUMPDEST DUP1 DUP5 ADD SWAP2 POP POP SWAP3 SWAP2 POP POP JUMP JUMPDEST PUSH1 0x0 PUSH1 0xA0 DUP4 ADD PUSH1 0x0 DUP4 ADD MLOAD DUP5 DUP3 SUB PUSH1 0x0 DUP7 ADD MSTORE PUSH2 0x19D2 DUP3 DUP3 PUSH2 0x194B JUMP JUMPDEST SWAP2 POP POP PUSH1 0x20 DUP4 ADD MLOAD DUP5 DUP3 SUB PUSH1 0x20 DUP7 ADD MSTORE PUSH2 0x19EC DUP3 DUP3 PUSH2 0x194B JUMP JUMPDEST SWAP2 POP POP PUSH1 0x40 DUP4 ADD MLOAD DUP5 DUP3 SUB PUSH1 0x40 DUP7 ADD MSTORE PUSH2 0x1A06 DUP3 DUP3 PUSH2 0x194B JUMP JUMPDEST SWAP2 POP POP PUSH1 0x60 DUP4 ADD MLOAD PUSH2 0x1A1B PUSH1 0x60 DUP7 ADD DUP3 PUSH2 0x1BB9 JUMP JUMPDEST POP PUSH1 0x80 DUP4 ADD MLOAD PUSH2 0x1A2E PUSH1 0x80 DUP7 ADD DUP3 PUSH2 0x1BB9 JUMP JUMPDEST POP DUP1 SWAP2 POP POP SWAP3 SWAP2 POP POP JUMP JUMPDEST PUSH1 0x0 PUSH1 0xA0 DUP4 ADD PUSH1 0x0 DUP4 ADD MLOAD DUP5 DUP3 SUB PUSH1 0x0 DUP7 ADD MSTORE PUSH2 0x1A56 DUP3 DUP3 PUSH2 0x194B JUMP JUMPDEST SWAP2 POP POP PUSH1 0x20 DUP4 ADD MLOAD DUP5 DUP3 SUB PUSH1 0x20 DUP7 ADD MSTORE PUSH2 0x1A70 DUP3 DUP3 PUSH2 0x194B JUMP JUMPDEST SWAP2 POP POP PUSH1 0x40 DUP4 ADD MLOAD DUP5 DUP3 SUB PUSH1 0x40 DUP7 ADD MSTORE PUSH2 0x1A8A DUP3 DUP3 PUSH2 0x194B JUMP JUMPDEST SWAP2 POP POP PUSH1 0x60 DUP4 ADD MLOAD PUSH2 0x1A9F PUSH1 0x60 DUP7 ADD DUP3 PUSH2 0x1BB9 JUMP JUMPDEST POP PUSH1 0x80 DUP4 ADD MLOAD PUSH2 0x1AB2 PUSH1 0x80 DUP7 ADD DUP3 PUSH2 0x1BB9 JUMP JUMPDEST POP DUP1 SWAP2 POP POP SWAP3 SWAP2 POP POP JUMP JUMPDEST PUSH1 0x0 PUSH1 0x80 DUP4 ADD PUSH1 0x0 DUP4 ADD MLOAD DUP5 DUP3 SUB PUSH1 0x0 DUP7 ADD MSTORE PUSH2 0x1ADA DUP3 DUP3 PUSH2 0x194B JUMP JUMPDEST SWAP2 POP POP PUSH1 0x20 DUP4 ADD MLOAD DUP5 DUP3 SUB PUSH1 0x20 DUP7 ADD MSTORE PUSH2 0x1AF4 DUP3 DUP3 PUSH2 0x194B JUMP JUMPDEST SWAP2 POP POP PUSH1 0x40 DUP4 ADD MLOAD PUSH2 0x1B09 PUSH1 0x40 DUP7 ADD DUP3 PUSH2 0x1BB9 JUMP JUMPDEST POP PUSH1 0x60 DUP4 ADD MLOAD DUP5 DUP3 SUB PUSH1 0x60 DUP7 ADD MSTORE PUSH2 0x1B21 DUP3 DUP3 PUSH2 0x17DE JUMP JUMPDEST SWAP2 POP POP DUP1 SWAP2 POP POP SWAP3 SWAP2 POP POP JUMP JUMPDEST PUSH1 0x0 PUSH1 0xA0 DUP4 ADD PUSH1 0x0 DUP4 ADD MLOAD DUP5 DUP3 SUB PUSH1 0x0 DUP7 ADD MSTORE PUSH2 0x1B4B DUP3 DUP3 PUSH2 0x194B JUMP JUMPDEST SWAP2 POP POP PUSH1 0x20 DUP4 ADD MLOAD DUP5 DUP3 SUB PUSH1 0x20 DUP7 ADD MSTORE PUSH2 0x1B65 DUP3 DUP3 PUSH2 0x194B JUMP JUMPDEST SWAP2 POP POP PUSH1 0x40 DUP4 ADD MLOAD DUP5 DUP3 SUB PUSH1 0x40 DUP7 ADD MSTORE PUSH2 0x1B7F DUP3 DUP3 PUSH2 0x194B JUMP JUMPDEST SWAP2 POP POP PUSH1 0x60 DUP4 ADD MLOAD DUP5 DUP3 SUB PUSH1 0x60 DUP7 ADD MSTORE PUSH2 0x1B99 DUP3 DUP3 PUSH2 0x18C8 JUMP JUMPDEST SWAP2 POP POP PUSH1 0x80 DUP4 ADD MLOAD PUSH2 0x1BAE PUSH1 0x80 DUP7 ADD DUP3 PUSH2 0x1BB9 JUMP JUMPDEST POP DUP1 SWAP2 POP POP SWAP3 SWAP2 POP POP JUMP JUMPDEST PUSH2 0x1BC2 DUP2 PUSH2 0x1E00 JUMP JUMPDEST DUP3 MSTORE POP POP JUMP JUMPDEST PUSH1 0x0 PUSH2 0x1BD5 DUP3 DUP5 DUP7 PUSH2 0x1926 JUMP JUMPDEST SWAP2 POP DUP2 SWAP1 POP SWAP4 SWAP3 POP POP POP JUMP JUMPDEST PUSH1 0x0 PUSH2 0x1BED DUP3 DUP5 PUSH2 0x1984 JUMP JUMPDEST SWAP2 POP DUP2 SWAP1 POP SWAP3 SWAP2 POP POP JUMP JUMPDEST PUSH1 0x0 PUSH1 0x20 DUP3 ADD SWAP1 POP DUP2 DUP2 SUB PUSH1 0x0 DUP4 ADD MSTORE PUSH2 0x1C12 DUP2 DUP5 PUSH2 0x1853 JUMP JUMPDEST SWAP1 POP SWAP3 SWAP2 POP POP JUMP JUMPDEST PUSH1 0x0 PUSH1 0x20 DUP3 ADD SWAP1 POP DUP2 DUP2 SUB PUSH1 0x0 DUP4 ADD MSTORE PUSH2 0x1C34 DUP2 DUP5 PUSH2 0x1A39 JUMP JUMPDEST SWAP1 POP SWAP3 SWAP2 POP POP JUMP JUMPDEST PUSH1 0x0 PUSH1 0x20 DUP3 ADD SWAP1 POP DUP2 DUP2 SUB PUSH1 0x0 DUP4 ADD MSTORE PUSH2 0x1C56 DUP2 DUP5 PUSH2 0x1ABD JUMP JUMPDEST SWAP1 POP SWAP3 SWAP2 POP POP JUMP JUMPDEST PUSH1 0x0 PUSH1 0x20 DUP3 ADD SWAP1 POP DUP2 DUP2 SUB PUSH1 0x0 DUP4 ADD MSTORE PUSH2 0x1C78 DUP2 DUP5 PUSH2 0x1B2E JUMP JUMPDEST SWAP1 POP SWAP3 SWAP2 POP POP JUMP JUMPDEST PUSH1 0x0 PUSH2 0x1C8A PUSH2 0x1C9B JUMP JUMPDEST SWAP1 POP PUSH2 0x1C96 DUP3 DUP3 PUSH2 0x1E7E JUMP JUMPDEST SWAP2 SWAP1 POP JUMP JUMPDEST PUSH1 0x0 PUSH1 0x40 MLOAD SWAP1 POP SWAP1 JUMP JUMPDEST PUSH1 0x0 PUSH8 0xFFFFFFFFFFFFFFFF DUP3 GT ISZERO PUSH2 0x1CC0 JUMPI PUSH2 0x1CBF PUSH2 0x1F85 JUMP JUMPDEST JUMPDEST PUSH1 0x20 DUP3 MUL SWAP1 POP PUSH1 0x20 DUP2 ADD SWAP1 POP SWAP2 SWAP1 POP JUMP JUMPDEST PUSH1 0x0 PUSH8 0xFFFFFFFFFFFFFFFF DUP3 GT ISZERO PUSH2 0x1CEC JUMPI PUSH2 0x1CEB PUSH2 0x1F85 JUMP JUMPDEST JUMPDEST PUSH1 0x20 DUP3 MUL SWAP1 POP PUSH1 0x20 DUP2 ADD SWAP1 POP SWAP2 SWAP1 POP JUMP JUMPDEST PUSH1 0x0 PUSH8 0xFFFFFFFFFFFFFFFF DUP3 GT ISZERO PUSH2 0x1D18 JUMPI PUSH2 0x1D17 PUSH2 0x1F85 JUMP JUMPDEST JUMPDEST PUSH2 0x1D21 DUP3 PUSH2 0x1FD2 JUMP JUMPDEST SWAP1 POP PUSH1 0x20 DUP2 ADD SWAP1 POP SWAP2 SWAP1 POP JUMP JUMPDEST PUSH1 0x0 DUP2 SWAP1 POP PUSH1 0x20 DUP3 ADD SWAP1 POP SWAP2 SWAP1 POP JUMP JUMPDEST PUSH1 0x0 DUP2 SWAP1 POP PUSH1 0x20 DUP3 ADD SWAP1 POP SWAP2 SWAP1 POP JUMP JUMPDEST PUSH1 0x0 DUP2 SWAP1 POP PUSH1 0x20 DUP3 ADD SWAP1 POP SWAP2 SWAP1 POP JUMP JUMPDEST PUSH1 0x0 DUP2 MLOAD SWAP1 POP SWAP2 SWAP1 POP JUMP JUMPDEST PUSH1 0x0 DUP2 MLOAD SWAP1 POP SWAP2 SWAP1 POP JUMP JUMPDEST PUSH1 0x0 DUP2 MLOAD SWAP1 POP SWAP2 SWAP1 POP JUMP JUMPDEST PUSH1 0x0 DUP2 MLOAD SWAP1 POP SWAP2 SWAP1 POP JUMP JUMPDEST PUSH1 0x0 PUSH1 0x20 DUP3 ADD SWAP1 POP SWAP2 SWAP1 POP JUMP JUMPDEST PUSH1 0x0 PUSH1 0x20 DUP3 ADD SWAP1 POP SWAP2 SWAP1 POP JUMP JUMPDEST PUSH1 0x0 PUSH1 0x20 DUP3 ADD SWAP1 POP SWAP2 SWAP1 POP JUMP JUMPDEST PUSH1 0x0 DUP3 DUP3 MSTORE PUSH1 0x20 DUP3 ADD SWAP1 POP SWAP3 SWAP2 POP POP JUMP JUMPDEST PUSH1 0x0 DUP3 DUP3 MSTORE PUSH1 0x20 DUP3 ADD SWAP1 POP SWAP3 SWAP2 POP POP JUMP JUMPDEST PUSH1 0x0 DUP3 DUP3 MSTORE PUSH1 0x20 DUP3 ADD SWAP1 POP SWAP3 SWAP2 POP POP JUMP JUMPDEST PUSH1 0x0 DUP3 DUP3 MSTORE PUSH1 0x20 DUP3 ADD SWAP1 POP SWAP3 SWAP2 POP POP JUMP JUMPDEST PUSH1 0x0 DUP2 SWAP1 POP SWAP3 SWAP2 POP POP JUMP JUMPDEST PUSH1 0x0 DUP2 SWAP1 POP SWAP2 SWAP1 POP JUMP JUMPDEST DUP3 DUP2 DUP4 CALLDATACOPY PUSH1 0x0 DUP4 DUP4 ADD MSTORE POP POP POP JUMP JUMPDEST PUSH1 0x0 JUMPDEST DUP4 DUP2 LT ISZERO PUSH2 0x1E37 JUMPI DUP1 DUP3 ADD MLOAD DUP2 DUP5 ADD MSTORE PUSH1 0x20 DUP2 ADD SWAP1 POP PUSH2 0x1E1C JUMP JUMPDEST DUP4 DUP2 GT ISZERO PUSH2 0x1E46 JUMPI PUSH1 0x0 DUP5 DUP5 ADD MSTORE JUMPDEST POP POP POP POP JUMP JUMPDEST PUSH1 0x0 PUSH1 0x2 DUP3 DIV SWAP1 POP PUSH1 0x1 DUP3 AND DUP1 PUSH2 0x1E64 JUMPI PUSH1 0x7F DUP3 AND SWAP2 POP JUMPDEST PUSH1 0x20 DUP3 LT DUP2 EQ ISZERO PUSH2 0x1E78 JUMPI PUSH2 0x1E77 PUSH2 0x1F27 JUMP JUMPDEST JUMPDEST POP SWAP2 SWAP1 POP JUMP JUMPDEST PUSH2 0x1E87 DUP3 PUSH2 0x1FD2 JUMP JUMPDEST DUP2 ADD DUP2 DUP2 LT PUSH8 0xFFFFFFFFFFFFFFFF DUP3 GT OR ISZERO PUSH2 0x1EA6 JUMPI PUSH2 0x1EA5 PUSH2 0x1F85 JUMP JUMPDEST JUMPDEST DUP1 PUSH1 0x40 MSTORE POP POP POP JUMP JUMPDEST PUSH1 0x0 PUSH2 0x1EBA DUP3 PUSH2 0x1E00 JUMP JUMPDEST SWAP2 POP PUSH32 0xFFFFFFFFFFFFFFFFFFFFFFFFFFFFFFFFFFFFFFFFFFFFFFFFFFFFFFFFFFFFFFFF DUP3 EQ ISZERO PUSH2 0x1EED JUMPI PUSH2 0x1EEC PUSH2 0x1EF8 JUMP JUMPDEST JUMPDEST PUSH1 0x1 DUP3 ADD SWAP1 POP SWAP2 SWAP1 POP JUMP JUMPDEST PUSH32 0x4E487B7100000000000000000000000000000000000000000000000000000000 PUSH1 0x0 MSTORE PUSH1 0x11 PUSH1 0x4 MSTORE PUSH1 0x24 PUSH1 0x0 REVERT JUMPDEST PUSH32 0x4E487B7100000000000000000000000000000000000000000000000000000000 PUSH1 0x0 MSTORE PUSH1 0x22 PUSH1 0x4 MSTORE PUSH1 0x24 PUSH1 0x0 REVERT JUMPDEST PUSH32 0x4E487B7100000000000000000000000000000000000000000000000000000000 PUSH1 0x0 MSTORE PUSH1 0x32 PUSH1 0x4 MSTORE PUSH1 0x24 PUSH1 0x0 REVERT JUMPDEST PUSH32 0x4E487B7100000000000000000000000000000000000000000000000000000000 PUSH1 0x0 MSTORE PUSH1 0x41 PUSH1 0x4 MSTORE PUSH1 0x24 PUSH1 0x0 REVERT JUMPDEST PUSH1 0x0 DUP1 REVERT JUMPDEST PUSH1 0x0 DUP1 REVERT JUMPDEST PUSH1 0x0 DUP1 REVERT JUMPDEST PUSH1 0x0 DUP1 REVERT JUMPDEST PUSH1 0x0 DUP1 REVERT JUMPDEST PUSH1 0x0 DUP1 REVERT JUMPDEST PUSH1 0x0 PUSH1 0x1F NOT PUSH1 0x1F DUP4 ADD AND SWAP1 POP SWAP2 SWAP1 POP JUMP JUMPDEST PUSH2 0x1FEC DUP2 PUSH2 0x1E00 JUMP JUMPDEST DUP2 EQ PUSH2 0x1FF7 JUMPI PUSH1 0x0 DUP1 REVERT JUMPDEST POP JUMP INVALID LOG2 PUSH5 0x6970667358 0x22 SLT KECCAK256 0xCC 0xD6 RETURNDATACOPY 0xCA PUSH11 0xB0EB33C278FAD047D3B81A PUSH12 0x80FEA5ADD95E7FD8CA5D3BD ADDMOD 0xE4 0xAF PUSH5 0x736F6C6343 STOP ADDMOD MOD STOP CALLER "
		},
		"gasEstimates": {
			"creation": {
				"codeDepositCost": "1648000",
				"executionCost": "1729",
				"totalCost": "1649729"
			},
			"external": {
				"addCountry(string,string,string,uint256,uint256)": "infinite",
				"addLGA(string,string,string,string,uint256,string[])": "infinite",
				"addState(string,string,string,string,uint256[],uint256)": "infinite",
				"seeAllCountries(string[])": "infinite",
				"seeCountry(string)": "infinite",
				"seeLGA(string,string,string)": "infinite",
				"seeState(string,string)": "infinite"
			}
		},
		"methodIdentifiers": {
			"addCountry(string,string,string,uint256,uint256)": "ae1f81e4",
			"addLGA(string,string,string,string,uint256,string[])": "e027eb51",
			"addState(string,string,string,string,uint256[],uint256)": "40d48950",
			"seeAllCountries(string[])": "d0e067ea",
			"seeCountry(string)": "30705565",
			"seeLGA(string,string,string)": "7d31f1ee",
			"seeState(string,string)": "b3fde2b1"
		}
	},
	"abi": [
		{
			"inputs": [
				{
					"internalType": "string",
					"name": "_cn",
					"type": "string"
				},
				{
					"internalType": "string",
					"name": "_p",
					"type": "string"
				},
				{
					"internalType": "string",
					"name": "_c",
					"type": "string"
				},
				{
					"internalType": "uint256",
					"name": "_gdp",
					"type": "uint256"
				},
				{
					"internalType": "uint256",
					"name": "_cR",
					"type": "uint256"
				}
			],
			"name": "addCountry",
			"outputs": [],
			"stateMutability": "nonpayable",
			"type": "function"
		},
		{
			"inputs": [
				{
					"internalType": "string",
					"name": "_cn",
					"type": "string"
				},
				{
					"internalType": "string",
					"name": "_st",
					"type": "string"
				},
				{
					"internalType": "string",
					"name": "_lg",
					"type": "string"
				},
				{
					"internalType": "string",
					"name": "_chairman",
					"type": "string"
				},
				{
					"internalType": "uint256",
					"name": "_Revenue",
					"type": "uint256"
				},
				{
					"internalType": "string[]",
					"name": "_markets",
					"type": "string[]"
				}
			],
			"name": "addLGA",
			"outputs": [],
			"stateMutability": "nonpayable",
			"type": "function"
		},
		{
			"inputs": [
				{
					"internalType": "string",
					"name": "_state",
					"type": "string"
				},
				{
					"internalType": "string",
					"name": "_cn",
					"type": "string"
				},
				{
					"internalType": "string",
					"name": "_governor",
					"type": "string"
				},
				{
					"internalType": "string",
					"name": "_capital",
					"type": "string"
				},
				{
					"internalType": "uint256[]",
					"name": "_zipCodes",
					"type": "uint256[]"
				},
				{
					"internalType": "uint256",
					"name": "_IGR",
					"type": "uint256"
				}
			],
			"name": "addState",
			"outputs": [],
			"stateMutability": "nonpayable",
			"type": "function"
		},
		{
			"inputs": [
				{
					"internalType": "string[]",
					"name": "_cn",
					"type": "string[]"
				}
			],
			"name": "seeAllCountries",
			"outputs": [
				{
					"components": [
						{
							"internalType": "string",
							"name": "countryName",
							"type": "string"
						},
						{
							"internalType": "string",
							"name": "president",
							"type": "string"
						},
						{
							"internalType": "string",
							"name": "capital",
							"type": "string"
						},
						{
							"internalType": "uint256",
							"name": "GDP",
							"type": "uint256"
						},
						{
							"internalType": "uint256",
							"name": "countryRevenue",
							"type": "uint256"
						}
					],
					"internalType": "struct CountryDB.CountryWithoutStates[]",
					"name": "c",
					"type": "tuple[]"
				}
			],
			"stateMutability": "view",
			"type": "function"
		},
		{
			"inputs": [
				{
					"internalType": "string",
					"name": "_cn",
					"type": "string"
				}
			],
			"name": "seeCountry",
			"outputs": [
				{
					"components": [
						{
							"internalType": "string",
							"name": "countryName",
							"type": "string"
						},
						{
							"internalType": "string",
							"name": "president",
							"type": "string"
						},
						{
							"internalType": "string",
							"name": "capital",
							"type": "string"
						},
						{
							"internalType": "uint256",
							"name": "GDP",
							"type": "uint256"
						},
						{
							"internalType": "uint256",
							"name": "countryRevenue",
							"type": "uint256"
						}
					],
					"internalType": "struct CountryDB.CountryWithoutStates",
					"name": "c",
					"type": "tuple"
				}
			],
			"stateMutability": "view",
			"type": "function"
		},
		{
			"inputs": [
				{
					"internalType": "string",
					"name": "_lg",
					"type": "string"
				},
				{
					"internalType": "string",
					"name": "_st",
					"type": "string"
				},
				{
					"internalType": "string",
					"name": "_cn",
					"type": "string"
				}
			],
			"name": "seeLGA",
			"outputs": [
				{
					"components": [
						{
							"internalType": "string",
							"name": "lgaName",
							"type": "string"
						},
						{
							"internalType": "string",
							"name": "Chairman",
							"type": "string"
						},
						{
							"internalType": "uint256",
							"name": "Revenue",
							"type": "uint256"
						},
						{
							"internalType": "string[]",
							"name": "markets",
							"type": "string[]"
						}
					],
					"internalType": "struct CountryDB.LGAWithoutMapping",
					"name": "lg",
					"type": "tuple"
				}
			],
			"stateMutability": "view",
			"type": "function"
		},
		{
			"inputs": [
				{
					"internalType": "string",
					"name": "_st",
					"type": "string"
				},
				{
					"internalType": "string",
					"name": "_c",
					"type": "string"
				}
			],
			"name": "seeState",
			"outputs": [
				{
					"components": [
						{
							"internalType": "string",
							"name": "stateName",
							"type": "string"
						},
						{
							"internalType": "string",
							"name": "governor",
							"type": "string"
						},
						{
							"internalType": "string",
							"name": "capital",
							"type": "string"
						},
						{
							"internalType": "uint256[]",
							"name": "zipCodes",
							"type": "uint256[]"
						},
						{
							"internalType": "uint256",
							"name": "IGR",
							"type": "uint256"
						}
					],
					"internalType": "struct CountryDB.StateWithoutmapping",
					"name": "s",
					"type": "tuple"
				}
			],
			"stateMutability": "view",
			"type": "function"
		}
	]
}