{
	"data": {
		"bytecode": {
			"linkReferences": {},
			"object": "608060405234801561001057600080fd5b50610ffa806100206000396000f3fe608060405234801561001057600080fd5b506004361061004c5760003560e01c8063307055651461005157806340d4895014610081578063b3fde2b11461009d578063e84f0954146100cd575b600080fd5b61006b60048036038101906100669190610827565b6100e9565b6040516100789190610d4b565b60405180910390f35b61009b600480360381019061009691906108f5565b610261565b005b6100b760048036038101906100b29190610874565b6102fc565b6040516100c49190610d6d565b60405180910390f35b6100e760048036038101906100e29190610a21565b6104e4565b005b6100f161056e565b6000808484604051610104929190610d1b565b9081526020016040518091039020905080600001805461012390610ebd565b80601f016020809104026020016040519081016040528092919081815260200182805461014f90610ebd565b801561019c5780601f106101715761010080835404028352916020019161019c565b820191906000526020600020905b81548152906001019060200180831161017f57829003601f168201915b505050505082600001819052508060010180546101b890610ebd565b80601f01602080910402602001604051908101604052809291908181526020018280546101e490610ebd565b80156102315780601f1061020657610100808354040283529160200191610231565b820191906000526020600020905b81548152906001019060200180831161021457829003601f168201915b50505050508260200181905250806002015482604001818152505080600301548260600181815250505092915050565b6000808989604051610274929190610d1b565b90815260200160405180910390206004018b8b604051610295929190610d1b565b9081526020016040518091039020905086868260000191906102b8929190610596565b5084848260010191906102cc929190610596565b50828160020190805190602001906102e592919061061c565b508181600301819055505050505050505050505050565b610304610669565b6000808484604051610317929190610d1b565b90815260200160405180910390206004018686604051610338929190610d1b565b9081526020016040518091039020905080600001805461035790610ebd565b80601f016020809104026020016040519081016040528092919081815260200182805461038390610ebd565b80156103d05780601f106103a5576101008083540402835291602001916103d0565b820191906000526020600020905b8154815290600101906020018083116103b357829003601f168201915b505050505082600001819052508060010180546103ec90610ebd565b80601f016020809104026020016040519081016040528092919081815260200182805461041890610ebd565b80156104655780601f1061043a57610100808354040283529160200191610465565b820191906000526020600020905b81548152906001019060200180831161044857829003601f168201915b50505050508260200181905250806002018054806020026020016040519081016040528092919081815260200182805480156104c057602002820191906000526020600020905b8154815260200190600101908083116104ac575b50505050508260400181905250806003015482606001818152505050949350505050565b6000808a8a6040516104f7929190610d1b565b90815260200160405180910390209050878782600001919061051a929190610596565b50858582600101919061052e929190610596565b5083816002018190555082816003018190555080600401826040516105539190610d34565b90815260200160405180910390205050505050505050505050565b6040518060800160405280606081526020016060815260200160008152602001600081525090565b8280546105a290610ebd565b90600052602060002090601f0160209004810192826105c4576000855561060b565b82601f106105dd57803560ff191683800117855561060b565b8280016001018555821561060b579182015b8281111561060a5782358255916020019190600101906105ef565b5b5090506106189190610691565b5090565b828054828255906000526020600020908101928215610658579160200282015b8281111561065757825182559160200191906001019061063c565b5b5090506106659190610691565b5090565b6040518060800160405280606081526020016060815260200160608152602001600081525090565b5b808211156106aa576000816000905550600101610692565b5090565b60006106c16106bc84610db4565b610d8f565b905080838252602082019050828560208602820111156106e4576106e3610f88565b5b60005b8581101561071457816106fa8882610812565b8452602084019350602083019250506001810190506106e7565b5050509392505050565b600061073161072c84610de0565b610d8f565b90508281526020810184848401111561074d5761074c610f8d565b5b610758848285610e7b565b509392505050565b600082601f83011261077557610774610f83565b5b81356107858482602086016106ae565b91505092915050565b60008083601f8401126107a4576107a3610f83565b5b8235905067ffffffffffffffff8111156107c1576107c0610f7e565b5b6020830191508360018202830111156107dd576107dc610f88565b5b9250929050565b600082601f8301126107f9576107f8610f83565b5b813561080984826020860161071e565b91505092915050565b60008135905061082181610fad565b92915050565b6000806020838503121561083e5761083d610f97565b5b600083013567ffffffffffffffff81111561085c5761085b610f92565b5b6108688582860161078e565b92509250509250929050565b6000806000806040858703121561088e5761088d610f97565b5b600085013567ffffffffffffffff8111156108ac576108ab610f92565b5b6108b88782880161078e565b9450945050602085013567ffffffffffffffff8111156108db576108da610f92565b5b6108e78782880161078e565b925092505092959194509250565b60008060008060008060008060008060c08b8d03121561091857610917610f97565b5b60008b013567ffffffffffffffff81111561093657610935610f92565b5b6109428d828e0161078e565b9a509a505060208b013567ffffffffffffffff81111561096557610964610f92565b5b6109718d828e0161078e565b985098505060408b013567ffffffffffffffff81111561099457610993610f92565b5b6109a08d828e0161078e565b965096505060608b013567ffffffffffffffff8111156109c3576109c2610f92565b5b6109cf8d828e0161078e565b945094505060808b013567ffffffffffffffff8111156109f2576109f1610f92565b5b6109fe8d828e01610760565b92505060a0610a0f8d828e01610812565b9150509295989b9194979a5092959850565b600080600080600080600080600060c08a8c031215610a4357610a42610f97565b5b60008a013567ffffffffffffffff811115610a6157610a60610f92565b5b610a6d8c828d0161078e565b995099505060208a013567ffffffffffffffff811115610a9057610a8f610f92565b5b610a9c8c828d0161078e565b975097505060408a013567ffffffffffffffff811115610abf57610abe610f92565b5b610acb8c828d0161078e565b95509550506060610ade8c828d01610812565b9350506080610aef8c828d01610812565b92505060a08a013567ffffffffffffffff811115610b1057610b0f610f92565b5b610b1c8c828d016107e4565b9150509295985092959850929598565b6000610b388383610d0c565b60208301905092915050565b6000610b4f82610e21565b610b598185610e44565b9350610b6483610e11565b8060005b83811015610b95578151610b7c8882610b2c565b9750610b8783610e37565b925050600181019050610b68565b5085935050505092915050565b6000610bae8385610e66565b9350610bbb838584610e7b565b82840190509392505050565b6000610bd282610e2c565b610bdc8185610e55565b9350610bec818560208601610e8a565b610bf581610f9c565b840191505092915050565b6000610c0b82610e2c565b610c158185610e66565b9350610c25818560208601610e8a565b80840191505092915050565b60006080830160008301518482036000860152610c4e8282610bc7565b91505060208301518482036020860152610c688282610bc7565b9150506040830151610c7d6040860182610d0c565b506060830151610c906060860182610d0c565b508091505092915050565b60006080830160008301518482036000860152610cb88282610bc7565b91505060208301518482036020860152610cd28282610bc7565b91505060408301518482036040860152610cec8282610b44565b9150506060830151610d016060860182610d0c565b508091505092915050565b610d1581610e71565b82525050565b6000610d28828486610ba2565b91508190509392505050565b6000610d408284610c00565b915081905092915050565b60006020820190508181036000830152610d658184610c31565b905092915050565b60006020820190508181036000830152610d878184610c9b565b905092915050565b6000610d99610daa565b9050610da58282610eef565b919050565b6000604051905090565b600067ffffffffffffffff821115610dcf57610dce610f4f565b5b602082029050602081019050919050565b600067ffffffffffffffff821115610dfb57610dfa610f4f565b5b610e0482610f9c565b9050602081019050919050565b6000819050602082019050919050565b600081519050919050565b600081519050919050565b6000602082019050919050565b600082825260208201905092915050565b600082825260208201905092915050565b600081905092915050565b6000819050919050565b82818337600083830152505050565b60005b83811015610ea8578082015181840152602081019050610e8d565b83811115610eb7576000848401525b50505050565b60006002820490506001821680610ed557607f821691505b60208210811415610ee957610ee8610f20565b5b50919050565b610ef882610f9c565b810181811067ffffffffffffffff82111715610f1757610f16610f4f565b5b80604052505050565b7f4e487b7100000000000000000000000000000000000000000000000000000000600052602260045260246000fd5b7f4e487b7100000000000000000000000000000000000000000000000000000000600052604160045260246000fd5b600080fd5b600080fd5b600080fd5b600080fd5b600080fd5b600080fd5b6000601f19601f8301169050919050565b610fb681610e71565b8114610fc157600080fd5b5056fea2646970667358221220a5ce6740a05fb08c028df0e318aeaf31f9c6e7cc93d8303c86a975735d64a92364736f6c63430008060033",
			"opcodes": "PUSH1 0x80 PUSH1 0x40 MSTORE CALLVALUE DUP1 ISZERO PUSH2 0x10 JUMPI PUSH1 0x0 DUP1 REVERT JUMPDEST POP PUSH2 0xFFA DUP1 PUSH2 0x20 PUSH1 0x0 CODECOPY PUSH1 0x0 RETURN INVALID PUSH1 0x80 PUSH1 0x40 MSTORE CALLVALUE DUP1 ISZERO PUSH2 0x10 JUMPI PUSH1 0x0 DUP1 REVERT JUMPDEST POP PUSH1 0x4 CALLDATASIZE LT PUSH2 0x4C JUMPI PUSH1 0x0 CALLDATALOAD PUSH1 0xE0 SHR DUP1 PUSH4 0x30705565 EQ PUSH2 0x51 JUMPI DUP1 PUSH4 0x40D48950 EQ PUSH2 0x81 JUMPI DUP1 PUSH4 0xB3FDE2B1 EQ PUSH2 0x9D JUMPI DUP1 PUSH4 0xE84F0954 EQ PUSH2 0xCD JUMPI JUMPDEST PUSH1 0x0 DUP1 REVERT JUMPDEST PUSH2 0x6B PUSH1 0x4 DUP1 CALLDATASIZE SUB DUP2 ADD SWAP1 PUSH2 0x66 SWAP2 SWAP1 PUSH2 0x827 JUMP JUMPDEST PUSH2 0xE9 JUMP JUMPDEST PUSH1 0x40 MLOAD PUSH2 0x78 SWAP2 SWAP1 PUSH2 0xD4B JUMP JUMPDEST PUSH1 0x40 MLOAD DUP1 SWAP2 SUB SWAP1 RETURN JUMPDEST PUSH2 0x9B PUSH1 0x4 DUP1 CALLDATASIZE SUB DUP2 ADD SWAP1 PUSH2 0x96 SWAP2 SWAP1 PUSH2 0x8F5 JUMP JUMPDEST PUSH2 0x261 JUMP JUMPDEST STOP JUMPDEST PUSH2 0xB7 PUSH1 0x4 DUP1 CALLDATASIZE SUB DUP2 ADD SWAP1 PUSH2 0xB2 SWAP2 SWAP1 PUSH2 0x874 JUMP JUMPDEST PUSH2 0x2FC JUMP JUMPDEST PUSH1 0x40 MLOAD PUSH2 0xC4 SWAP2 SWAP1 PUSH2 0xD6D JUMP JUMPDEST PUSH1 0x40 MLOAD DUP1 SWAP2 SUB SWAP1 RETURN JUMPDEST PUSH2 0xE7 PUSH1 0x4 DUP1 CALLDATASIZE SUB DUP2 ADD SWAP1 PUSH2 0xE2 SWAP2 SWAP1 PUSH2 0xA21 JUMP JUMPDEST PUSH2 0x4E4 JUMP JUMPDEST STOP JUMPDEST PUSH2 0xF1 PUSH2 0x56E JUMP JUMPDEST PUSH1 0x0 DUP1 DUP5 DUP5 PUSH1 0x40 MLOAD PUSH2 0x104 SWAP3 SWAP2 SWAP1 PUSH2 0xD1B JUMP JUMPDEST SWAP1 DUP2 MSTORE PUSH1 0x20 ADD PUSH1 0x40 MLOAD DUP1 SWAP2 SUB SWAP1 KECCAK256 SWAP1 POP DUP1 PUSH1 0x0 ADD DUP1 SLOAD PUSH2 0x123 SWAP1 PUSH2 0xEBD JUMP JUMPDEST DUP1 PUSH1 0x1F ADD PUSH1 0x20 DUP1 SWAP2 DIV MUL PUSH1 0x20 ADD PUSH1 0x40 MLOAD SWAP1 DUP2 ADD PUSH1 0x40 MSTORE DUP1 SWAP3 SWAP2 SWAP1 DUP2 DUP2 MSTORE PUSH1 0x20 ADD DUP3 DUP1 SLOAD PUSH2 0x14F SWAP1 PUSH2 0xEBD JUMP JUMPDEST DUP1 ISZERO PUSH2 0x19C JUMPI DUP1 PUSH1 0x1F LT PUSH2 0x171 JUMPI PUSH2 0x100 DUP1 DUP4 SLOAD DIV MUL DUP4 MSTORE SWAP2 PUSH1 0x20 ADD SWAP2 PUSH2 0x19C JUMP JUMPDEST DUP3 ADD SWAP2 SWAP1 PUSH1 0x0 MSTORE PUSH1 0x20 PUSH1 0x0 KECCAK256 SWAP1 JUMPDEST DUP2 SLOAD DUP2 MSTORE SWAP1 PUSH1 0x1 ADD SWAP1 PUSH1 0x20 ADD DUP1 DUP4 GT PUSH2 0x17F JUMPI DUP3 SWAP1 SUB PUSH1 0x1F AND DUP3 ADD SWAP2 JUMPDEST POP POP POP POP POP DUP3 PUSH1 0x0 ADD DUP2 SWAP1 MSTORE POP DUP1 PUSH1 0x1 ADD DUP1 SLOAD PUSH2 0x1B8 SWAP1 PUSH2 0xEBD JUMP JUMPDEST DUP1 PUSH1 0x1F ADD PUSH1 0x20 DUP1 SWAP2 DIV MUL PUSH1 0x20 ADD PUSH1 0x40 MLOAD SWAP1 DUP2 ADD PUSH1 0x40 MSTORE DUP1 SWAP3 SWAP2 SWAP1 DUP2 DUP2 MSTORE PUSH1 0x20 ADD DUP3 DUP1 SLOAD PUSH2 0x1E4 SWAP1 PUSH2 0xEBD JUMP JUMPDEST DUP1 ISZERO PUSH2 0x231 JUMPI DUP1 PUSH1 0x1F LT PUSH2 0x206 JUMPI PUSH2 0x100 DUP1 DUP4 SLOAD DIV MUL DUP4 MSTORE SWAP2 PUSH1 0x20 ADD SWAP2 PUSH2 0x231 JUMP JUMPDEST DUP3 ADD SWAP2 SWAP1 PUSH1 0x0 MSTORE PUSH1 0x20 PUSH1 0x0 KECCAK256 SWAP1 JUMPDEST DUP2 SLOAD DUP2 MSTORE SWAP1 PUSH1 0x1 ADD SWAP1 PUSH1 0x20 ADD DUP1 DUP4 GT PUSH2 0x214 JUMPI DUP3 SWAP1 SUB PUSH1 0x1F AND DUP3 ADD SWAP2 JUMPDEST POP POP POP POP POP DUP3 PUSH1 0x20 ADD DUP2 SWAP1 MSTORE POP DUP1 PUSH1 0x2 ADD SLOAD DUP3 PUSH1 0x40 ADD DUP2 DUP2 MSTORE POP POP DUP1 PUSH1 0x3 ADD SLOAD DUP3 PUSH1 0x60 ADD DUP2 DUP2 MSTORE POP POP POP SWAP3 SWAP2 POP POP JUMP JUMPDEST PUSH1 0x0 DUP1 DUP10 DUP10 PUSH1 0x40 MLOAD PUSH2 0x274 SWAP3 SWAP2 SWAP1 PUSH2 0xD1B JUMP JUMPDEST SWAP1 DUP2 MSTORE PUSH1 0x20 ADD PUSH1 0x40 MLOAD DUP1 SWAP2 SUB SWAP1 KECCAK256 PUSH1 0x4 ADD DUP12 DUP12 PUSH1 0x40 MLOAD PUSH2 0x295 SWAP3 SWAP2 SWAP1 PUSH2 0xD1B JUMP JUMPDEST SWAP1 DUP2 MSTORE PUSH1 0x20 ADD PUSH1 0x40 MLOAD DUP1 SWAP2 SUB SWAP1 KECCAK256 SWAP1 POP DUP7 DUP7 DUP3 PUSH1 0x0 ADD SWAP2 SWAP1 PUSH2 0x2B8 SWAP3 SWAP2 SWAP1 PUSH2 0x596 JUMP JUMPDEST POP DUP5 DUP5 DUP3 PUSH1 0x1 ADD SWAP2 SWAP1 PUSH2 0x2CC SWAP3 SWAP2 SWAP1 PUSH2 0x596 JUMP JUMPDEST POP DUP3 DUP2 PUSH1 0x2 ADD SWAP1 DUP1 MLOAD SWAP1 PUSH1 0x20 ADD SWAP1 PUSH2 0x2E5 SWAP3 SWAP2 SWAP1 PUSH2 0x61C JUMP JUMPDEST POP DUP2 DUP2 PUSH1 0x3 ADD DUP2 SWAP1 SSTORE POP POP POP POP POP POP POP POP POP POP POP POP JUMP JUMPDEST PUSH2 0x304 PUSH2 0x669 JUMP JUMPDEST PUSH1 0x0 DUP1 DUP5 DUP5 PUSH1 0x40 MLOAD PUSH2 0x317 SWAP3 SWAP2 SWAP1 PUSH2 0xD1B JUMP JUMPDEST SWAP1 DUP2 MSTORE PUSH1 0x20 ADD PUSH1 0x40 MLOAD DUP1 SWAP2 SUB SWAP1 KECCAK256 PUSH1 0x4 ADD DUP7 DUP7 PUSH1 0x40 MLOAD PUSH2 0x338 SWAP3 SWAP2 SWAP1 PUSH2 0xD1B JUMP JUMPDEST SWAP1 DUP2 MSTORE PUSH1 0x20 ADD PUSH1 0x40 MLOAD DUP1 SWAP2 SUB SWAP1 KECCAK256 SWAP1 POP DUP1 PUSH1 0x0 ADD DUP1 SLOAD PUSH2 0x357 SWAP1 PUSH2 0xEBD JUMP JUMPDEST DUP1 PUSH1 0x1F ADD PUSH1 0x20 DUP1 SWAP2 DIV MUL PUSH1 0x20 ADD PUSH1 0x40 MLOAD SWAP1 DUP2 ADD PUSH1 0x40 MSTORE DUP1 SWAP3 SWAP2 SWAP1 DUP2 DUP2 MSTORE PUSH1 0x20 ADD DUP3 DUP1 SLOAD PUSH2 0x383 SWAP1 PUSH2 0xEBD JUMP JUMPDEST DUP1 ISZERO PUSH2 0x3D0 JUMPI DUP1 PUSH1 0x1F LT PUSH2 0x3A5 JUMPI PUSH2 0x100 DUP1 DUP4 SLOAD DIV MUL DUP4 MSTORE SWAP2 PUSH1 0x20 ADD SWAP2 PUSH2 0x3D0 JUMP JUMPDEST DUP3 ADD SWAP2 SWAP1 PUSH1 0x0 MSTORE PUSH1 0x20 PUSH1 0x0 KECCAK256 SWAP1 JUMPDEST DUP2 SLOAD DUP2 MSTORE SWAP1 PUSH1 0x1 ADD SWAP1 PUSH1 0x20 ADD DUP1 DUP4 GT PUSH2 0x3B3 JUMPI DUP3 SWAP1 SUB PUSH1 0x1F AND DUP3 ADD SWAP2 JUMPDEST POP POP POP POP POP DUP3 PUSH1 0x0 ADD DUP2 SWAP1 MSTORE POP DUP1 PUSH1 0x1 ADD DUP1 SLOAD PUSH2 0x3EC SWAP1 PUSH2 0xEBD JUMP JUMPDEST DUP1 PUSH1 0x1F ADD PUSH1 0x20 DUP1 SWAP2 DIV MUL PUSH1 0x20 ADD PUSH1 0x40 MLOAD SWAP1 DUP2 ADD PUSH1 0x40 MSTORE DUP1 SWAP3 SWAP2 SWAP1 DUP2 DUP2 MSTORE PUSH1 0x20 ADD DUP3 DUP1 SLOAD PUSH2 0x418 SWAP1 PUSH2 0xEBD JUMP JUMPDEST DUP1 ISZERO PUSH2 0x465 JUMPI DUP1 PUSH1 0x1F LT PUSH2 0x43A JUMPI PUSH2 0x100 DUP1 DUP4 SLOAD DIV MUL DUP4 MSTORE SWAP2 PUSH1 0x20 ADD SWAP2 PUSH2 0x465 JUMP JUMPDEST DUP3 ADD SWAP2 SWAP1 PUSH1 0x0 MSTORE PUSH1 0x20 PUSH1 0x0 KECCAK256 SWAP1 JUMPDEST DUP2 SLOAD DUP2 MSTORE SWAP1 PUSH1 0x1 ADD SWAP1 PUSH1 0x20 ADD DUP1 DUP4 GT PUSH2 0x448 JUMPI DUP3 SWAP1 SUB PUSH1 0x1F AND DUP3 ADD SWAP2 JUMPDEST POP POP POP POP POP DUP3 PUSH1 0x20 ADD DUP2 SWAP1 MSTORE POP DUP1 PUSH1 0x2 ADD DUP1 SLOAD DUP1 PUSH1 0x20 MUL PUSH1 0x20 ADD PUSH1 0x40 MLOAD SWAP1 DUP2 ADD PUSH1 0x40 MSTORE DUP1 SWAP3 SWAP2 SWAP1 DUP2 DUP2 MSTORE PUSH1 0x20 ADD DUP3 DUP1 SLOAD DUP1 ISZERO PUSH2 0x4C0 JUMPI PUSH1 0x20 MUL DUP3 ADD SWAP2 SWAP1 PUSH1 0x0 MSTORE PUSH1 0x20 PUSH1 0x0 KECCAK256 SWAP1 JUMPDEST DUP2 SLOAD DUP2 MSTORE PUSH1 0x20 ADD SWAP1 PUSH1 0x1 ADD SWAP1 DUP1 DUP4 GT PUSH2 0x4AC JUMPI JUMPDEST POP POP POP POP POP DUP3 PUSH1 0x40 ADD DUP2 SWAP1 MSTORE POP DUP1 PUSH1 0x3 ADD SLOAD DUP3 PUSH1 0x60 ADD DUP2 DUP2 MSTORE POP POP POP SWAP5 SWAP4 POP POP POP POP JUMP JUMPDEST PUSH1 0x0 DUP1 DUP11 DUP11 PUSH1 0x40 MLOAD PUSH2 0x4F7 SWAP3 SWAP2 SWAP1 PUSH2 0xD1B JUMP JUMPDEST SWAP1 DUP2 MSTORE PUSH1 0x20 ADD PUSH1 0x40 MLOAD DUP1 SWAP2 SUB SWAP1 KECCAK256 SWAP1 POP DUP8 DUP8 DUP3 PUSH1 0x0 ADD SWAP2 SWAP1 PUSH2 0x51A SWAP3 SWAP2 SWAP1 PUSH2 0x596 JUMP JUMPDEST POP DUP6 DUP6 DUP3 PUSH1 0x1 ADD SWAP2 SWAP1 PUSH2 0x52E SWAP3 SWAP2 SWAP1 PUSH2 0x596 JUMP JUMPDEST POP DUP4 DUP2 PUSH1 0x2 ADD DUP2 SWAP1 SSTORE POP DUP3 DUP2 PUSH1 0x3 ADD DUP2 SWAP1 SSTORE POP DUP1 PUSH1 0x4 ADD DUP3 PUSH1 0x40 MLOAD PUSH2 0x553 SWAP2 SWAP1 PUSH2 0xD34 JUMP JUMPDEST SWAP1 DUP2 MSTORE PUSH1 0x20 ADD PUSH1 0x40 MLOAD DUP1 SWAP2 SUB SWAP1 KECCAK256 POP POP POP POP POP POP POP POP POP POP POP JUMP JUMPDEST PUSH1 0x40 MLOAD DUP1 PUSH1 0x80 ADD PUSH1 0x40 MSTORE DUP1 PUSH1 0x60 DUP2 MSTORE PUSH1 0x20 ADD PUSH1 0x60 DUP2 MSTORE PUSH1 0x20 ADD PUSH1 0x0 DUP2 MSTORE PUSH1 0x20 ADD PUSH1 0x0 DUP2 MSTORE POP SWAP1 JUMP JUMPDEST DUP3 DUP1 SLOAD PUSH2 0x5A2 SWAP1 PUSH2 0xEBD JUMP JUMPDEST SWAP1 PUSH1 0x0 MSTORE PUSH1 0x20 PUSH1 0x0 KECCAK256 SWAP1 PUSH1 0x1F ADD PUSH1 0x20 SWAP1 DIV DUP2 ADD SWAP3 DUP3 PUSH2 0x5C4 JUMPI PUSH1 0x0 DUP6 SSTORE PUSH2 0x60B JUMP JUMPDEST DUP3 PUSH1 0x1F LT PUSH2 0x5DD JUMPI DUP1 CALLDATALOAD PUSH1 0xFF NOT AND DUP4 DUP1 ADD OR DUP6 SSTORE PUSH2 0x60B JUMP JUMPDEST DUP3 DUP1 ADD PUSH1 0x1 ADD DUP6 SSTORE DUP3 ISZERO PUSH2 0x60B JUMPI SWAP2 DUP3 ADD JUMPDEST DUP3 DUP2 GT ISZERO PUSH2 0x60A JUMPI DUP3 CALLDATALOAD DUP3 SSTORE SWAP2 PUSH1 0x20 ADD SWAP2 SWAP1 PUSH1 0x1 ADD SWAP1 PUSH2 0x5EF JUMP JUMPDEST JUMPDEST POP SWAP1 POP PUSH2 0x618 SWAP2 SWAP1 PUSH2 0x691 JUMP JUMPDEST POP SWAP1 JUMP JUMPDEST DUP3 DUP1 SLOAD DUP3 DUP3 SSTORE SWAP1 PUSH1 0x0 MSTORE PUSH1 0x20 PUSH1 0x0 KECCAK256 SWAP1 DUP2 ADD SWAP3 DUP3 ISZERO PUSH2 0x658 JUMPI SWAP2 PUSH1 0x20 MUL DUP3 ADD JUMPDEST DUP3 DUP2 GT ISZERO PUSH2 0x657 JUMPI DUP3 MLOAD DUP3 SSTORE SWAP2 PUSH1 0x20 ADD SWAP2 SWAP1 PUSH1 0x1 ADD SWAP1 PUSH2 0x63C JUMP JUMPDEST JUMPDEST POP SWAP1 POP PUSH2 0x665 SWAP2 SWAP1 PUSH2 0x691 JUMP JUMPDEST POP SWAP1 JUMP JUMPDEST PUSH1 0x40 MLOAD DUP1 PUSH1 0x80 ADD PUSH1 0x40 MSTORE DUP1 PUSH1 0x60 DUP2 MSTORE PUSH1 0x20 ADD PUSH1 0x60 DUP2 MSTORE PUSH1 0x20 ADD PUSH1 0x60 DUP2 MSTORE PUSH1 0x20 ADD PUSH1 0x0 DUP2 MSTORE POP SWAP1 JUMP JUMPDEST JUMPDEST DUP1 DUP3 GT ISZERO PUSH2 0x6AA JUMPI PUSH1 0x0 DUP2 PUSH1 0x0 SWAP1 SSTORE POP PUSH1 0x1 ADD PUSH2 0x692 JUMP JUMPDEST POP SWAP1 JUMP JUMPDEST PUSH1 0x0 PUSH2 0x6C1 PUSH2 0x6BC DUP5 PUSH2 0xDB4 JUMP JUMPDEST PUSH2 0xD8F JUMP JUMPDEST SWAP1 POP DUP1 DUP4 DUP3 MSTORE PUSH1 0x20 DUP3 ADD SWAP1 POP DUP3 DUP6 PUSH1 0x20 DUP7 MUL DUP3 ADD GT ISZERO PUSH2 0x6E4 JUMPI PUSH2 0x6E3 PUSH2 0xF88 JUMP JUMPDEST JUMPDEST PUSH1 0x0 JUMPDEST DUP6 DUP2 LT ISZERO PUSH2 0x714 JUMPI DUP2 PUSH2 0x6FA DUP9 DUP3 PUSH2 0x812 JUMP JUMPDEST DUP5 MSTORE PUSH1 0x20 DUP5 ADD SWAP4 POP PUSH1 0x20 DUP4 ADD SWAP3 POP POP PUSH1 0x1 DUP2 ADD SWAP1 POP PUSH2 0x6E7 JUMP JUMPDEST POP POP POP SWAP4 SWAP3 POP POP POP JUMP JUMPDEST PUSH1 0x0 PUSH2 0x731 PUSH2 0x72C DUP5 PUSH2 0xDE0 JUMP JUMPDEST PUSH2 0xD8F JUMP JUMPDEST SWAP1 POP DUP3 DUP2 MSTORE PUSH1 0x20 DUP2 ADD DUP5 DUP5 DUP5 ADD GT ISZERO PUSH2 0x74D JUMPI PUSH2 0x74C PUSH2 0xF8D JUMP JUMPDEST JUMPDEST PUSH2 0x758 DUP5 DUP3 DUP6 PUSH2 0xE7B JUMP JUMPDEST POP SWAP4 SWAP3 POP POP POP JUMP JUMPDEST PUSH1 0x0 DUP3 PUSH1 0x1F DUP4 ADD SLT PUSH2 0x775 JUMPI PUSH2 0x774 PUSH2 0xF83 JUMP JUMPDEST JUMPDEST DUP2 CALLDATALOAD PUSH2 0x785 DUP5 DUP3 PUSH1 0x20 DUP7 ADD PUSH2 0x6AE JUMP JUMPDEST SWAP2 POP POP SWAP3 SWAP2 POP POP JUMP JUMPDEST PUSH1 0x0 DUP1 DUP4 PUSH1 0x1F DUP5 ADD SLT PUSH2 0x7A4 JUMPI PUSH2 0x7A3 PUSH2 0xF83 JUMP JUMPDEST JUMPDEST DUP3 CALLDATALOAD SWAP1 POP PUSH8 0xFFFFFFFFFFFFFFFF DUP2 GT ISZERO PUSH2 0x7C1 JUMPI PUSH2 0x7C0 PUSH2 0xF7E JUMP JUMPDEST JUMPDEST PUSH1 0x20 DUP4 ADD SWAP2 POP DUP4 PUSH1 0x1 DUP3 MUL DUP4 ADD GT ISZERO PUSH2 0x7DD JUMPI PUSH2 0x7DC PUSH2 0xF88 JUMP JUMPDEST JUMPDEST SWAP3 POP SWAP3 SWAP1 POP JUMP JUMPDEST PUSH1 0x0 DUP3 PUSH1 0x1F DUP4 ADD SLT PUSH2 0x7F9 JUMPI PUSH2 0x7F8 PUSH2 0xF83 JUMP JUMPDEST JUMPDEST DUP2 CALLDATALOAD PUSH2 0x809 DUP5 DUP3 PUSH1 0x20 DUP7 ADD PUSH2 0x71E JUMP JUMPDEST SWAP2 POP POP SWAP3 SWAP2 POP POP JUMP JUMPDEST PUSH1 0x0 DUP2 CALLDATALOAD SWAP1 POP PUSH2 0x821 DUP2 PUSH2 0xFAD JUMP JUMPDEST SWAP3 SWAP2 POP POP JUMP JUMPDEST PUSH1 0x0 DUP1 PUSH1 0x20 DUP4 DUP6 SUB SLT ISZERO PUSH2 0x83E JUMPI PUSH2 0x83D PUSH2 0xF97 JUMP JUMPDEST JUMPDEST PUSH1 0x0 DUP4 ADD CALLDATALOAD PUSH8 0xFFFFFFFFFFFFFFFF DUP2 GT ISZERO PUSH2 0x85C JUMPI PUSH2 0x85B PUSH2 0xF92 JUMP JUMPDEST JUMPDEST PUSH2 0x868 DUP6 DUP3 DUP7 ADD PUSH2 0x78E JUMP JUMPDEST SWAP3 POP SWAP3 POP POP SWAP3 POP SWAP3 SWAP1 POP JUMP JUMPDEST PUSH1 0x0 DUP1 PUSH1 0x0 DUP1 PUSH1 0x40 DUP6 DUP8 SUB SLT ISZERO PUSH2 0x88E JUMPI PUSH2 0x88D PUSH2 0xF97 JUMP JUMPDEST JUMPDEST PUSH1 0x0 DUP6 ADD CALLDATALOAD PUSH8 0xFFFFFFFFFFFFFFFF DUP2 GT ISZERO PUSH2 0x8AC JUMPI PUSH2 0x8AB PUSH2 0xF92 JUMP JUMPDEST JUMPDEST PUSH2 0x8B8 DUP8 DUP3 DUP9 ADD PUSH2 0x78E JUMP JUMPDEST SWAP5 POP SWAP5 POP POP PUSH1 0x20 DUP6 ADD CALLDATALOAD PUSH8 0xFFFFFFFFFFFFFFFF DUP2 GT ISZERO PUSH2 0x8DB JUMPI PUSH2 0x8DA PUSH2 0xF92 JUMP JUMPDEST JUMPDEST PUSH2 0x8E7 DUP8 DUP3 DUP9 ADD PUSH2 0x78E JUMP JUMPDEST SWAP3 POP SWAP3 POP POP SWAP3 SWAP6 SWAP2 SWAP5 POP SWAP3 POP JUMP JUMPDEST PUSH1 0x0 DUP1 PUSH1 0x0 DUP1 PUSH1 0x0 DUP1 PUSH1 0x0 DUP1 PUSH1 0x0 DUP1 PUSH1 0xC0 DUP12 DUP14 SUB SLT ISZERO PUSH2 0x918 JUMPI PUSH2 0x917 PUSH2 0xF97 JUMP JUMPDEST JUMPDEST PUSH1 0x0 DUP12 ADD CALLDATALOAD PUSH8 0xFFFFFFFFFFFFFFFF DUP2 GT ISZERO PUSH2 0x936 JUMPI PUSH2 0x935 PUSH2 0xF92 JUMP JUMPDEST JUMPDEST PUSH2 0x942 DUP14 DUP3 DUP15 ADD PUSH2 0x78E JUMP JUMPDEST SWAP11 POP SWAP11 POP POP PUSH1 0x20 DUP12 ADD CALLDATALOAD PUSH8 0xFFFFFFFFFFFFFFFF DUP2 GT ISZERO PUSH2 0x965 JUMPI PUSH2 0x964 PUSH2 0xF92 JUMP JUMPDEST JUMPDEST PUSH2 0x971 DUP14 DUP3 DUP15 ADD PUSH2 0x78E JUMP JUMPDEST SWAP9 POP SWAP9 POP POP PUSH1 0x40 DUP12 ADD CALLDATALOAD PUSH8 0xFFFFFFFFFFFFFFFF DUP2 GT ISZERO PUSH2 0x994 JUMPI PUSH2 0x993 PUSH2 0xF92 JUMP JUMPDEST JUMPDEST PUSH2 0x9A0 DUP14 DUP3 DUP15 ADD PUSH2 0x78E JUMP JUMPDEST SWAP7 POP SWAP7 POP POP PUSH1 0x60 DUP12 ADD CALLDATALOAD PUSH8 0xFFFFFFFFFFFFFFFF DUP2 GT ISZERO PUSH2 0x9C3 JUMPI PUSH2 0x9C2 PUSH2 0xF92 JUMP JUMPDEST JUMPDEST PUSH2 0x9CF DUP14 DUP3 DUP15 ADD PUSH2 0x78E JUMP JUMPDEST SWAP5 POP SWAP5 POP POP PUSH1 0x80 DUP12 ADD CALLDATALOAD PUSH8 0xFFFFFFFFFFFFFFFF DUP2 GT ISZERO PUSH2 0x9F2 JUMPI PUSH2 0x9F1 PUSH2 0xF92 JUMP JUMPDEST JUMPDEST PUSH2 0x9FE DUP14 DUP3 DUP15 ADD PUSH2 0x760 JUMP JUMPDEST SWAP3 POP POP PUSH1 0xA0 PUSH2 0xA0F DUP14 DUP3 DUP15 ADD PUSH2 0x812 JUMP JUMPDEST SWAP2 POP POP SWAP3 SWAP6 SWAP9 SWAP12 SWAP2 SWAP5 SWAP8 SWAP11 POP SWAP3 SWAP6 SWAP9 POP JUMP JUMPDEST PUSH1 0x0 DUP1 PUSH1 0x0 DUP1 PUSH1 0x0 DUP1 PUSH1 0x0 DUP1 PUSH1 0x0 PUSH1 0xC0 DUP11 DUP13 SUB SLT ISZERO PUSH2 0xA43 JUMPI PUSH2 0xA42 PUSH2 0xF97 JUMP JUMPDEST JUMPDEST PUSH1 0x0 DUP11 ADD CALLDATALOAD PUSH8 0xFFFFFFFFFFFFFFFF DUP2 GT ISZERO PUSH2 0xA61 JUMPI PUSH2 0xA60 PUSH2 0xF92 JUMP JUMPDEST JUMPDEST PUSH2 0xA6D DUP13 DUP3 DUP14 ADD PUSH2 0x78E JUMP JUMPDEST SWAP10 POP SWAP10 POP POP PUSH1 0x20 DUP11 ADD CALLDATALOAD PUSH8 0xFFFFFFFFFFFFFFFF DUP2 GT ISZERO PUSH2 0xA90 JUMPI PUSH2 0xA8F PUSH2 0xF92 JUMP JUMPDEST JUMPDEST PUSH2 0xA9C DUP13 DUP3 DUP14 ADD PUSH2 0x78E JUMP JUMPDEST SWAP8 POP SWAP8 POP POP PUSH1 0x40 DUP11 ADD CALLDATALOAD PUSH8 0xFFFFFFFFFFFFFFFF DUP2 GT ISZERO PUSH2 0xABF JUMPI PUSH2 0xABE PUSH2 0xF92 JUMP JUMPDEST JUMPDEST PUSH2 0xACB DUP13 DUP3 DUP14 ADD PUSH2 0x78E JUMP JUMPDEST SWAP6 POP SWAP6 POP POP PUSH1 0x60 PUSH2 0xADE DUP13 DUP3 DUP14 ADD PUSH2 0x812 JUMP JUMPDEST SWAP4 POP POP PUSH1 0x80 PUSH2 0xAEF DUP13 DUP3 DUP14 ADD PUSH2 0x812 JUMP JUMPDEST SWAP3 POP POP PUSH1 0xA0 DUP11 ADD CALLDATALOAD PUSH8 0xFFFFFFFFFFFFFFFF DUP2 GT ISZERO PUSH2 0xB10 JUMPI PUSH2 0xB0F PUSH2 0xF92 JUMP JUMPDEST JUMPDEST PUSH2 0xB1C DUP13 DUP3 DUP14 ADD PUSH2 0x7E4 JUMP JUMPDEST SWAP2 POP POP SWAP3 SWAP6 SWAP9 POP SWAP3 SWAP6 SWAP9 POP SWAP3 SWAP6 SWAP9 JUMP JUMPDEST PUSH1 0x0 PUSH2 0xB38 DUP4 DUP4 PUSH2 0xD0C JUMP JUMPDEST PUSH1 0x20 DUP4 ADD SWAP1 POP SWAP3 SWAP2 POP POP JUMP JUMPDEST PUSH1 0x0 PUSH2 0xB4F DUP3 PUSH2 0xE21 JUMP JUMPDEST PUSH2 0xB59 DUP2 DUP6 PUSH2 0xE44 JUMP JUMPDEST SWAP4 POP PUSH2 0xB64 DUP4 PUSH2 0xE11 JUMP JUMPDEST DUP1 PUSH1 0x0 JUMPDEST DUP4 DUP2 LT ISZERO PUSH2 0xB95 JUMPI DUP2 MLOAD PUSH2 0xB7C DUP9 DUP3 PUSH2 0xB2C JUMP JUMPDEST SWAP8 POP PUSH2 0xB87 DUP4 PUSH2 0xE37 JUMP JUMPDEST SWAP3 POP POP PUSH1 0x1 DUP2 ADD SWAP1 POP PUSH2 0xB68 JUMP JUMPDEST POP DUP6 SWAP4 POP POP POP POP SWAP3 SWAP2 POP POP JUMP JUMPDEST PUSH1 0x0 PUSH2 0xBAE DUP4 DUP6 PUSH2 0xE66 JUMP JUMPDEST SWAP4 POP PUSH2 0xBBB DUP4 DUP6 DUP5 PUSH2 0xE7B JUMP JUMPDEST DUP3 DUP5 ADD SWAP1 POP SWAP4 SWAP3 POP POP POP JUMP JUMPDEST PUSH1 0x0 PUSH2 0xBD2 DUP3 PUSH2 0xE2C JUMP JUMPDEST PUSH2 0xBDC DUP2 DUP6 PUSH2 0xE55 JUMP JUMPDEST SWAP4 POP PUSH2 0xBEC DUP2 DUP6 PUSH1 0x20 DUP7 ADD PUSH2 0xE8A JUMP JUMPDEST PUSH2 0xBF5 DUP2 PUSH2 0xF9C JUMP JUMPDEST DUP5 ADD SWAP2 POP POP SWAP3 SWAP2 POP POP JUMP JUMPDEST PUSH1 0x0 PUSH2 0xC0B DUP3 PUSH2 0xE2C JUMP JUMPDEST PUSH2 0xC15 DUP2 DUP6 PUSH2 0xE66 JUMP JUMPDEST SWAP4 POP PUSH2 0xC25 DUP2 DUP6 PUSH1 0x20 DUP7 ADD PUSH2 0xE8A JUMP JUMPDEST DUP1 DUP5 ADD SWAP2 POP POP SWAP3 SWAP2 POP POP JUMP JUMPDEST PUSH1 0x0 PUSH1 0x80 DUP4 ADD PUSH1 0x0 DUP4 ADD MLOAD DUP5 DUP3 SUB PUSH1 0x0 DUP7 ADD MSTORE PUSH2 0xC4E DUP3 DUP3 PUSH2 0xBC7 JUMP JUMPDEST SWAP2 POP POP PUSH1 0x20 DUP4 ADD MLOAD DUP5 DUP3 SUB PUSH1 0x20 DUP7 ADD MSTORE PUSH2 0xC68 DUP3 DUP3 PUSH2 0xBC7 JUMP JUMPDEST SWAP2 POP POP PUSH1 0x40 DUP4 ADD MLOAD PUSH2 0xC7D PUSH1 0x40 DUP7 ADD DUP3 PUSH2 0xD0C JUMP JUMPDEST POP PUSH1 0x60 DUP4 ADD MLOAD PUSH2 0xC90 PUSH1 0x60 DUP7 ADD DUP3 PUSH2 0xD0C JUMP JUMPDEST POP DUP1 SWAP2 POP POP SWAP3 SWAP2 POP POP JUMP JUMPDEST PUSH1 0x0 PUSH1 0x80 DUP4 ADD PUSH1 0x0 DUP4 ADD MLOAD DUP5 DUP3 SUB PUSH1 0x0 DUP7 ADD MSTORE PUSH2 0xCB8 DUP3 DUP3 PUSH2 0xBC7 JUMP JUMPDEST SWAP2 POP POP PUSH1 0x20 DUP4 ADD MLOAD DUP5 DUP3 SUB PUSH1 0x20 DUP7 ADD MSTORE PUSH2 0xCD2 DUP3 DUP3 PUSH2 0xBC7 JUMP JUMPDEST SWAP2 POP POP PUSH1 0x40 DUP4 ADD MLOAD DUP5 DUP3 SUB PUSH1 0x40 DUP7 ADD MSTORE PUSH2 0xCEC DUP3 DUP3 PUSH2 0xB44 JUMP JUMPDEST SWAP2 POP POP PUSH1 0x60 DUP4 ADD MLOAD PUSH2 0xD01 PUSH1 0x60 DUP7 ADD DUP3 PUSH2 0xD0C JUMP JUMPDEST POP DUP1 SWAP2 POP POP SWAP3 SWAP2 POP POP JUMP JUMPDEST PUSH2 0xD15 DUP2 PUSH2 0xE71 JUMP JUMPDEST DUP3 MSTORE POP POP JUMP JUMPDEST PUSH1 0x0 PUSH2 0xD28 DUP3 DUP5 DUP7 PUSH2 0xBA2 JUMP JUMPDEST SWAP2 POP DUP2 SWAP1 POP SWAP4 SWAP3 POP POP POP JUMP JUMPDEST PUSH1 0x0 PUSH2 0xD40 DUP3 DUP5 PUSH2 0xC00 JUMP JUMPDEST SWAP2 POP DUP2 SWAP1 POP SWAP3 SWAP2 POP POP JUMP JUMPDEST PUSH1 0x0 PUSH1 0x20 DUP3 ADD SWAP1 POP DUP2 DUP2 SUB PUSH1 0x0 DUP4 ADD MSTORE PUSH2 0xD65 DUP2 DUP5 PUSH2 0xC31 JUMP JUMPDEST SWAP1 POP SWAP3 SWAP2 POP POP JUMP JUMPDEST PUSH1 0x0 PUSH1 0x20 DUP3 ADD SWAP1 POP DUP2 DUP2 SUB PUSH1 0x0 DUP4 ADD MSTORE PUSH2 0xD87 DUP2 DUP5 PUSH2 0xC9B JUMP JUMPDEST SWAP1 POP SWAP3 SWAP2 POP POP JUMP JUMPDEST PUSH1 0x0 PUSH2 0xD99 PUSH2 0xDAA JUMP JUMPDEST SWAP1 POP PUSH2 0xDA5 DUP3 DUP3 PUSH2 0xEEF JUMP JUMPDEST SWAP2 SWAP1 POP JUMP JUMPDEST PUSH1 0x0 PUSH1 0x40 MLOAD SWAP1 POP SWAP1 JUMP JUMPDEST PUSH1 0x0 PUSH8 0xFFFFFFFFFFFFFFFF DUP3 GT ISZERO PUSH2 0xDCF JUMPI PUSH2 0xDCE PUSH2 0xF4F JUMP JUMPDEST JUMPDEST PUSH1 0x20 DUP3 MUL SWAP1 POP PUSH1 0x20 DUP2 ADD SWAP1 POP SWAP2 SWAP1 POP JUMP JUMPDEST PUSH1 0x0 PUSH8 0xFFFFFFFFFFFFFFFF DUP3 GT ISZERO PUSH2 0xDFB JUMPI PUSH2 0xDFA PUSH2 0xF4F JUMP JUMPDEST JUMPDEST PUSH2 0xE04 DUP3 PUSH2 0xF9C JUMP JUMPDEST SWAP1 POP PUSH1 0x20 DUP2 ADD SWAP1 POP SWAP2 SWAP1 POP JUMP JUMPDEST PUSH1 0x0 DUP2 SWAP1 POP PUSH1 0x20 DUP3 ADD SWAP1 POP SWAP2 SWAP1 POP JUMP JUMPDEST PUSH1 0x0 DUP2 MLOAD SWAP1 POP SWAP2 SWAP1 POP JUMP JUMPDEST PUSH1 0x0 DUP2 MLOAD SWAP1 POP SWAP2 SWAP1 POP JUMP JUMPDEST PUSH1 0x0 PUSH1 0x20 DUP3 ADD SWAP1 POP SWAP2 SWAP1 POP JUMP JUMPDEST PUSH1 0x0 DUP3 DUP3 MSTORE PUSH1 0x20 DUP3 ADD SWAP1 POP SWAP3 SWAP2 POP POP JUMP JUMPDEST PUSH1 0x0 DUP3 DUP3 MSTORE PUSH1 0x20 DUP3 ADD SWAP1 POP SWAP3 SWAP2 POP POP JUMP JUMPDEST PUSH1 0x0 DUP2 SWAP1 POP SWAP3 SWAP2 POP POP JUMP JUMPDEST PUSH1 0x0 DUP2 SWAP1 POP SWAP2 SWAP1 POP JUMP JUMPDEST DUP3 DUP2 DUP4 CALLDATACOPY PUSH1 0x0 DUP4 DUP4 ADD MSTORE POP POP POP JUMP JUMPDEST PUSH1 0x0 JUMPDEST DUP4 DUP2 LT ISZERO PUSH2 0xEA8 JUMPI DUP1 DUP3 ADD MLOAD DUP2 DUP5 ADD MSTORE PUSH1 0x20 DUP2 ADD SWAP1 POP PUSH2 0xE8D JUMP JUMPDEST DUP4 DUP2 GT ISZERO PUSH2 0xEB7 JUMPI PUSH1 0x0 DUP5 DUP5 ADD MSTORE JUMPDEST POP POP POP POP JUMP JUMPDEST PUSH1 0x0 PUSH1 0x2 DUP3 DIV SWAP1 POP PUSH1 0x1 DUP3 AND DUP1 PUSH2 0xED5 JUMPI PUSH1 0x7F DUP3 AND SWAP2 POP JUMPDEST PUSH1 0x20 DUP3 LT DUP2 EQ ISZERO PUSH2 0xEE9 JUMPI PUSH2 0xEE8 PUSH2 0xF20 JUMP JUMPDEST JUMPDEST POP SWAP2 SWAP1 POP JUMP JUMPDEST PUSH2 0xEF8 DUP3 PUSH2 0xF9C JUMP JUMPDEST DUP2 ADD DUP2 DUP2 LT PUSH8 0xFFFFFFFFFFFFFFFF DUP3 GT OR ISZERO PUSH2 0xF17 JUMPI PUSH2 0xF16 PUSH2 0xF4F JUMP JUMPDEST JUMPDEST DUP1 PUSH1 0x40 MSTORE POP POP POP JUMP JUMPDEST PUSH32 0x4E487B7100000000000000000000000000000000000000000000000000000000 PUSH1 0x0 MSTORE PUSH1 0x22 PUSH1 0x4 MSTORE PUSH1 0x24 PUSH1 0x0 REVERT JUMPDEST PUSH32 0x4E487B7100000000000000000000000000000000000000000000000000000000 PUSH1 0x0 MSTORE PUSH1 0x41 PUSH1 0x4 MSTORE PUSH1 0x24 PUSH1 0x0 REVERT JUMPDEST PUSH1 0x0 DUP1 REVERT JUMPDEST PUSH1 0x0 DUP1 REVERT JUMPDEST PUSH1 0x0 DUP1 REVERT JUMPDEST PUSH1 0x0 DUP1 REVERT JUMPDEST PUSH1 0x0 DUP1 REVERT JUMPDEST PUSH1 0x0 DUP1 REVERT JUMPDEST PUSH1 0x0 PUSH1 0x1F NOT PUSH1 0x1F DUP4 ADD AND SWAP1 POP SWAP2 SWAP1 POP JUMP JUMPDEST PUSH2 0xFB6 DUP2 PUSH2 0xE71 JUMP JUMPDEST DUP2 EQ PUSH2 0xFC1 JUMPI PUSH1 0x0 DUP1 REVERT JUMPDEST POP JUMP INVALID LOG2 PUSH5 0x6970667358 0x22 SLT KECCAK256 0xA5 0xCE PUSH8 0x40A05FB08C028DF0 0xE3 XOR 0xAE 0xAF BALANCE 0xF9 0xC6 0xE7 0xCC SWAP4 0xD8 ADDRESS EXTCODECOPY DUP7 0xA9 PUSH22 0x735D64A92364736F6C63430008060033000000000000 "
		},
		"gasEstimates": {
			"creation": {
				"codeDepositCost": "818000",
				"executionCost": "851",
				"totalCost": "818851"
			},
			"external": {
				"addCountry(string,string,string,uint256,uint256,string)": "infinite",
				"addState(string,string,string,string,uint256[],uint256)": "infinite",
				"seeCountry(string)": "infinite",
				"seeState(string,string)": "infinite"
			}
		},
		"methodIdentifiers": {
			"addCountry(string,string,string,uint256,uint256,string)": "e84f0954",
			"addState(string,string,string,string,uint256[],uint256)": "40d48950",
			"seeCountry(string)": "30705565",
			"seeState(string,string)": "b3fde2b1"
		}
	},
	"abi": [
		{
			"inputs": [
				{
					"internalType": "string",
					"name": "_cn",
					"type": "string"
				},
				{
					"internalType": "string",
					"name": "_p",
					"type": "string"
				},
				{
					"internalType": "string",
					"name": "_c",
					"type": "string"
				},
				{
					"internalType": "uint256",
					"name": "_gdp",
					"type": "uint256"
				},
				{
					"internalType": "uint256",
					"name": "_cR",
					"type": "uint256"
				},
				{
					"internalType": "string",
					"name": "addstate",
					"type": "string"
				}
			],
			"name": "addCountry",
			"outputs": [],
			"stateMutability": "nonpayable",
			"type": "function"
		},
		{
			"inputs": [
				{
					"internalType": "string",
					"name": "_state",
					"type": "string"
				},
				{
					"internalType": "string",
					"name": "_cn",
					"type": "string"
				},
				{
					"internalType": "string",
					"name": "_governor",
					"type": "string"
				},
				{
					"internalType": "string",
					"name": "_capital",
					"type": "string"
				},
				{
					"internalType": "uint256[]",
					"name": "_zipCodes",
					"type": "uint256[]"
				},
				{
					"internalType": "uint256",
					"name": "_IGR",
					"type": "uint256"
				}
			],
			"name": "addState",
			"outputs": [],
			"stateMutability": "nonpayable",
			"type": "function"
		},
		{
			"inputs": [
				{
					"internalType": "string",
					"name": "_cn",
					"type": "string"
				}
			],
			"name": "seeCountry",
			"outputs": [
				{
					"components": [
						{
							"internalType": "string",
							"name": "president",
							"type": "string"
						},
						{
							"internalType": "string",
							"name": "capital",
							"type": "string"
						},
						{
							"internalType": "uint256",
							"name": "GDP",
							"type": "uint256"
						},
						{
							"internalType": "uint256",
							"name": "countryRevenue",
							"type": "uint256"
						}
					],
					"internalType": "struct CountryDB.CountryWithoutStates",
					"name": "c",
					"type": "tuple"
				}
			],
			"stateMutability": "view",
			"type": "function"
		},
		{
			"inputs": [
				{
					"internalType": "string",
					"name": "_st",
					"type": "string"
				},
				{
					"internalType": "string",
					"name": "_c",
					"type": "string"
				}
			],
			"name": "seeState",
			"outputs": [
				{
					"components": [
						{
							"internalType": "string",
							"name": "governor",
							"type": "string"
						},
						{
							"internalType": "string",
							"name": "capital",
							"type": "string"
						},
						{
							"internalType": "uint256[]",
							"name": "zipCodes",
							"type": "uint256[]"
						},
						{
							"internalType": "uint256",
							"name": "IGR",
							"type": "uint256"
						}
					],
					"internalType": "struct CountryDB.StateWithoutmapping",
					"name": "s",
					"type": "tuple"
				}
			],
			"stateMutability": "view",
			"type": "function"
		}
	]
}